{
  "address": "0x67fe2D0d38DBF6dfdF359A5FEa7b7CD9a966FE53",
  "abi": [
    {
      "constant": false,
      "inputs": [
        {
          "name": "_key",
          "type": "bytes32"
        },
        {
          "name": "_value",
          "type": "uint256"
        },
        {
          "name": "_ID",
          "type": "bytes32"
        }
      ],
      "name": "_set",
      "outputs": [],
      "payable": false,
      "stateMutability": "nonpayable",
      "type": "function"
    },
    {
      "constant": true,
      "inputs": [
        {
          "name": "_key",
          "type": "bytes32"
        },
        {
          "name": "_drawnNumber",
          "type": "uint256"
        }
      ],
      "name": "_draw",
      "outputs": [
        {
          "name": "ID",
          "type": "bytes32"
        }
      ],
      "payable": false,
      "stateMutability": "view",
      "type": "function"
    },
    {
      "constant": true,
      "inputs": [
        {
          "name": "_key",
          "type": "bytes32"
        },
        {
          "name": "_ID",
          "type": "bytes32"
        }
      ],
      "name": "_stakeOf",
      "outputs": [
        {
          "name": "value",
          "type": "uint256"
        }
      ],
      "payable": false,
      "stateMutability": "view",
      "type": "function"
    },
    {
      "constant": true,
      "inputs": [
        {
          "name": "_key",
          "type": "bytes32"
        },
        {
          "name": "_cursor",
          "type": "uint256"
        },
        {
          "name": "_count",
          "type": "uint256"
        }
      ],
      "name": "_queryLeafs",
      "outputs": [
        {
          "name": "startIndex",
          "type": "uint256"
        },
        {
          "name": "values",
          "type": "uint256[]"
        },
        {
          "name": "hasMore",
          "type": "bool"
        }
      ],
      "payable": false,
      "stateMutability": "view",
      "type": "function"
    },
    {
      "constant": false,
      "inputs": [
        {
          "name": "_key",
          "type": "bytes32"
        },
        {
          "name": "_K",
          "type": "uint256"
        }
      ],
      "name": "_createTree",
      "outputs": [],
      "payable": false,
      "stateMutability": "nonpayable",
      "type": "function"
    },
    {
      "constant": true,
      "inputs": [
        {
          "name": "_key",
          "type": "bytes32"
        }
      ],
      "name": "_sortitionSumTrees",
      "outputs": [
        {
          "name": "K",
          "type": "uint256"
        },
        {
          "name": "stack",
          "type": "uint256[]"
        },
        {
          "name": "nodes",
          "type": "uint256[]"
        }
      ],
      "payable": false,
      "stateMutability": "view",
      "type": "function"
    }
  ],
  "transactionHash": "0x8bece32ced388cb7db028437776b8662ca6402985366d4d3bcc7b6a466a8537e",
  "args": [],
  "numDeployments": 1,
  "solcInputHash": "d1e0706dec2c12921cdd74a294ddc93f",
  "bytecode": "0x608060405234801561001057600080fd5b506106ba806100206000396000f3006080604052600436106100775763ffffffff7c010000000000000000000000000000000000000000000000000000000060003504166318fd0ce8811461007c5780631f45bf931461009c57806337640f39146100c9578063b27680fa146100e4578063da9a804b14610168578063e5541ff614610183575b600080fd5b34801561008857600080fd5b5061009a60043560243560443561023b565b005b3480156100a857600080fd5b506100b76004356024356102d6565b60408051918252519081900360200190f35b3480156100d557600080fd5b506100b7600435602435610384565b3480156100f057600080fd5b506101026004356024356044356103ff565b604051808481526020018060200183151515158152602001828103825284818151815260200191508051906020019060200280838360005b8381101561015257818101518382015260200161013a565b5050505090500194505050505060405180910390f35b34801561017457600080fd5b5061009a60043560243561052e565b34801561018f57600080fd5b5061019b6004356105c1565b604051808481526020018060200180602001838103835285818151815260200191508051906020019060200280838360005b838110156101e55781810151838201526020016101cd565b50505050905001838103825284818151815260200191508051906020019060200280838360005b8381101561022457818101518382015260200161020c565b505050509050019550505050505060405180910390f35b604080517f2e25c38a00000000000000000000000000000000000000000000000000000000815260006004820181905260248201869052604482018590526064820184905291517317aA5CDbe970fB8C0FdfD9090F2883fF70c83DD892632e25c38a9260848082019391829003018186803b1580156102b957600080fd5b505af41580156102cd573d6000803e3d6000fd5b50505050505050565b604080517f88c1d467000000000000000000000000000000000000000000000000000000008152600060048201819052602482018590526044820184905291517317aA5CDbe970fB8C0FdfD9090F2883fF70c83DD8916388c1d467916064808301926020929190829003018186803b15801561035157600080fd5b505af4158015610365573d6000803e3d6000fd5b505050506040513d602081101561037b57600080fd5b50519392505050565b604080517f7521ccb1000000000000000000000000000000000000000000000000000000008152600060048201819052602482018590526044820184905291517317aA5CDbe970fB8C0FdfD9090F2883fF70c83DD891637521ccb1916064808301926020929190829003018186803b15801561035157600080fd5b604080517f65b81f4f000000000000000000000000000000000000000000000000000000008152600060048201819052602482018690526044820185905260648201849052915160609183917317aA5CDbe970fB8C0FdfD9090F2883fF70c83DD8916365b81f4f9160848083019286929190829003018186803b15801561048557600080fd5b505af4158015610499573d6000803e3d6000fd5b505050506040513d6000823e601f3d908101601f1916820160405260608110156104c257600080fd5b8151602083018051919392830192916401000000008111156104e357600080fd5b820160208101848111156104f657600080fd5b815185602082028301116401000000008211171561051357600080fd5b50506020909101519396509450919250505093509350939050565b604080517f9075789e000000000000000000000000000000000000000000000000000000008152600060048201819052602482018590526044820184905291517317aA5CDbe970fB8C0FdfD9090F2883fF70c83DD892639075789e9260648082019391829003018186803b1580156105a557600080fd5b505af41580156105b9573d6000803e3d6000fd5b505050505050565b600081815260208181526040808320805460018201805484518187028101870190955280855260609586959394929360029093019291849183018282801561062857602002820191906000526020600020905b815481526020019060010190808311610614575b505050505091508080548060200260200160405190810160405280929190818152602001828054801561067a57602002820191906000526020600020905b815481526020019060010190808311610666575b5050505050905092509250925091939092505600a165627a7a72305820c1d86c6e123ee29ee8fd63f4d2d6f07abdd2704d5415fb241b298f0dace8fe260029",
  "deployedBytecode": "0x6080604052600436106100775763ffffffff7c010000000000000000000000000000000000000000000000000000000060003504166318fd0ce8811461007c5780631f45bf931461009c57806337640f39146100c9578063b27680fa146100e4578063da9a804b14610168578063e5541ff614610183575b600080fd5b34801561008857600080fd5b5061009a60043560243560443561023b565b005b3480156100a857600080fd5b506100b76004356024356102d6565b60408051918252519081900360200190f35b3480156100d557600080fd5b506100b7600435602435610384565b3480156100f057600080fd5b506101026004356024356044356103ff565b604051808481526020018060200183151515158152602001828103825284818151815260200191508051906020019060200280838360005b8381101561015257818101518382015260200161013a565b5050505090500194505050505060405180910390f35b34801561017457600080fd5b5061009a60043560243561052e565b34801561018f57600080fd5b5061019b6004356105c1565b604051808481526020018060200180602001838103835285818151815260200191508051906020019060200280838360005b838110156101e55781810151838201526020016101cd565b50505050905001838103825284818151815260200191508051906020019060200280838360005b8381101561022457818101518382015260200161020c565b505050509050019550505050505060405180910390f35b604080517f2e25c38a000000000000000000000000000000000000000000000000000000008152600060048201819052602482018690526044820185905260648201849052915173__src/data-structures/SortitionSumTree__92632e25c38a9260848082019391829003018186803b1580156102b957600080fd5b505af41580156102cd573d6000803e3d6000fd5b50505050505050565b604080517f88c1d4670000000000000000000000000000000000000000000000000000000081526000600482018190526024820185905260448201849052915173__src/data-structures/SortitionSumTree__916388c1d467916064808301926020929190829003018186803b15801561035157600080fd5b505af4158015610365573d6000803e3d6000fd5b505050506040513d602081101561037b57600080fd5b50519392505050565b604080517f7521ccb10000000000000000000000000000000000000000000000000000000081526000600482018190526024820185905260448201849052915173__src/data-structures/SortitionSumTree__91637521ccb1916064808301926020929190829003018186803b15801561035157600080fd5b604080517f65b81f4f0000000000000000000000000000000000000000000000000000000081526000600482018190526024820186905260448201859052606482018490529151606091839173__src/data-structures/SortitionSumTree__916365b81f4f9160848083019286929190829003018186803b15801561048557600080fd5b505af4158015610499573d6000803e3d6000fd5b505050506040513d6000823e601f3d908101601f1916820160405260608110156104c257600080fd5b8151602083018051919392830192916401000000008111156104e357600080fd5b820160208101848111156104f657600080fd5b815185602082028301116401000000008211171561051357600080fd5b50506020909101519396509450919250505093509350939050565b604080517f9075789e0000000000000000000000000000000000000000000000000000000081526000600482018190526024820185905260448201849052915173__src/data-structures/SortitionSumTree__92639075789e9260648082019391829003018186803b1580156105a557600080fd5b505af41580156105b9573d6000803e3d6000fd5b505050505050565b600081815260208181526040808320805460018201805484518187028101870190955280855260609586959394929360029093019291849183018282801561062857602002820191906000526020600020905b815481526020019060010190808311610614575b505050505091508080548060200260200160405190810160405280929190818152602001828054801561067a57602002820191906000526020600020905b815481526020019060010190808311610666575b5050505050905092509250925091939092505600a165627a7a72305820c1d86c6e123ee29ee8fd63f4d2d6f07abdd2704d5415fb241b298f0dace8fe260029",
  "libraries": {
    "SortitionSumTreeFactory": "0x17aA5CDbe970fB8C0FdfD9090F2883fF70c83DD8"
  },
  "devdoc": {
    "author": "Enrique Piqueras - <epiquerass@gmail.com>",
    "methods": {
      "_createTree(bytes32,uint256)": {
        "details": "Create a sortition sum tree at the specified key.",
        "params": {
          "_K": "The number of children each node in the tree should have.",
          "_key": "The key of the new tree."
        }
      },
      "_draw(bytes32,uint256)": {
        "details": "Draw an ID from a tree using a number.",
        "params": {
          "_drawnNumber": "The drawn number.",
          "_key": "The key of the tree."
        },
        "return": "The drawn ID."
      },
      "_queryLeafs(bytes32,uint256,uint256)": {
        "details": "Query the leaves of a tree.",
        "params": {
          "_count": "The number of items to return.",
          "_cursor": "The pagination cursor.",
          "_key": "The key of the tree to get the leaves from."
        },
        "return": "The index at which leaves start, the values of the returned leaves, and whether there are more for pagination."
      },
      "_set(bytes32,uint256,bytes32)": {
        "details": "Set a value of a tree.",
        "params": {
          "_ID": "The ID of the value.",
          "_key": "The key of the tree.",
          "_value": "The new value."
        }
      },
      "_sortitionSumTrees(bytes32)": {
        "details": "Public getter for sortitionSumTrees.",
        "params": {
          "_key": "The key of the tree to get."
        },
        "return": "All of the tree's properties."
      },
      "_stakeOf(bytes32,bytes32)": {
        "details": "Gets a specified candidate's associated value.",
        "params": {
          "_ID": "The ID of the value.",
          "_key": "The key of the tree."
        },
        "return": "The associated value."
      }
    },
    "title": "ExposedSortitionSumTreeFactory"
  },
  "userdoc": {
    "methods": {}
  }
}