{
  "address": "0x7D78466AC0211400235696e114E342377045a84e",
  "abi": [
    {
      "constant": true,
      "inputs": [],
      "name": "klerosLiquid",
      "outputs": [
        {
          "name": "",
          "type": "address"
        }
      ],
      "payable": false,
      "stateMutability": "view",
      "type": "function"
    },
    {
      "constant": true,
      "inputs": [
        {
          "name": "_account",
          "type": "address"
        },
        {
          "name": "_subcourtID",
          "type": "uint96"
        }
      ],
      "name": "stakeOf",
      "outputs": [
        {
          "name": "stake",
          "type": "uint256"
        }
      ],
      "payable": false,
      "stateMutability": "view",
      "type": "function"
    },
    {
      "constant": true,
      "inputs": [
        {
          "name": "_account",
          "type": "address"
        }
      ],
      "name": "getJuror",
      "outputs": [
        {
          "name": "subcourtIDs",
          "type": "uint96[]"
        },
        {
          "name": "stakedTokens",
          "type": "uint256"
        },
        {
          "name": "lockedTokens",
          "type": "uint256"
        },
        {
          "name": "subcourtStakes",
          "type": "uint256[]"
        }
      ],
      "payable": false,
      "stateMutability": "view",
      "type": "function"
    },
    {
      "inputs": [
        {
          "name": "_klerosLiquid",
          "type": "address"
        }
      ],
      "payable": false,
      "stateMutability": "nonpayable",
      "type": "constructor"
    }
  ],
  "transactionHash": "0x3f0b44ca7f6fdd913701b0cab20205aaa2f8b8ffa11046178daf0fef2e38c88d",
  "args": [
    "0x56478d65A70E91E9653723B38971eC73bb0b357D"
  ],
  "numDeployments": 1,
  "solcInputHash": "d1e0706dec2c12921cdd74a294ddc93f",
  "bytecode": "0x608060405234801561001057600080fd5b50604051602080610c71833981016040525160008054600160a060020a03909216600160a060020a0319909216919091179055610c1f806100526000396000f30060806040526004361061003d5763ffffffff60e060020a6000350416636bb6cd868114610042578063a2473cc114610073578063d4155d1f146100b2575b600080fd5b34801561004e57600080fd5b5061005761017a565b60408051600160a060020a039092168252519081900360200190f35b34801561007f57600080fd5b506100a0600160a060020a03600435166001606060020a0360243516610189565b60408051918252519081900360200190f35b3480156100be57600080fd5b506100d3600160a060020a036004351661020d565b604051808060200185815260200184815260200180602001838103835287818151815260200191508051906020019060200280838360005b8381101561012357818101518382015260200161010b565b50505050905001838103825284818151815260200191508051906020019060200280838360005b8381101561016257818101518382015260200161014a565b50505050905001965050505050505060405180910390f35b600054600160a060020a031681565b600060608060006101998661020d565b945050509250600090505b82518110156102045782818151811015156101bb57fe5b906020019060200201516001606060020a0316856001016001606060020a031614156101fc5781818151811015156101ef57fe5b9060200190602002015193505b6001016101a4565b50505092915050565b606060008060608060008060008060008060008060009054906101000a9004600160a060020a0316600160a060020a031663b4a616086040518163ffffffff1660e060020a028152600401602060405180830381600087803b15801561027257600080fd5b505af1158015610286573d6000803e3d6000fd5b505050506040513d602081101561029c57600080fd5b50516040805182815260208084028201019091529080156102c7578160200160208202803883390190505b509b506000809054906101000a9004600160a060020a0316600160a060020a031663dca5f6b08e6040518263ffffffff1660e060020a0281526004018082600160a060020a0316600160a060020a031681526020019150506040805180830381600087803b15801561033857600080fd5b505af115801561034c573d6000803e3d6000fd5b505050506040513d604081101561036257600080fd5b810190808051906020019092919080519060200190929190505050809b50819c5050506000809054906101000a9004600160a060020a0316600160a060020a031663b4a616086040518163ffffffff1660e060020a028152600401602060405180830381600087803b1580156103d757600080fd5b505af11580156103eb573d6000803e3d6000fd5b505050506040513d602081101561040157600080fd5b505160408051828152602080840282010190915290801561042c578160200160208202803883390190505b5098506000809054906101000a9004600160a060020a0316600160a060020a031663d4155d1f8e6040518263ffffffff1660e060020a0281526004018082600160a060020a0316600160a060020a03168152602001915050600060405180830381600087803b15801561049e57600080fd5b505af11580156104b2573d6000803e3d6000fd5b505050506040513d6000823e601f3d908101601f1916820160405260208110156104db57600080fd5b8101908080516401000000008111156104f357600080fd5b8201602081018481111561050657600080fd5b815185602082028301116401000000008211171561052357600080fd5b50909b5060009a50505050505b875187101561064857878781518110151561054757fe5b906020019060200201516001018c8881518110151561056257fe5b6001606060020a039092166020928302909101909101526000548851600160a060020a039091169063a2473cc1908f908b908b90811061059e57fe5b60209081029091018101516040805160e060020a63ffffffff8716028152600160a060020a0390941660048501526001606060020a039091166024840152516044808401938290030181600087803b1580156105f957600080fd5b505af115801561060d573d6000803e3d6000fd5b505050506040513d602081101561062357600080fd5b505189518a908990811061063357fe5b60209081029091010152600190960195610530565b6000809054906101000a9004600160a060020a0316600160a060020a031663c108f3b46040518163ffffffff1660e060020a028152600401602060405180830381600087803b15801561069a57600080fd5b505af11580156106ae573d6000803e3d6000fd5b505050506040513d60208110156106c457600080fd5b505196505b6000809054906101000a9004600160a060020a0316600160a060020a0316630d44cf796040518163ffffffff1660e060020a028152600401602060405180830381600087803b15801561071b57600080fd5b505af115801561072f573d6000803e3d6000fd5b505050506040513d602081101561074557600080fd5b50518711610be45760008054604080517fb78a80ff000000000000000000000000000000000000000000000000000000008152600481018b90529051600160a060020a039092169263b78a80ff926024808401936060939083900390910190829087803b1580156107b557600080fd5b505af11580156107c9573d6000803e3d6000fd5b505050506040513d60608110156107df57600080fd5b50805160208201516040909201519097509095509350600160a060020a038d81169087161461080d57610bd9565b60008054604080517f1f5a0dd20000000000000000000000000000000000000000000000000000000081526001606060020a03891660048201529051600160a060020a0390921692631f5a0dd29260248084019360c0939083900390910190829087803b15801561087d57600080fd5b505af1158015610891573d6000803e3d6000fd5b505050506040513d60c08110156108a757600080fd5b506040015192506001608060020a038416151561097357600091505b8b5182101561096e578b828151811015156108da57fe5b906020019060200201516001606060020a0316856001016001606060020a0316141561096357888281518110151561090e57fe5b906020019060200201518b039a5060008c8381518110151561092c57fe5b6001606060020a0390921660209283029091019091015288516000908a908490811061095457fe5b6020908102909101015261096e565b6001909101906108c3565b610bd9565b6001608060020a0384168311610bd95750600090506000195b8b51821015610a18578b828151811015156109a357fe5b906020019060200201516001606060020a031660001480156109c6575060001981145b156109d2575080610a0d565b8b828151811015156109e057fe5b906020019060200201516001606060020a0316856001016001606060020a03161415610a0d575080610a18565b60019091019061098c565b6000198114158015610b605750836001608060020a03168982815181101515610a3d57fe5b906020019060200201518c03016000809054906101000a9004600160a060020a0316600160a060020a031663fbf405b06040518163ffffffff1660e060020a028152600401602060405180830381600087803b158015610a9c57600080fd5b505af1158015610ab0573d6000803e3d6000fd5b505050506040513d6020811015610ac657600080fd5b8101908080519060200190929190505050600160a060020a03166370a082318f6040518263ffffffff1660e060020a0281526004018082600160a060020a0316600160a060020a03168152602001915050602060405180830381600087803b158015610b3157600080fd5b505af1158015610b45573d6000803e3d6000fd5b505050506040513d6020811015610b5b57600080fd5b505110155b15610bd957846001018c82815181101515610b7757fe5b6001606060020a0390921660209283029091019091015288516001608060020a038516908a9083908110610ba757fe5b906020019060200201518c03019a50836001608060020a03168982815181101515610bce57fe5b602090810290910101525b6001909601956106c9565b505050505050505091935091935600a165627a7a72305820d15a18b7d378709d18362cab1e7b264238e7e2d6295f7b01bb3ff045a2d1ac920029",
  "devdoc": {
    "methods": {
      "getJuror(address)": {
        "details": "Gets a specified juror's properties, taking into account delayed set stakes. Note that subcourt IDs are shifted by 1 so that 0 can be \"empty\".",
        "params": {
          "_account": "The address of the juror."
        },
        "return": "The juror's properties, taking into account delayed set stakes."
      },
      "stakeOf(address,uint96)": {
        "details": "Gets the stake of a specified juror in a specified subcourt, taking into account delayed set stakes.",
        "params": {
          "_account": "The address of the juror.",
          "_subcourtID": "The ID of the subcourt."
        },
        "return": "The stake."
      }
    },
    "title": "KlerosLiquidExtraViews"
  },
  "userdoc": {
    "methods": {}
  }
}