{
  "address": "0x56478d65A70E91E9653723B38971eC73bb0b357D",
  "abi": [
    {
      "constant": false,
      "inputs": [
        {
          "name": "_pinakion",
          "type": "address"
        }
      ],
      "name": "changePinakion",
      "outputs": [],
      "payable": false,
      "stateMutability": "nonpayable",
      "type": "function"
    },
    {
      "constant": true,
      "inputs": [],
      "name": "RNBlock",
      "outputs": [
        {
          "name": "",
          "type": "uint256"
        }
      ],
      "payable": false,
      "stateMutability": "view",
      "type": "function"
    },
    {
      "constant": true,
      "inputs": [],
      "name": "disputesWithoutJurors",
      "outputs": [
        {
          "name": "",
          "type": "uint256"
        }
      ],
      "payable": false,
      "stateMutability": "view",
      "type": "function"
    },
    {
      "constant": false,
      "inputs": [],
      "name": "passPhase",
      "outputs": [],
      "payable": false,
      "stateMutability": "nonpayable",
      "type": "function"
    },
    {
      "constant": true,
      "inputs": [],
      "name": "governor",
      "outputs": [
        {
          "name": "",
          "type": "address"
        }
      ],
      "payable": false,
      "stateMutability": "view",
      "type": "function"
    },
    {
      "constant": true,
      "inputs": [],
      "name": "lastDelayedSetStake",
      "outputs": [
        {
          "name": "",
          "type": "uint256"
        }
      ],
      "payable": false,
      "stateMutability": "view",
      "type": "function"
    },
    {
      "constant": true,
      "inputs": [
        {
          "name": "_disputeID",
          "type": "uint256"
        }
      ],
      "name": "disputeStatus",
      "outputs": [
        {
          "name": "status",
          "type": "uint8"
        }
      ],
      "payable": false,
      "stateMutability": "view",
      "type": "function"
    },
    {
      "constant": false,
      "inputs": [
        {
          "name": "_disputeID",
          "type": "uint256"
        }
      ],
      "name": "passPeriod",
      "outputs": [],
      "payable": false,
      "stateMutability": "nonpayable",
      "type": "function"
    },
    {
      "constant": true,
      "inputs": [],
      "name": "maxDrawingTime",
      "outputs": [
        {
          "name": "",
          "type": "uint256"
        }
      ],
      "payable": false,
      "stateMutability": "view",
      "type": "function"
    },
    {
      "constant": true,
      "inputs": [
        {
          "name": "_disputeID",
          "type": "uint256"
        }
      ],
      "name": "currentRuling",
      "outputs": [
        {
          "name": "ruling",
          "type": "uint256"
        }
      ],
      "payable": false,
      "stateMutability": "view",
      "type": "function"
    },
    {
      "constant": true,
      "inputs": [
        {
          "name": "",
          "type": "uint256"
        }
      ],
      "name": "courts",
      "outputs": [
        {
          "name": "parent",
          "type": "uint96"
        },
        {
          "name": "hiddenVotes",
          "type": "bool"
        },
        {
          "name": "minStake",
          "type": "uint256"
        },
        {
          "name": "alpha",
          "type": "uint256"
        },
        {
          "name": "feeForJuror",
          "type": "uint256"
        },
        {
          "name": "jurorsForCourtJump",
          "type": "uint256"
        }
      ],
      "payable": false,
      "stateMutability": "view",
      "type": "function"
    },
    {
      "constant": false,
      "inputs": [
        {
          "name": "_disputeID",
          "type": "uint256"
        },
        {
          "name": "_appeal",
          "type": "uint256"
        },
        {
          "name": "_iterations",
          "type": "uint256"
        }
      ],
      "name": "execute",
      "outputs": [],
      "payable": false,
      "stateMutability": "nonpayable",
      "type": "function"
    },
    {
      "constant": true,
      "inputs": [],
      "name": "ALPHA_DIVISOR",
      "outputs": [
        {
          "name": "",
          "type": "uint256"
        }
      ],
      "payable": false,
      "stateMutability": "view",
      "type": "function"
    },
    {
      "constant": false,
      "inputs": [
        {
          "name": "_disputeID",
          "type": "uint256"
        },
        {
          "name": "_voteIDs",
          "type": "uint256[]"
        },
        {
          "name": "_choice",
          "type": "uint256"
        },
        {
          "name": "_salt",
          "type": "uint256"
        }
      ],
      "name": "castVote",
      "outputs": [],
      "payable": false,
      "stateMutability": "nonpayable",
      "type": "function"
    },
    {
      "constant": false,
      "inputs": [
        {
          "name": "_subcourtID",
          "type": "uint96"
        },
        {
          "name": "_minStake",
          "type": "uint256"
        }
      ],
      "name": "changeSubcourtMinStake",
      "outputs": [],
      "payable": false,
      "stateMutability": "nonpayable",
      "type": "function"
    },
    {
      "constant": true,
      "inputs": [
        {
          "name": "_subcourtID",
          "type": "uint96"
        }
      ],
      "name": "getSubcourt",
      "outputs": [
        {
          "name": "children",
          "type": "uint256[]"
        },
        {
          "name": "timesPerPeriod",
          "type": "uint256[4]"
        }
      ],
      "payable": false,
      "stateMutability": "view",
      "type": "function"
    },
    {
      "constant": false,
      "inputs": [
        {
          "name": "_disputeID",
          "type": "uint256"
        },
        {
          "name": "_extraData",
          "type": "bytes"
        }
      ],
      "name": "appeal",
      "outputs": [],
      "payable": true,
      "stateMutability": "payable",
      "type": "function"
    },
    {
      "constant": false,
      "inputs": [
        {
          "name": "_from",
          "type": "address"
        },
        {
          "name": "_to",
          "type": "address"
        },
        {
          "name": "_amount",
          "type": "uint256"
        }
      ],
      "name": "onTransfer",
      "outputs": [
        {
          "name": "allowed",
          "type": "bool"
        }
      ],
      "payable": false,
      "stateMutability": "nonpayable",
      "type": "function"
    },
    {
      "constant": true,
      "inputs": [
        {
          "name": "",
          "type": "uint256"
        }
      ],
      "name": "disputes",
      "outputs": [
        {
          "name": "subcourtID",
          "type": "uint96"
        },
        {
          "name": "arbitrated",
          "type": "address"
        },
        {
          "name": "numberOfChoices",
          "type": "uint256"
        },
        {
          "name": "period",
          "type": "uint8"
        },
        {
          "name": "lastPeriodChange",
          "type": "uint256"
        },
        {
          "name": "drawsInRound",
          "type": "uint256"
        },
        {
          "name": "commitsInRound",
          "type": "uint256"
        },
        {
          "name": "ruled",
          "type": "bool"
        }
      ],
      "payable": false,
      "stateMutability": "view",
      "type": "function"
    },
    {
      "constant": false,
      "inputs": [
        {
          "name": "_subcourtID",
          "type": "uint96"
        },
        {
          "name": "_timesPerPeriod",
          "type": "uint256[4]"
        }
      ],
      "name": "changeSubcourtTimesPerPeriod",
      "outputs": [],
      "payable": false,
      "stateMutability": "nonpayable",
      "type": "function"
    },
    {
      "constant": false,
      "inputs": [
        {
          "name": "_subcourtID",
          "type": "uint96"
        },
        {
          "name": "_feeForJuror",
          "type": "uint256"
        }
      ],
      "name": "changeSubcourtJurorFee",
      "outputs": [],
      "payable": false,
      "stateMutability": "nonpayable",
      "type": "function"
    },
    {
      "constant": false,
      "inputs": [
        {
          "name": "_subcourtID",
          "type": "uint96"
        },
        {
          "name": "_alpha",
          "type": "uint256"
        }
      ],
      "name": "changeSubcourtAlpha",
      "outputs": [],
      "payable": false,
      "stateMutability": "nonpayable",
      "type": "function"
    },
    {
      "constant": false,
      "inputs": [
        {
          "name": "_disputeID",
          "type": "uint256"
        },
        {
          "name": "_voteIDs",
          "type": "uint256[]"
        },
        {
          "name": "_commit",
          "type": "bytes32"
        }
      ],
      "name": "castCommit",
      "outputs": [],
      "payable": false,
      "stateMutability": "nonpayable",
      "type": "function"
    },
    {
      "constant": true,
      "inputs": [],
      "name": "RN",
      "outputs": [
        {
          "name": "",
          "type": "uint256"
        }
      ],
      "payable": false,
      "stateMutability": "view",
      "type": "function"
    },
    {
      "constant": true,
      "inputs": [],
      "name": "RNGenerator",
      "outputs": [
        {
          "name": "",
          "type": "address"
        }
      ],
      "payable": false,
      "stateMutability": "view",
      "type": "function"
    },
    {
      "constant": false,
      "inputs": [
        {
          "name": "_destination",
          "type": "address"
        },
        {
          "name": "_amount",
          "type": "uint256"
        },
        {
          "name": "_data",
          "type": "bytes"
        }
      ],
      "name": "executeGovernorProposal",
      "outputs": [],
      "payable": false,
      "stateMutability": "nonpayable",
      "type": "function"
    },
    {
      "constant": false,
      "inputs": [
        {
          "name": "_minStakingTime",
          "type": "uint256"
        }
      ],
      "name": "changeMinStakingTime",
      "outputs": [],
      "payable": false,
      "stateMutability": "nonpayable",
      "type": "function"
    },
    {
      "constant": true,
      "inputs": [],
      "name": "NON_PAYABLE_AMOUNT",
      "outputs": [
        {
          "name": "",
          "type": "uint256"
        }
      ],
      "payable": false,
      "stateMutability": "view",
      "type": "function"
    },
    {
      "constant": false,
      "inputs": [
        {
          "name": "_subcourtID",
          "type": "uint96"
        },
        {
          "name": "_stake",
          "type": "uint128"
        }
      ],
      "name": "setStake",
      "outputs": [],
      "payable": false,
      "stateMutability": "nonpayable",
      "type": "function"
    },
    {
      "constant": false,
      "inputs": [
        {
          "name": "_disputeID",
          "type": "uint256"
        }
      ],
      "name": "executeRuling",
      "outputs": [],
      "payable": false,
      "stateMutability": "nonpayable",
      "type": "function"
    },
    {
      "constant": true,
      "inputs": [
        {
          "name": "_disputeID",
          "type": "uint256"
        },
        {
          "name": "_appeal",
          "type": "uint256"
        },
        {
          "name": "_voteID",
          "type": "uint256"
        }
      ],
      "name": "getVote",
      "outputs": [
        {
          "name": "account",
          "type": "address"
        },
        {
          "name": "commit",
          "type": "bytes32"
        },
        {
          "name": "choice",
          "type": "uint256"
        },
        {
          "name": "voted",
          "type": "bool"
        }
      ],
      "payable": false,
      "stateMutability": "view",
      "type": "function"
    },
    {
      "constant": false,
      "inputs": [
        {
          "name": "_RNGenerator",
          "type": "address"
        }
      ],
      "name": "changeRNGenerator",
      "outputs": [],
      "payable": false,
      "stateMutability": "nonpayable",
      "type": "function"
    },
    {
      "constant": false,
      "inputs": [
        {
          "name": "_iterations",
          "type": "uint256"
        }
      ],
      "name": "executeDelayedSetStakes",
      "outputs": [],
      "payable": false,
      "stateMutability": "nonpayable",
      "type": "function"
    },
    {
      "constant": true,
      "inputs": [
        {
          "name": "_account",
          "type": "address"
        },
        {
          "name": "_subcourtID",
          "type": "uint96"
        }
      ],
      "name": "stakeOf",
      "outputs": [
        {
          "name": "stake",
          "type": "uint256"
        }
      ],
      "payable": false,
      "stateMutability": "view",
      "type": "function"
    },
    {
      "constant": false,
      "inputs": [
        {
          "name": "_subcourtID",
          "type": "uint96"
        },
        {
          "name": "_jurorsForCourtJump",
          "type": "uint256"
        }
      ],
      "name": "changeSubcourtJurorsForJump",
      "outputs": [],
      "payable": false,
      "stateMutability": "nonpayable",
      "type": "function"
    },
    {
      "constant": true,
      "inputs": [
        {
          "name": "_disputeID",
          "type": "uint256"
        }
      ],
      "name": "appealPeriod",
      "outputs": [
        {
          "name": "start",
          "type": "uint256"
        },
        {
          "name": "end",
          "type": "uint256"
        }
      ],
      "payable": false,
      "stateMutability": "view",
      "type": "function"
    },
    {
      "constant": true,
      "inputs": [],
      "name": "phase",
      "outputs": [
        {
          "name": "",
          "type": "uint8"
        }
      ],
      "payable": false,
      "stateMutability": "view",
      "type": "function"
    },
    {
      "constant": true,
      "inputs": [],
      "name": "MAX_STAKE_PATHS",
      "outputs": [
        {
          "name": "",
          "type": "uint256"
        }
      ],
      "payable": false,
      "stateMutability": "view",
      "type": "function"
    },
    {
      "constant": true,
      "inputs": [
        {
          "name": "",
          "type": "uint256"
        }
      ],
      "name": "delayedSetStakes",
      "outputs": [
        {
          "name": "account",
          "type": "address"
        },
        {
          "name": "subcourtID",
          "type": "uint96"
        },
        {
          "name": "stake",
          "type": "uint128"
        }
      ],
      "payable": false,
      "stateMutability": "view",
      "type": "function"
    },
    {
      "constant": true,
      "inputs": [],
      "name": "lastPhaseChange",
      "outputs": [
        {
          "name": "",
          "type": "uint256"
        }
      ],
      "payable": false,
      "stateMutability": "view",
      "type": "function"
    },
    {
      "constant": true,
      "inputs": [],
      "name": "minStakingTime",
      "outputs": [
        {
          "name": "",
          "type": "uint256"
        }
      ],
      "payable": false,
      "stateMutability": "view",
      "type": "function"
    },
    {
      "constant": true,
      "inputs": [],
      "name": "nextDelayedSetStake",
      "outputs": [
        {
          "name": "",
          "type": "uint256"
        }
      ],
      "payable": false,
      "stateMutability": "view",
      "type": "function"
    },
    {
      "constant": false,
      "inputs": [
        {
          "name": "_numberOfChoices",
          "type": "uint256"
        },
        {
          "name": "_extraData",
          "type": "bytes"
        }
      ],
      "name": "createDispute",
      "outputs": [
        {
          "name": "disputeID",
          "type": "uint256"
        }
      ],
      "payable": true,
      "stateMutability": "payable",
      "type": "function"
    },
    {
      "constant": false,
      "inputs": [
        {
          "name": "_disputeID",
          "type": "uint256"
        },
        {
          "name": "_iterations",
          "type": "uint256"
        }
      ],
      "name": "drawJurors",
      "outputs": [],
      "payable": false,
      "stateMutability": "nonpayable",
      "type": "function"
    },
    {
      "constant": false,
      "inputs": [
        {
          "name": "_parent",
          "type": "uint96"
        },
        {
          "name": "_hiddenVotes",
          "type": "bool"
        },
        {
          "name": "_minStake",
          "type": "uint256"
        },
        {
          "name": "_alpha",
          "type": "uint256"
        },
        {
          "name": "_feeForJuror",
          "type": "uint256"
        },
        {
          "name": "_jurorsForCourtJump",
          "type": "uint256"
        },
        {
          "name": "_timesPerPeriod",
          "type": "uint256[4]"
        },
        {
          "name": "_sortitionSumTreeK",
          "type": "uint256"
        }
      ],
      "name": "createSubcourt",
      "outputs": [],
      "payable": false,
      "stateMutability": "nonpayable",
      "type": "function"
    },
    {
      "constant": true,
      "inputs": [
        {
          "name": "_account",
          "type": "address"
        }
      ],
      "name": "getJuror",
      "outputs": [
        {
          "name": "subcourtIDs",
          "type": "uint96[]"
        }
      ],
      "payable": false,
      "stateMutability": "view",
      "type": "function"
    },
    {
      "constant": false,
      "inputs": [
        {
          "name": "_owner",
          "type": "address"
        },
        {
          "name": "_spender",
          "type": "address"
        },
        {
          "name": "_amount",
          "type": "uint256"
        }
      ],
      "name": "onApprove",
      "outputs": [
        {
          "name": "allowed",
          "type": "bool"
        }
      ],
      "payable": false,
      "stateMutability": "nonpayable",
      "type": "function"
    },
    {
      "constant": true,
      "inputs": [
        {
          "name": "",
          "type": "address"
        }
      ],
      "name": "jurors",
      "outputs": [
        {
          "name": "stakedTokens",
          "type": "uint256"
        },
        {
          "name": "lockedTokens",
          "type": "uint256"
        }
      ],
      "payable": false,
      "stateMutability": "view",
      "type": "function"
    },
    {
      "constant": false,
      "inputs": [
        {
          "name": "_maxDrawingTime",
          "type": "uint256"
        }
      ],
      "name": "changeMaxDrawingTime",
      "outputs": [],
      "payable": false,
      "stateMutability": "nonpayable",
      "type": "function"
    },
    {
      "constant": true,
      "inputs": [
        {
          "name": "_disputeID",
          "type": "uint256"
        }
      ],
      "name": "getDispute",
      "outputs": [
        {
          "name": "votesLengths",
          "type": "uint256[]"
        },
        {
          "name": "tokensAtStakePerJuror",
          "type": "uint256[]"
        },
        {
          "name": "totalFeesForJurors",
          "type": "uint256[]"
        },
        {
          "name": "votesInEachRound",
          "type": "uint256[]"
        },
        {
          "name": "repartitionsInEachRound",
          "type": "uint256[]"
        },
        {
          "name": "penaltiesInEachRound",
          "type": "uint256[]"
        }
      ],
      "payable": false,
      "stateMutability": "view",
      "type": "function"
    },
    {
      "constant": true,
      "inputs": [
        {
          "name": "_disputeID",
          "type": "uint256"
        },
        {
          "name": "_appeal",
          "type": "uint256"
        }
      ],
      "name": "getVoteCounter",
      "outputs": [
        {
          "name": "winningChoice",
          "type": "uint256"
        },
        {
          "name": "counts",
          "type": "uint256[]"
        },
        {
          "name": "tied",
          "type": "bool"
        }
      ],
      "payable": false,
      "stateMutability": "view",
      "type": "function"
    },
    {
      "constant": false,
      "inputs": [
        {
          "name": "_governor",
          "type": "address"
        }
      ],
      "name": "changeGovernor",
      "outputs": [],
      "payable": false,
      "stateMutability": "nonpayable",
      "type": "function"
    },
    {
      "constant": true,
      "inputs": [],
      "name": "MIN_JURORS",
      "outputs": [
        {
          "name": "",
          "type": "uint256"
        }
      ],
      "payable": false,
      "stateMutability": "view",
      "type": "function"
    },
    {
      "constant": true,
      "inputs": [
        {
          "name": "_disputeID",
          "type": "uint256"
        },
        {
          "name": "_extraData",
          "type": "bytes"
        }
      ],
      "name": "appealCost",
      "outputs": [
        {
          "name": "cost",
          "type": "uint256"
        }
      ],
      "payable": false,
      "stateMutability": "view",
      "type": "function"
    },
    {
      "constant": false,
      "inputs": [
        {
          "name": "_owner",
          "type": "address"
        }
      ],
      "name": "proxyPayment",
      "outputs": [
        {
          "name": "allowed",
          "type": "bool"
        }
      ],
      "payable": true,
      "stateMutability": "payable",
      "type": "function"
    },
    {
      "constant": true,
      "inputs": [],
      "name": "lockInsolventTransfers",
      "outputs": [
        {
          "name": "",
          "type": "bool"
        }
      ],
      "payable": false,
      "stateMutability": "view",
      "type": "function"
    },
    {
      "constant": true,
      "inputs": [
        {
          "name": "_extraData",
          "type": "bytes"
        }
      ],
      "name": "arbitrationCost",
      "outputs": [
        {
          "name": "cost",
          "type": "uint256"
        }
      ],
      "payable": false,
      "stateMutability": "view",
      "type": "function"
    },
    {
      "constant": true,
      "inputs": [],
      "name": "pinakion",
      "outputs": [
        {
          "name": "",
          "type": "address"
        }
      ],
      "payable": false,
      "stateMutability": "view",
      "type": "function"
    },
    {
      "inputs": [
        {
          "name": "_governor",
          "type": "address"
        },
        {
          "name": "_pinakion",
          "type": "address"
        },
        {
          "name": "_RNGenerator",
          "type": "address"
        },
        {
          "name": "_minStakingTime",
          "type": "uint256"
        },
        {
          "name": "_maxDrawingTime",
          "type": "uint256"
        },
        {
          "name": "_hiddenVotes",
          "type": "bool"
        },
        {
          "name": "_minStake",
          "type": "uint256"
        },
        {
          "name": "_alpha",
          "type": "uint256"
        },
        {
          "name": "_feeForJuror",
          "type": "uint256"
        },
        {
          "name": "_jurorsForCourtJump",
          "type": "uint256"
        },
        {
          "name": "_timesPerPeriod",
          "type": "uint256[4]"
        },
        {
          "name": "_sortitionSumTreeK",
          "type": "uint256"
        }
      ],
      "payable": false,
      "stateMutability": "nonpayable",
      "type": "constructor"
    },
    {
      "anonymous": false,
      "inputs": [
        {
          "indexed": false,
          "name": "_phase",
          "type": "uint8"
        }
      ],
      "name": "NewPhase",
      "type": "event"
    },
    {
      "anonymous": false,
      "inputs": [
        {
          "indexed": true,
          "name": "_disputeID",
          "type": "uint256"
        },
        {
          "indexed": false,
          "name": "_period",
          "type": "uint8"
        }
      ],
      "name": "NewPeriod",
      "type": "event"
    },
    {
      "anonymous": false,
      "inputs": [
        {
          "indexed": true,
          "name": "_address",
          "type": "address"
        },
        {
          "indexed": false,
          "name": "_subcourtID",
          "type": "uint256"
        },
        {
          "indexed": false,
          "name": "_stake",
          "type": "uint128"
        },
        {
          "indexed": false,
          "name": "_newTotalStake",
          "type": "uint256"
        }
      ],
      "name": "StakeSet",
      "type": "event"
    },
    {
      "anonymous": false,
      "inputs": [
        {
          "indexed": true,
          "name": "_address",
          "type": "address"
        },
        {
          "indexed": true,
          "name": "_disputeID",
          "type": "uint256"
        },
        {
          "indexed": false,
          "name": "_appeal",
          "type": "uint256"
        },
        {
          "indexed": false,
          "name": "_voteID",
          "type": "uint256"
        }
      ],
      "name": "Draw",
      "type": "event"
    },
    {
      "anonymous": false,
      "inputs": [
        {
          "indexed": true,
          "name": "_address",
          "type": "address"
        },
        {
          "indexed": true,
          "name": "_disputeID",
          "type": "uint256"
        },
        {
          "indexed": false,
          "name": "_tokenAmount",
          "type": "int256"
        },
        {
          "indexed": false,
          "name": "_ETHAmount",
          "type": "int256"
        }
      ],
      "name": "TokenAndETHShift",
      "type": "event"
    },
    {
      "anonymous": false,
      "inputs": [
        {
          "indexed": true,
          "name": "_disputeID",
          "type": "uint256"
        },
        {
          "indexed": true,
          "name": "_arbitrable",
          "type": "address"
        }
      ],
      "name": "DisputeCreation",
      "type": "event"
    },
    {
      "anonymous": false,
      "inputs": [
        {
          "indexed": true,
          "name": "_disputeID",
          "type": "uint256"
        },
        {
          "indexed": true,
          "name": "_arbitrable",
          "type": "address"
        }
      ],
      "name": "AppealPossible",
      "type": "event"
    },
    {
      "anonymous": false,
      "inputs": [
        {
          "indexed": true,
          "name": "_disputeID",
          "type": "uint256"
        },
        {
          "indexed": true,
          "name": "_arbitrable",
          "type": "address"
        }
      ],
      "name": "AppealDecision",
      "type": "event"
    }
  ],
  "transactionHash": "0x3b6d1c6d9ce0eef7ce02a4f6b4efb6eb6835dd0ac9be43cfdecb8ab0753056c3",
  "args": [
    "0x7c1119221eaD0E2749AD58E7F9669df5896363B5",
    "0xA3B02bA6E10F55fb177637917B1b472da0110CcC",
    "0xCd444af85127392cB84b8583a82e6aE6230Ec0b9",
    60,
    600,
    false,
    500,
    10000,
    "100000000000000000",
    511,
    [
      30,
      600,
      600,
      600
    ],
    4
  ],
  "numDeployments": 1,
  "solcInputHash": "d1e0706dec2c12921cdd74a294ddc93f",
  "bytecode": "0x60806040526009805460ff19166001908117909155600d553480156200002457600080fd5b506040516101e08062005da583398101806040528101908080519060200190929190805190602001909291908051906020019092919080519060200190929190805190602001909291908051906020019092919080519060200190929190805190602001909291908051906020019092919080519060200190929190919082608001805190602001909291905050508b6000806101000a815481600160a060020a030219169083600160a060020a031602179055508a600160006101000a815481600160a060020a030219169083600160a060020a0316021790555089600260006101000a815481600160a060020a030219169083600160a060020a03160217905550886007819055508760088190555042600381905550600a6101006040519081016040528060006001606060020a03168152602001600060405190808252806020026020018201604052801562000187578160200160208202803883390190505b508152891515602080830191909152604082018a9052606082018990526080820188905260a0820187905260c0909101859052825460018082018086556000958652948390208451600b9093020180546001606060020a0319166001606060020a0390931692909217825583830151805192936200020c93928501929101906200030e565b50604082015160028201805460ff191691151591909117905560608201516003820155608082015160048083019190915560a0830151600583015560c0830151600683015560e083015162000267916007840191906200035e565b5050604080517f9075789e000000000000000000000000000000000000000000000000000000008152600b60048201526000602482018190526044820186905291517317aA5CDbe970fB8C0FdfD9090F2883fF70c83DD89450639075789e935060648083019392829003018186803b158015620002e357600080fd5b505af4158015620002f8573d6000803e3d6000fd5b50505050505050505050505050505050620003ae565b8280548282559060005260206000209081019282156200034c579160200282015b828111156200034c5782518255916020019190600101906200032f565b506200035a9291506200038e565b5090565b82600481019282156200034c57916020028201828111156200034c5782518255916020019190600101906200032f565b620003ab91905b808211156200035a576000815560010162000395565b90565b6159e780620003be6000396000f3006080604052600436106102995763ffffffff60e060020a600035041662f5822c811461029e578063023d44df146102c157806303432744146102e85780630b274f2e146102fd5780630c340a24146103125780630d44cf791461034357806310f169e814610358578063115d5376146103945780631b92bbbe146103ac5780631c3db16d146103c15780631f5a0dd2146103d95780632d29a47b1461042e5780632ea7b4d01461044c5780633850f804146104615780633e1d09be1461048b57806340026c87146104af57806349912f881461054d5780634a3931491461059e578063564a565d146105dc578063572603641461066057806359354c77146106835780635bc24dd3146106a75780635c92e2f6146106cb5780635e4a627d146106f25780636a4f8f3914610707578063751accd01461071c578063823cfd701461074d578063840bc19c1461076557806385c855f31461077a5780638bb04875146107a75780638ce7ff4a146107bf57806396d92a721461080f5780639929057b14610830578063a2473cc114610848578063a57366e714610875578063afe15cfb14610899578063b1c9fe6e146108ca578063b4a61608146108df578063b78a80ff146108f4578063b888adfa14610945578063c057eca71461095a578063c108f3b41461096f578063c13517e114610984578063cbd88663146109d5578063ce9e7730146109f0578063d4155d1f14610a28578063da682aeb14610a99578063dca5f6b014610ac3578063dd5e5cb514610ae4578063e3a96cbd14610afc578063e3b0073e14610cc1578063e4c0aaf414610d42578063eaff425a14610d63578063f23f16e614610d78578063f48c305414610dd6578063f66d685a14610dea578063f7434ea914610dff578063fbf405b014610e58575b600080fd5b3480156102aa57600080fd5b506102bf600160a060020a0360043516610e6d565b005b3480156102cd57600080fd5b506102d6610ea6565b60408051918252519081900360200190f35b3480156102f457600080fd5b506102d6610eac565b34801561030957600080fd5b506102bf610eb2565b34801561031e57600080fd5b506103276112da565b60408051600160a060020a039092168252519081900360200190f35b34801561034f57600080fd5b506102d66112e9565b34801561036457600080fd5b506103706004356112ef565b6040518082600281111561038057fe5b60ff16815260200191505060405180910390f35b3480156103a057600080fd5b506102bf600435611366565b3480156103b857600080fd5b506102d6611abb565b3480156103cd57600080fd5b506102d6600435611ac1565b3480156103e557600080fd5b506103f1600435611b4b565b604080516001606060020a0390971687529415156020870152858501939093526060850191909152608084015260a0830152519081900360c00190f35b34801561043a57600080fd5b506102bf600435602435604435611b9d565b34801561045857600080fd5b506102d661272a565b34801561046d57600080fd5b506102bf600480359060248035908101910135604435606435612730565b34801561049757600080fd5b506102bf6001606060020a0360043516602435612ca7565b3480156104bb57600080fd5b506104d06001606060020a0360043516612ea8565b604051806020810183608080838360005b838110156104f95781810151838201526020016104e1565b50505050905001828103825284818151815260200191508051906020019060200280838360005b83811015610538578181015183820152602001610520565b50505050905001935050505060405180910390f35b60408051602060046024803582810135601f81018590048502860185019096528585526102bf958335953695604494919390910191908190840183828082843750949750612f6a9650505050505050565b3480156105aa57600080fd5b506105c8600160a060020a03600435811690602435166044356133a5565b604080519115158252519081900360200190f35b3480156105e857600080fd5b506105f4600435613499565b604080516001606060020a038a168152600160a060020a03891660208201529081018790526060810186600481111561062957fe5b60ff168152602001858152602001848152602001838152602001821515151581526020019850505050505050505060405180910390f35b34801561066c57600080fd5b506102bf6001606060020a03600435166024613507565b34801561068f57600080fd5b506102bf6001606060020a036004351660243561355b565b3480156106b357600080fd5b506102bf6001606060020a03600435166024356135a4565b3480156106d757600080fd5b506102bf6004803590602480359081019101356044356135ed565b3480156106fe57600080fd5b506102d661383b565b34801561071357600080fd5b50610327613841565b34801561072857600080fd5b506102bf60048035600160a060020a0316906024803591604435918201910135613850565b34801561075957600080fd5b506102bf6004356138a9565b34801561077157600080fd5b506102d66138c5565b34801561078657600080fd5b506102bf6001606060020a03600435166001608060020a03602435166138d0565b3480156107b357600080fd5b506102bf6004356138ea565b3480156107cb57600080fd5b506107dd600435602435604435613aa9565b60408051600160a060020a03909516855260208501939093528383019190915215156060830152519081900360800190f35b34801561081b57600080fd5b506102bf600160a060020a0360043516613b36565b34801561083c57600080fd5b506102bf600435613bfc565b34801561085457600080fd5b506102d6600160a060020a03600435166001606060020a0360243516613cf2565b34801561088157600080fd5b506102bf6001606060020a0360043516602435613d9f565b3480156108a557600080fd5b506108b1600435613de8565b6040805192835260208301919091528051918290030190f35b3480156108d657600080fd5b50610370613e7c565b3480156108eb57600080fd5b506102d6613e8c565b34801561090057600080fd5b5061090c600435613e91565b60408051600160a060020a0390941684526001606060020a0390921660208401526001608060020a031682820152519081900360600190f35b34801561095157600080fd5b506102d6613ecf565b34801561096657600080fd5b506102d6613ed5565b34801561097b57600080fd5b506102d6613edb565b60408051602060046024803582810135601f81018590048502860185019096528585526102d6958335953695604494919390910191908190840183828082843750949750613ee19650505050505050565b3480156109e157600080fd5b506102bf6004356024356141bd565b3480156109fc57600080fd5b506102bf6001606060020a0360043516602435151560443560643560843560a43560c4610144356144d5565b348015610a3457600080fd5b50610a49600160a060020a03600435166147d2565b60408051602080825283518183015283519192839290830191858101910280838360005b83811015610a85578181015183820152602001610a6d565b505050509050019250505060405180910390f35b348015610aa557600080fd5b506105c8600160a060020a0360043581169060243516604435614875565b348015610acf57600080fd5b506108b1600160a060020a036004351661487e565b348015610af057600080fd5b506102bf60043561489a565b348015610b0857600080fd5b50610b146004356148b6565b6040518080602001806020018060200180602001806020018060200187810387528d818151815260200191508051906020019060200280838360005b83811015610b68578181015183820152602001610b50565b5050505090500187810386528c818151815260200191508051906020019060200280838360005b83811015610ba7578181015183820152602001610b8f565b5050505090500187810385528b818151815260200191508051906020019060200280838360005b83811015610be6578181015183820152602001610bce565b5050505090500187810384528a818151815260200191508051906020019060200280838360005b83811015610c25578181015183820152602001610c0d565b50505050905001878103835289818151815260200191508051906020019060200280838360005b83811015610c64578181015183820152602001610c4c565b50505050905001878103825288818151815260200191508051906020019060200280838360005b83811015610ca3578181015183820152602001610c8b565b505050509050019c5050505050505050505050505060405180910390f35b348015610ccd57600080fd5b50610cdc600435602435614b16565b604051808481526020018060200183151515158152602001828103825284818151815260200191508051906020019060200280838360005b83811015610d2c578181015183820152602001610d14565b5050505090500194505050505060405180910390f35b348015610d4e57600080fd5b506102bf600160a060020a0360043516614bf2565b348015610d6f57600080fd5b506102d6614c2b565b348015610d8457600080fd5b5060408051602060046024803582810135601f81018590048502860185019096528585526102d6958335953695604494919390910191908190840183828082843750949750614c309650505050505050565b6105c8600160a060020a0360043516614d74565b348015610df657600080fd5b506105c8614d7a565b348015610e0b57600080fd5b506040805160206004803580820135601f81018490048402850184019095528484526102d6943694929360249392840191908190840183828082843750949750614d839650505050505050565b348015610e6457600080fd5b50610327614dca565b600054600160a060020a03163314610e8457600080fd5b60018054600160a060020a031916600160a060020a0392909216919091179055565b60055481565b60045481565b60006002805460a060020a900460ff1690811115610ecc57fe5b141561106a5760075460035442031015610f56576040805160e560020a62461bcd02815260206004820152602c60248201527f546865206d696e696d756d207374616b696e672074696d6520686173206e6f7460448201527f20706173736564207965742e0000000000000000000000000000000000000000606482015290519081900360840190fd5b600454600010610fd6576040805160e560020a62461bcd02815260206004820152602760248201527f546865726520617265206e6f2064697370757465732074686174206e6565642060448201527f6a75726f72732e00000000000000000000000000000000000000000000000000606482015290519081900360840190fd5b6001430160058190556002546040805160e560020a6303dce1a7028152600481019390935251600160a060020a0390911691637b9c34e091602480830192600092919082900301818387803b15801561102e57600080fd5b505af1158015611042573d6000803e3d6000fd5b5050600280546001935090915060a060020a60ff02191660a060020a835b021790555061127d565b60016002805460a060020a900460ff169081111561108457fe5b141561119657600254600554604080517f1c73601e000000000000000000000000000000000000000000000000000000008152600481019290925251600160a060020a0390921691631c73601e916024808201926020929091908290030181600087803b1580156110f457600080fd5b505af1158015611108573d6000803e3d6000fd5b505050506040513d602081101561111e57600080fd5b50516006819055151561117b576040805160e560020a62461bcd02815260206004820152601f60248201527f52616e646f6d206e756d626572206973206e6f74207265616479207965742e00604482015290519081900360640190fd5b60028054819060a060020a60ff02191660a060020a82611060565b600280805460a060020a900460ff16908111156111af57fe5b141561127d5760045415806111ca5750600854600354420310155b151561126c576040805160e560020a62461bcd02815260206004820152605860248201527f546865726520617265207374696c6c20646973707574657320776974686f757460448201527f206a75726f727320616e6420746865206d6178696d756d2064726177696e672060648201527f74696d6520686173206e6f7420706173736564207965742e0000000000000000608482015290519081900360a40190fd5b6002805460a060020a60ff02191690555b426003819055507f31f72b44f546d9e7eaec13f65636997665e15f134a81c82924f568f5c0d07b93600260149054906101000a900460ff16604051808260028111156112c557fe5b60ff16815260200191505060405180910390a1565b600054600160a060020a031681565b600e5481565b600080600f8381548110151561130157fe5b60009182526020909120600e9091020190506003600282015460ff16600481111561132857fe5b10156113375760009150611360565b6004600282015460ff16600481111561134c57fe5b101561135b5760019150611360565b600291505b50919050565b6000600f8281548110151561137757fe5b600091825260208220600e909102019150600282015460ff16600481111561139b57fe5b14156115b15760048101546001108061140d57508054600a805490916001606060020a03169081106113c957fe5b90600052602060002090600b02016007018160020160009054906101000a900460ff1660048111156113f757fe5b6004811061140157fe5b01548160030154420310155b15156114b0576040805160e560020a62461bcd028152602060048201526044602482018190527f5468652065766964656e636520706572696f642074696d6520686173206e6f74908201527f207061737365642079657420616e64206974206973206e6f7420616e2061707060648201527f65616c2e00000000000000000000000000000000000000000000000000000000608482015290519081900360a40190fd5b60048101805460001981019081106114c457fe5b600091825260209091200154600882015414611550576040805160e560020a62461bcd02815260206004820152602960248201527f546865206469737075746520686173206e6f742066696e69736865642064726160448201527f77696e67207965742e0000000000000000000000000000000000000000000000606482015290519081900360840190fd5b8054600a805490916001606060020a031690811061156a57fe5b600091825260209091206002600b90920201015460ff1661158c57600261158f565b60015b60028201805460ff191660018360048111156115a757fe5b0217905550611a5f565b6001600282015460ff1660048111156115c657fe5b141561170b578054600a805490916001606060020a03169081106115e657fe5b90600052602060002090600b02016007018160020160009054906101000a900460ff16600481111561161457fe5b6004811061161e57fe5b0154816003015442031015806116565750600481018054600019810190811061164357fe5b6000918252602090912001546009820154145b15156116f8576040805160e560020a62461bcd02815260206004820152605060248201527f54686520636f6d6d697420706572696f642074696d6520686173206e6f74207060448201527f61737365642079657420616e64206e6f74206576657279206a75726f7220686160648201527f7320636f6d6d6974746564207965742e00000000000000000000000000000000608482015290519081900360a40190fd5b6002818101805460ff19166001836115a7565b60028082015460ff16600481111561171f57fe5b14156118c6578054600a805490916001606060020a031690811061173f57fe5b90600052602060002090600b02016007018160020160009054906101000a900460ff16600481111561176d57fe5b6004811061177757fe5b0154816003015442031015806117cf5750600481018054600019810190811061179c57fe5b6000918252602090912001546004820154600a830180549091600019019081106117c257fe5b9060005260206000200154145b1515611871576040805160e560020a62461bcd02815260206004820152604a60248201527f54686520766f746520706572696f642074696d6520686173206e6f742070617360448201527f7365642079657420616e64206e6f74206576657279206a75726f72206861732060648201527f766f746564207965742e00000000000000000000000000000000000000000000608482015290519081900360a40190fd5b600281018054600360ff199091161790558054604051606060020a909104600160a060020a03169083907fa5d41b970d849372be1da1481ffd78d162bfe57a7aa2fe4e5fb73481fa5ac24f90600090a3611a5f565b6003600282015460ff1660048111156118db57fe5b14156119ce578054600a805490916001606060020a03169081106118fb57fe5b90600052602060002090600b02016007018160020160009054906101000a900460ff16600481111561192957fe5b6004811061193357fe5b01546003820154420310156119b8576040805160e560020a62461bcd02815260206004820152602a60248201527f5468652061707065616c20706572696f642074696d6520686173206e6f74207060448201527f6173736564207965742e00000000000000000000000000000000000000000000606482015290519081900360840190fd5b6002810180546004919060ff19166001836115a7565b6004600282015460ff1660048111156119e357fe5b1415611a5f576040805160e560020a62461bcd02815260206004820152602a60248201527f546865206469737075746520697320616c726561647920696e20746865206c6160448201527f737420706572696f642e00000000000000000000000000000000000000000000606482015290519081900360840190fd5b426003820155600281015460405183917f4e6f5cf43b95303e86aee81683df63992061723a829ee012db21dad388756b919160ff9091169080826004811115611aa457fe5b60ff16815260200191505060405180910390a25050565b60085481565b600080600f83815481101515611ad357fe5b60009182526020909120600e90910201600581018054919250906000198101908110611afb57fe5b600091825260209091206002600390920201015460ff16611b41576005810180546000198101908110611b2a57fe5b906000526020600020906003020160000154611b44565b60005b9392505050565b600a805482908110611b5957fe5b60009182526020909120600b90910201805460028201546003830154600484015460058501546006909501546001606060020a03909416955060ff90921693909286565b600080808080808080808b600480600f805484908110611bb957fe5b600091825260209091206002600e90920201015460ff166004811115611bdb57fe5b14611be557600080fd5b6009805460ff19169055600f80548f908110611bfd57fe5b90600052602060002090600e02019a508b8b600b018e815481101515611c1f57fe5b90600052602060002001540199508a600b018d815481101515611c3e57fe5b90600052602060002001548a10151515611c5757600080fd5b600c8b0180548e908110611c6757fe5b600091825260208220015460058d018054919b509199508998506000198101908110611c8f57fe5b600091825260209091206002600390920201015460ff16158015611d11575060058b0180548e908110611cbe57fe5b906000526020600020906003020160010160008c60050160018e6005018054905003815481101515611cec57fe5b9060005260206000209060030201600001548152602001908152602001600020546000145b15611d5d5760048b0180548e908110611d2657fe5b6000918252602090912001548a1115611d585760048b0180548e908110611d4957fe5b60009182526020909120015499505b611dfb565b60048b0180548e908110611d6d57fe5b600091825260209091200154600b8c0180548f908110611d8957fe5b90600052602060002001541015611da257600080611dac565b611dac8e8e614dd9565b60048d018054929a50909850908e908110611dc357fe5b6000918252602090912001546002028a1115611dfb5760048b0180548e908110611de957fe5b60009182526020909120015460020299505b600b8b0180548e908110611e0b57fe5b906000526020600020015495505b898610156126ac5760048b0180548e908110611e3157fe5b906000526020600020018b6004018e815481101515611e4c57fe5b60009182526020909120015487811515611e6257fe5b06815481101515611e6f57fe5b60009182526020909120600490910201600381015490955060ff168015611eef575060058b0180546000198101908110611ea557fe5b90600052602060002090600302016000015485600201541480611eef575060058b0180546000198101908110611ed757fe5b600091825260209091206002600390920201015460ff165b156120835760048b0180548e908110611f0457fe5b600091825260209091200154861061207e576001548554604080517fa9059cbb000000000000000000000000000000000000000000000000000000008152600160a060020a039283166004820152602481018c90529051919092169163a9059cbb9160448083019260209291908290030181600087803b158015611f8757600080fd5b505af1158015611f9b573d6000803e3d6000fd5b505050506040513d6020811015611fb157600080fd5b50508454604051600160a060020a039091169088156108fc029089906000818181858888f19350505050508d8560000160009054906101000a9004600160a060020a0316600160a060020a03167f24f45c2b08bbde8c837d70b67991ccb7660537cf749de21a940ae4858b681e198a8a604051808381526020018281526020019250505060405180910390a360068b0180548e90811061204d57fe5b60009182526020808320909101548754600160a060020a031683526010909152604090912060020180549190910390555b61246c565b60048b0180548e90811061209357fe5b60009182526020909120015486101561246c5760015485546040805160e060020a6370a08231028152600160a060020a039283166004820152905191909216916370a082319160248083019260209291908290030181600087803b1580156120fa57600080fd5b505af115801561210e573d6000803e3d6000fd5b505050506040513d602081101561212457600080fd5b505160068c0180548f90811061213657fe5b9060005260206000200154116121665760068b0180548e90811061215657fe5b90600052602060002001546121e7565b60015485546040805160e060020a6370a08231028152600160a060020a039283166004820152905191909216916370a082319160248083019260209291908290030181600087803b1580156121ba57600080fd5b505af11580156121ce573d6000803e3d6000fd5b505050506040513d60208110156121e457600080fd5b50515b6001548654604080517f23b872dd000000000000000000000000000000000000000000000000000000008152600160a060020a0392831660048201523060248201526044810185905290519397509116916323b872dd916064808201926020929091908290030181600087803b15801561226057600080fd5b505af1158015612274573d6000803e3d6000fd5b505050506040513d602081101561228a57600080fd5b8101908080519060200190929190505050508d8560000160009054906101000a9004600160a060020a0316600160a060020a03167f24f45c2b08bbde8c837d70b67991ccb7660537cf749de21a940ae4858b681e19866000036000604051808381526020018281526020019250505060405180910390a360068b018054998501998e90811061231557fe5b60009182526020808320909101548754600160a060020a039081168452601083526040808520600201805493909303909255885481168085528285206001908101549054845160e060020a6370a0823102815260048101939093529351909593909216936370a082319360248084019492938390030190829087803b15801561239d57600080fd5b505af11580156123b1573d6000803e3d6000fd5b505050506040513d60208110156123c757600080fd5b505110806123da5750600385015460ff16155b1561246c57600092505b8454600160a060020a031660009081526010602052604090205483101561246c578454600160a060020a0316600081815260106020526040902080546124609291908690811061243057fe5b9060005260206000209060029182820401919006600c029054906101000a90046001606060020a03166000614f7c565b506001909201916123e4565b60018b6004018e81548110151561247f57fe5b600091825260209091200154038614156126a157600a8b0180548e9081106124a357fe5b90600052602060002001546000148061254d575060058b01805460001981019081106124cb57fe5b600091825260209091206002600390920201015460ff1615801561254d575060058b0180548e9081106124fa57fe5b906000526020600020906003020160010160008c60050160018e600501805490500381548110151561252857fe5b9060005260206000209060030201600001548152602001908152602001600020546000145b15612668576000809054906101000a9004600160a060020a0316600160a060020a03166108fc8c6007018f81548110151561258457fe5b90600052602060002001549081150290604051600060405180830381858888f1935050505050600160009054906101000a9004600160a060020a0316600160a060020a031663a9059cbb6000809054906101000a9004600160a060020a03168b6040518363ffffffff1660e060020a0281526004018083600160a060020a0316600160a060020a0316815260200182815260200192505050602060405180830381600087803b15801561263657600080fd5b505af115801561264a573d6000803e3d6000fd5b505050506040513d602081101561266057600080fd5b506126a19050565b898660010110156126a157888b600c018e81548110151561268557fe5b60009182526020909120015561269b8e8e614dd9565b90985096505b600190950194611e19565b888b600c018e8154811015156126be57fe5b90600052602060002001541415156126ef57888b600c018e8154811015156126e257fe5b6000918252602090912001555b898b600b018e81548110151561270157fe5b60009182526020909120015550506009805460ff19166001179055505050505050505050505050565b61271081565b6000808087600280600f80548490811061274657fe5b600091825260209091206002600e90920201015460ff16600481111561276857fe5b1461277257600080fd5b600f80548b90811061278057fe5b600091825260208220600e909102019550881161279c57600080fd5b6001850154871115612844576040805160e560020a62461bcd02815260206004820152605160248201527f5468652063686f6963652068617320746f206265206c657373207468616e206f60448201527f7220657175616c20746f20746865206e756d626572206f662063686f6963657360648201527f20666f722074686520646973707574652e000000000000000000000000000000608482015290519081900360a40190fd5b600093505b87841015612b9957600485018054339190600019810190811061286857fe5b906000526020600020018a8a87818110151561288057fe5b9050602002013581548110151561289357fe5b6000918252602090912060049091020154600160a060020a031614612902576040805160e560020a62461bcd02815260206004820152601f60248201527f5468652063616c6c65722068617320746f206f776e2074686520766f74652e00604482015290519081900360640190fd5b8454600a805490916001606060020a031690811061291c57fe5b600091825260209091206002600b90920201015460ff1615806129aa575060408051888152602081018890528151908190039091019020600486018054600019810190811061296757fe5b906000526020600020018a8a87818110151561297f57fe5b9050602002013581548110151561299257fe5b90600052602060002090600402016001015460001916145b1515612a26576040805160e560020a62461bcd02815260206004820152602481018290527f54686520636f6d6d6974206d757374206d61746368207468652063686f69636560448201527f20696e20737562636f7572747320776974682068696464656e20766f7465732e606482015290519081900360840190fd5b6004850180546000198101908110612a3a57fe5b906000526020600020018989868181101515612a5257fe5b90506020020135815481101515612a6557fe5b600091825260209091206003600490920201015460ff1615612ad1576040805160e560020a62461bcd02815260206004820152601260248201527f566f746520616c726561647920636173742e0000000000000000000000000000604482015290519081900360640190fd5b6004850180548891906000198101908110612ae857fe5b906000526020600020018a8a878181101515612b0057fe5b90506020020135815481101515612b1357fe5b600091825260209091206004918202016002019190915585018054600191906000198101908110612b4057fe5b906000526020600020018a8a878181101515612b5857fe5b90506020020135815481101515612b6b57fe5b60009182526020909120600490910201600301805460ff191691151591909117905560019390930192612849565b6004850154600a860180548a9260001901908110612bb357fe5b6000918252602090912001805490910190556005850180546000198101908110612bd957fe5b600091825260208083208a845260016003909302019182019052604090912080548a0190558054909350871415612c2957600283015460ff1615612c245760028301805460ff191690555b612c9b565b82546000908152600184016020526040808220548983529120541415612c6b57600283015460ff161515612c245760028301805460ff19166001179055612c9b565b82546000908152600184016020526040808220548983529120541115612c9b5786835560028301805460ff191690555b50505050505050505050565b60008054600160a060020a03163314612cbf57600080fd5b6001606060020a0383161580612d26575081600a80856001606060020a0316815481101515612cea57fe5b60009182526020909120600b909102015481546001606060020a03909116908110612d1157fe5b90600052602060002090600b02016003015411155b1515612d3157600080fd5b5060005b600a80546001606060020a038516908110612d4c57fe5b90600052602060002090600b020160010180549050811015612e755781600a80856001606060020a0316815481101515612d8257fe5b90600052602060002090600b020160010183815481101515612da057fe5b9060005260206000200154815481101515612db757fe5b90600052602060002090600b02016003015410151515612e6d576040805160e560020a62461bcd02815260206004820152604960248201527f4120737562636f7572742063616e6e6f742062652074686520706172656e742060448201527f6f66206120737562636f75727420776974682061206c6f776572206d696e696d60648201527f756d207374616b652e0000000000000000000000000000000000000000000000608482015290519081900360a40190fd5b600101612d35565b81600a846001606060020a0316815481101515612e8e57fe5b90600052602060002090600b020160030181905550505050565b6060612eb2615643565b6000600a846001606060020a0316815481101515612ecc57fe5b90600052602060002090600b0201905080600101805480602002602001604051908101604052809291908181526020018280548015612f2a57602002820191906000526020600020905b815481526020019060010190808311612f16575b505060408051608081019182905294975060078601935060049250905082845b815481526020019060010190808311612f4a575050505050915050915091565b60008282612f788282614c30565b341015612ff5576040805160e560020a62461bcd02815260206004820152602560248201527f4e6f7420656e6f7567682045544820746f20636f7665722061707065616c206360448201527f6f7374732e000000000000000000000000000000000000000000000000000000606482015290519081900360840190fd5b84600380600f80548490811061300757fe5b600091825260209091206002600e90920201015460ff16600481111561302957fe5b1461303357600080fd5b600f80548890811061304157fe5b60009182526020909120600e909102018054909550606060020a9004600160a060020a031633146130e2576040805160e560020a62461bcd02815260206004820152602e60248201527f43616e206f6e6c792062652063616c6c6564206279207468652061726269747260448201527f61626c6520636f6e74726163742e000000000000000000000000000000000000606482015290519081900360840190fd5b8454600a805490916001606060020a03169081106130fc57fe5b600091825260209091206006600b909202010154600486018054600019810190811061312457fe5b60009182526020909120015410613180578454600a805490916001606060020a031690811061314f57fe5b60009182526020909120600b909102015485546bffffffffffffffffffffffff19166001606060020a039091161785555b60028501805460ff191690554260038601558454600a805490916001606060020a03169081106131ac57fe5b90600052602060002090600b020160050154348115156131c857fe5b60048701805492909104916131e08260018301615662565b815481106131ea57fe5b90600052602060002001816131ff9190615686565b5060058501805460019190613216828285016156b2565b8154811061322057fe5b60009182526020909120600390910201600201805460ff19169115159190911790558454600a8054600688019261271092916001606060020a0390911690811061326657fe5b600091825260209091206004600b9092020101548754600a805490916001606060020a031690811061329457fe5b90600052602060002090600b020160030154028115156132b057fe5b825460018181018555600094855260208086209490930493909101929092556007880180548084018255908452818420349101556008880183905560098801839055600a88018054808401825590845281842001839055600b88018054808401825590845281842001839055600c88018054808401825590845290832001829055600480549091019055604051339189917f9c9b64db9e130f48381bf697abf638e73117dbfbfd7a4484f2da3ba188f4187d9190a36040805160008152905188917f4e6f5cf43b95303e86aee81683df63992061723a829ee012db21dad388756b91919081900360200190a250505050505050565b600954600090819060ff161561348c576001546040805160e060020a6370a08231028152600160a060020a0388811660048301529151869392909216916370a08231916024808201926020929091908290030181600087803b15801561340a57600080fd5b505af115801561341e573d6000803e3d6000fd5b505050506040513d602081101561343457600080fd5b5051600160a060020a038716600090815260106020526040902060010154919003915081108061347e5750600160a060020a03851660009081526010602052604090206002015481105b1561348c5760009150613491565b600191505b509392505050565b600f8054829081106134a757fe5b60009182526020909120600e90910201805460018201546002830154600384015460088501546009860154600d909601546001606060020a0386169750606060020a909504600160a060020a031695939460ff9384169492939192911688565b600054600160a060020a0316331461351e57600080fd5b80600a836001606060020a031681548110151561353757fe5b90600052602060002090600b02016007019060046135569291906156de565b505050565b600054600160a060020a0316331461357257600080fd5b80600a836001606060020a031681548110151561358b57fe5b90600052602060002090600b0201600501819055505050565b600054600160a060020a031633146135bb57600080fd5b80600a836001606060020a03168154811015156135d457fe5b90600052602060002090600b0201600401819055505050565b60008085600180600f80548490811061360257fe5b600091825260209091206002600e90920201015460ff16600481111561362457fe5b1461362e57600080fd5b600f80548990811061363c57fe5b60009182526020909120600e90910201935084151561365a57600080fd5b600092505b8583101561382857600484018054339190600019810190811061367e57fe5b90600052602060002001888886818110151561369657fe5b905060200201358154811015156136a957fe5b6000918252602090912060049091020154600160a060020a031614613718576040805160e560020a62461bcd02815260206004820152601f60248201527f5468652063616c6c65722068617320746f206f776e2074686520766f74652e00604482015290519081900360640190fd5b60048401805460009190600019810190811061373057fe5b90600052602060002001888886818110151561374857fe5b9050602002013581548110151561375b57fe5b6000918252602090912060016004909202010154146137c4576040805160e560020a62461bcd02815260206004820152601c60248201527f416c726561647920636f6d6d6974746564207468697320766f74652e00000000604482015290519081900360640190fd5b60048401805486919060001981019081106137db57fe5b9060005260206000200188888681811015156137f357fe5b9050602002013581548110151561380657fe5b600091825260209091206001600490920201810191909155929092019161365f565b5050506009018054909201909155505050565b60065481565b600254600160a060020a031681565b600054600160a060020a0316331461386757600080fd5b83600160a060020a03168383836040518083838082843782019150509250505060006040518083038185875af19250505015156138a357600080fd5b50505050565b600054600160a060020a031633146138c057600080fd5b600755565b600160ff60020a0381565b6138db338383614f7c565b15156138e657600080fd5b5050565b60008082600480600f8054849081106138ff57fe5b600091825260209091206002600e90920201015460ff16600481111561392157fe5b1461392b57600080fd5b600f80548690811061393957fe5b60009182526020909120600e90910201600d81015490945060ff16156139a9576040805160e560020a62461bcd02815260206004820152601860248201527f52756c696e6720616c72656164792065786563757465642e0000000000000000604482015290519081900360640190fd5b600d8401805460ff1916600117905560058401805460001981019081106139cc57fe5b600091825260209091206002600390920201015460ff16613a125760058401805460001981019081106139fb57fe5b906000526020600020906003020160000154613a15565b60005b8454604080517f311a6c5600000000000000000000000000000000000000000000000000000000815260048101899052602481018490529051929550606060020a909104600160a060020a03169163311a6c569160448082019260009290919082900301818387803b158015613a8a57600080fd5b505af1158015613a9e573d6000803e3d6000fd5b505050505050505050565b6000806000806000600f88815481101515613ac057fe5b90600052602060002090600e020160040187815481101515613ade57fe5b9060005260206000200186815481101515613af557fe5b60009182526020909120600490910201805460018201546002830154600390930154600160a060020a039092169b909a5091985060ff169650945050505050565b600054600160a060020a03163314613b4d57600080fd5b60028054600160a060020a031916600160a060020a03831617905560016002805460a060020a900460ff1690811115613b8257fe5b1415613bf9576001430160058190556002546040805160e560020a6303dce1a7028152600481019390935251600160a060020a0390911691637b9c34e091602480830192600092919082900301818387803b158015613be057600080fd5b505af1158015613bf4573d6000803e3d6000fd5b505050505b50565b600080808080806002805460a060020a900460ff1690811115613c1b57fe5b14613c2557600080fd5b600e54600187600d54010311613c3b5785613c46565b600d54600e54036001015b600d549095508086019450841015613c5d57600080fd5b600d5492505b83831015613ce8576000838152600c6020526040902080546001820154919350613cb191600160a060020a0382169160a060020a90046001606060020a0316906001608060020a0316614f7c565b506000838152600c60205260408120908155600190810180546fffffffffffffffffffffffffffffffff1916905590920191613c63565b505050600d555050565b60007317aA5CDbe970fB8C0FdfD9090F2883fF70c83DD8637521ccb1600b6001606060020a038516613d24878761558a565b6040805160e060020a63ffffffff8716028152600481019490945260248401929092526044830152516064808301926020929190829003018186803b158015613d6c57600080fd5b505af4158015613d80573d6000803e3d6000fd5b505050506040513d6020811015613d9657600080fd5b50519392505050565b600054600160a060020a03163314613db657600080fd5b80600a836001606060020a0316815481101515613dcf57fe5b90600052602060002090600b0201600601819055505050565b6000806000600f84815481101515613dfc57fe5b60009182526020909120600e9091020190506003600282015460ff166004811115613e2357fe5b1415613e6d5760038101548154600a8054929550916001606060020a03909116908110613e4c57fe5b60009182526020909120600a600b9092020101546003820154019150613e76565b60009250600091505b50915091565b60025460a060020a900460ff1681565b600481565b600c6020526000908152604090208054600190910154600160a060020a0382169160a060020a90046001606060020a0316906001608060020a031683565b60035481565b60075481565b600d5481565b60008060008084613ef181614d83565b341015613f6e576040805160e560020a62461bcd02815260206004820152602a60248201527f4e6f7420656e6f7567682045544820746f20636f76657220617262697472617460448201527f696f6e20636f7374732e00000000000000000000000000000000000000000000606482015290519081900360840190fd5b613f77866155c9565b600f8054929650909450613f8e906001830161571c565b9450600f85815481101515613f9f57fe5b60009182526020909120600e9091020180546bffffffffffffffffffffffff19166001606060020a0386811691909117811633606060020a0217808355600183018a905560028301805460ff19169055426003840155600a805493955092911690811061400857fe5b90600052602060002090600b0201600501543481151561402457fe5b600484018054929091049161403c8260018301615662565b8154811061404657fe5b906000526020600020018161405b9190615686565b5060058201805460019190614072828285016156b2565b8154811061407c57fe5b60009182526020909120600390910201600201805460ff19169115159190911790558154600a8054600685019261271092916001606060020a039091169081106140c257fe5b600091825260209091206004600b9092020101548454600a805490916001606060020a03169081106140f057fe5b90600052602060002090600b0201600301540281151561410c57fe5b82546001818101855560009485526020808620949093049390910192909255600785018054808401825590845281842034910155600a85018054808401825590845281842001839055600b85018054808401825590845281842001839055600c85018054808401825590845290832001829055600480549091019055604051339187917f141dfc18aa6a56fc816f44f0e9e2f1ebc92b15ab167770e17db5b084c10ed9959190a35050505092915050565b6000808080806002806002805460a060020a900460ff16908111156141de57fe5b146141e857600080fd5b87600080600f8054849081106141fa57fe5b600091825260209091206002600e90920201015460ff16600481111561421c57fe5b1461422657600080fd5b600f80548b90811061423457fe5b90600052602060002090600e020197508888600801540196508760080154871015151561426057600080fd5b600488018054600019810190811061427457fe5b6000918252602090912001548711156142aa57600488018054600019810190811061429b57fe5b60009182526020909120015496505b876008015495505b868610156144c45787546006546040805191825260208083018e90528282018a905281519283900360600183207f88c1d467000000000000000000000000000000000000000000000000000000008452600b60048501526001606060020a03909416602484015260448301939093525161438e927317aA5CDbe970fB8C0FdfD9090F2883fF70c83DD8926388c1d4679260648083019392829003018186803b15801561435d57600080fd5b505af4158015614371573d6000803e3d6000fd5b505050506040513d602081101561438757600080fd5b5051615617565b60048a0180549297506001606060020a03919091169550869160001981019081106143b557fe5b90600052602060002001878154811015156143cc57fe5b600091825260209091206004909102018054600160a060020a031916600160a060020a0392909216919091179055600688018054600019810190811061440e57fe5b6000918252602080832090910154600160a060020a03881680845260108352604093849020600201805490920190915560048b01548351600019909101815291820189905282518d9391927f6119cf536152c11e0a9a6c22f3953ce4ecc93ee54fa72ffa326ffabded21509b92908290030190a360048801805460019190600019810190811061449a57fe5b600091825260209091200154038614156144b957600480546000190190555b6001909501946142b2565b505050505060089290920155505050565b60008054600160a060020a031633146144ed57600080fd5b86600a8a6001606060020a031681548110151561450657fe5b90600052602060002090600b020160030154111515156145bc576040805160e560020a62461bcd02815260206004820152604760248201527f4120737562636f7572742063616e6e6f742062652061206368696c64206f662060448201527f6120737562636f7572742077697468206120686967686572206d696e696d756d60648201527f207374616b652e00000000000000000000000000000000000000000000000000608482015290519081900360a40190fd5b60408051610100810182526001606060020a038b168152815160008152602080820184528201528915158183015260608101899052608080820189905260a0820188905260c082018790528251808201909352600192600a929160e083019190889060049083908390808284375050509190925250508154600180820180855560009485526020948590208451600b9094020180546bffffffffffffffffffffffff19166001606060020a03909416939093178355838501518051919561468893850192910190615748565b50604082015160028201805460ff191691151591909117905560608201516003820155608082015160048083019190915560a0830151600583015560c0830151600683015560e08301516146e191600784019190615783565b5050604080517f9075789e000000000000000000000000000000000000000000000000000000008152600b6004820152939092036001606060020a03811660248501526044840186905291519193507317aA5CDbe970fB8C0FdfD9090F2883fF70c83DD892639075789e9260648083019350600092829003018186803b15801561476a57600080fd5b505af415801561477e573d6000803e3d6000fd5b50505050600a896001606060020a031681548110151561479a57fe5b600091825260208083206001600b9093020182018054928301815583529091206001606060020a039092169101555050505050505050565b600160a060020a0381166000908152601060209081526040918290208054835181840281018401909452808452606093919283919083018282801561486857602002820191906000526020600020906000905b82829054906101000a90046001606060020a03166001606060020a0316815260200190600c0190602082600b010492830192600103820291508084116148255790505b5050505050915050919050565b50600192915050565b6010602052600090815260409020600181015460029091015482565b600054600160a060020a031633146148b157600080fd5b600855565b606080606080606080600080600f898154811015156148d157fe5b90600052602060002090600e020191508160040180549050604051908082528060200260200182016040528015614912578160200160208202803883390190505b509750600090505b6004820154811015614962576004820180548290811061493657fe5b600091825260209091200154885189908390811061495057fe5b6020908102909101015260010161491a565b816006018054806020026020016040519081016040528092919081815260200182805480156149b057602002820191906000526020600020905b81548152602001906001019080831161499c575b5050505050965081600701805480602002602001604051908101604052809291908181526020018280548015614a0557602002820191906000526020600020905b8154815260200190600101908083116149f1575b5050505050955081600a01805480602002602001604051908101604052809291908181526020018280548015614a5a57602002820191906000526020600020905b815481526020019060010190808311614a46575b5050505050945081600b01805480602002602001604051908101604052809291908181526020018280548015614aaf57602002820191906000526020600020905b815481526020019060010190808311614a9b575b5050505050935081600c01805480602002602001604051908101604052809291908181526020018280548015614b0457602002820191906000526020600020905b815481526020019060010190808311614af0575b50505050509250505091939550919395565b60006060600080600080600f88815481101515614b2f57fe5b90600052602060002090600e020192508260050187815481101515614b5057fe5b90600052602060002090600302019150816000015495508260010154600101604051908082528060200260200182016040528015614b98578160200160208202803883390190505b509450600090505b60018301548111614bdc5760008181526001830160205260409020548551869083908110614bca57fe5b60209081029091010152600101614ba0565b506002015493969295505060ff90921692509050565b600054600160a060020a03163314614c0957600080fd5b60008054600160a060020a031916600160a060020a0392909216919091179055565b600381565b6000806000600f85815481101515614c4457fe5b60009182526020909120600e90910201600481018054919350906000198101908110614c6c57fe5b6000918252602090912001548254600a8054929350916001606060020a03909116908110614c9657fe5b90600052602060002090600b02016006015481101515614d365781546001606060020a03161515614cd057600160ff60020a039250614d31565b8154600a8054600160028502019282916001606060020a03909116908110614cf457fe5b60009182526020909120600b909102015481546001606060020a03909116908110614d1b57fe5b90600052602060002090600b0201600501540292505b614d6c565b8154600a805460016002850201926001606060020a0316908110614d5657fe5b90600052602060002090600b0201600501540292505b505092915050565b50600090565b60095460ff1681565b6000806000614d91846155c9565b9150915080600a836001606060020a0316815481101515614dae57fe5b90600052602060002090600b0201600501540292505050919050565b600154600160a060020a031681565b600080600080600080600f88815481101515614df157fe5b60009182526020909120600e90910201600581018054919550906000198101908110614e1957fe5b600091825260209091206002600390920201015460ff1615614ec057600a8401805488908110614e4557fe5b906000526020600020015492506000831115614eb2578284600c0188815481101515614e6d57fe5b9060005260206000200154811515614e8157fe5b049550828460070188815481101515614e9657fe5b9060005260206000200154811515614eaa57fe5b049450614ebb565b60009550600094505b614f71565b6005840180546000198101908110614ed457fe5b90600052602060002090600302016000015491508360050187815481101515614ef957fe5b906000526020600020906003020160010160008381526020019081526020016000205490508084600c0188815481101515614f3057fe5b9060005260206000200154811515614f4457fe5b049550808460070188815481101515614f5957fe5b9060005260206000200154811515614f6d57fe5b0494505b505050509250929050565b600080600080600080600080600a805490508a6001606060020a0316101515614fa8576000975061557c565b60006002805460a060020a900460ff1690811115614fc257fe5b146150b2576060604051908101604052808c600160a060020a031681526020018b6001606060020a031681526020018a6001608060020a0316815250600c6000600e60008154600101919050819055815260200190815260200160002060008201518160000160006101000a815481600160a060020a030219169083600160a060020a0316021790555060208201518160000160146101000a8154816001606060020a0302191690836001606060020a0316021790555060408201518160010160006101000a8154816001608060020a0302191690836001608060020a031602179055509050506001975061557c565b6001608060020a03891615806150fa5750886001608060020a0316600a8b6001606060020a03168154811015156150e557fe5b90600052602060002090600b02016003015411155b1515615109576000975061557c565b600160a060020a038b166000908152601060205260409020965061512d8b8b61558a565b604080517f7521ccb1000000000000000000000000000000000000000000000000000000008152600b60048201526001606060020a038d1660248201526044810183905290519197507317aA5CDbe970fB8C0FdfD9090F2883fF70c83DD891637521ccb191606480820192602092909190829003018186803b1580156151b257600080fd5b505af41580156151c6573d6000803e3d6000fd5b505050506040513d60208110156151dc57600080fd5b505194506001608060020a03891615806151f65750600085115b80615202575086546004115b1515615211576000975061557c565b60018701548590036001608060020a038a16908101945015806152b357506001546040805160e060020a6370a08231028152600160a060020a038e811660048301529151879392909216916370a08231916024808201926020929091908290030181600087803b15801561528457600080fd5b505af1158015615298573d6000803e3d6000fd5b505050506040513d60208110156152ae57600080fd5b505110155b15156152c2576000975061557c565b600187018490556001608060020a03891615156153df57600092505b86548310156153da5786546001606060020a038b169088908590811061530057fe5b600091825260209091206002820401546001909116600c026101000a90046001606060020a031614156153cf5786548790600019810190811061533f57fe5b9060005260206000209060029182820401919006600c029054906101000a90046001606060020a0316876000018481548110151561537957fe5b9060005260206000209060029182820401919006600c026101000a8154816001606060020a0302191690836001606060020a03160217905550866000018054809190600190036153c991906157b0565b506153da565b6001909201916152de565b615421565b841515615421578654600180820189556000898152602090206002830401805491909216600c026101000a6001606060020a0381810219909216918d16021790555b50600090506001606060020a0389165b81151561551a57604080517f2e25c38a000000000000000000000000000000000000000000000000000000008152600b6004820152602481018390526001608060020a038b1660448201526064810188905290517317aA5CDbe970fB8C0FdfD9090F2883fF70c83DD891632e25c38a916084808301926000929190829003018186803b1580156154c057600080fd5b505af41580156154d4573d6000803e3d6000fd5b5050505080600014156154ea5760019150615515565b600a8054829081106154f857fe5b60009182526020909120600b90910201546001606060020a031690505b615431565b604080516001606060020a038c1681526001608060020a038b1660208201528082018690529051600160a060020a038d16917f8f753321c98641397daaca5e8abf8881fff1fd7a7bc229924a012e2cb61763d5919081900360600190a2600197505b505050505050509392505050565b600060405160005b60148110156155ad578481600c011a81830153600101615592565b5060145b6020811015613d965783811a818301536001016155b1565b6000806040835110151561560a57505060208101516040820151600a546001606060020a038316106155fa57600091505b801515615605575060035b615612565b506000905060035b915091565b60008060405160005b601481101561563b5784811a81600c84010153600101615620565b505193915050565b6080604051908101604052806004906020820280388339509192915050565b815481835581811115613556576000838152602090206135569181019083016157e4565b81548183558181111561355657600402816004028360005260206000209182019101613556919061580a565b815481835581811115613556576003028160030283600052602060002091820191016135569190615848565b826004810192821561570c579160200282015b8281111561570c5782358255916020019190600101906156f1565b5061571892915061586e565b5090565b81548183558181111561355657600e0281600e0283600052602060002091820191016135569190615888565b82805482825590600052602060002090810192821561570c579160200282015b8281111561570c578251825591602001919060010190615768565b826004810192821561570c579160200282018281111561570c578251825591602001919060010190615768565b815481835581811115613556576001016002900481600101600290048360005260206000209182019101613556919061586e565b61580791905b808211156157185760006157fe828261593d565b506001016157ea565b90565b61580791905b80821115615718578054600160a060020a0319168155600060018201819055600282015560038101805460ff19169055600401615810565b61580791905b80821115615718576000815560028101805460ff1916905560030161584e565b61580791905b808211156157185760008155600101615874565b61580791905b808211156157185760008082556001820181905560028201805460ff19169055600382018190556158c2600483018261595e565b6158d060058301600061597c565b6158de60068301600061599d565b6158ec60078301600061599d565b60088201600090556009820160009055600a8201600061590c919061599d565b61591a600b8301600061599d565b615928600c8301600061599d565b50600d8101805460ff19169055600e0161588e565b5080546000825560040290600052602060002090810190613bf9919061580a565b5080546000825590600052602060002090810190613bf991906157e4565b5080546000825560030290600052602060002090810190613bf99190615848565b5080546000825590600052602060002090810190613bf9919061586e5600a165627a7a72305820565c9e7dde850fb23a3c03d0a6d68e45520cc138ce32b70848f4de27548f31960029",
  "deployedBytecode": "0x6080604052600436106102995763ffffffff60e060020a600035041662f5822c811461029e578063023d44df146102c157806303432744146102e85780630b274f2e146102fd5780630c340a24146103125780630d44cf791461034357806310f169e814610358578063115d5376146103945780631b92bbbe146103ac5780631c3db16d146103c15780631f5a0dd2146103d95780632d29a47b1461042e5780632ea7b4d01461044c5780633850f804146104615780633e1d09be1461048b57806340026c87146104af57806349912f881461054d5780634a3931491461059e578063564a565d146105dc578063572603641461066057806359354c77146106835780635bc24dd3146106a75780635c92e2f6146106cb5780635e4a627d146106f25780636a4f8f3914610707578063751accd01461071c578063823cfd701461074d578063840bc19c1461076557806385c855f31461077a5780638bb04875146107a75780638ce7ff4a146107bf57806396d92a721461080f5780639929057b14610830578063a2473cc114610848578063a57366e714610875578063afe15cfb14610899578063b1c9fe6e146108ca578063b4a61608146108df578063b78a80ff146108f4578063b888adfa14610945578063c057eca71461095a578063c108f3b41461096f578063c13517e114610984578063cbd88663146109d5578063ce9e7730146109f0578063d4155d1f14610a28578063da682aeb14610a99578063dca5f6b014610ac3578063dd5e5cb514610ae4578063e3a96cbd14610afc578063e3b0073e14610cc1578063e4c0aaf414610d42578063eaff425a14610d63578063f23f16e614610d78578063f48c305414610dd6578063f66d685a14610dea578063f7434ea914610dff578063fbf405b014610e58575b600080fd5b3480156102aa57600080fd5b506102bf600160a060020a0360043516610e6d565b005b3480156102cd57600080fd5b506102d6610ea6565b60408051918252519081900360200190f35b3480156102f457600080fd5b506102d6610eac565b34801561030957600080fd5b506102bf610eb2565b34801561031e57600080fd5b506103276112da565b60408051600160a060020a039092168252519081900360200190f35b34801561034f57600080fd5b506102d66112e9565b34801561036457600080fd5b506103706004356112ef565b6040518082600281111561038057fe5b60ff16815260200191505060405180910390f35b3480156103a057600080fd5b506102bf600435611366565b3480156103b857600080fd5b506102d6611abb565b3480156103cd57600080fd5b506102d6600435611ac1565b3480156103e557600080fd5b506103f1600435611b4b565b604080516001606060020a0390971687529415156020870152858501939093526060850191909152608084015260a0830152519081900360c00190f35b34801561043a57600080fd5b506102bf600435602435604435611b9d565b34801561045857600080fd5b506102d661272a565b34801561046d57600080fd5b506102bf600480359060248035908101910135604435606435612730565b34801561049757600080fd5b506102bf6001606060020a0360043516602435612ca7565b3480156104bb57600080fd5b506104d06001606060020a0360043516612ea8565b604051806020810183608080838360005b838110156104f95781810151838201526020016104e1565b50505050905001828103825284818151815260200191508051906020019060200280838360005b83811015610538578181015183820152602001610520565b50505050905001935050505060405180910390f35b60408051602060046024803582810135601f81018590048502860185019096528585526102bf958335953695604494919390910191908190840183828082843750949750612f6a9650505050505050565b3480156105aa57600080fd5b506105c8600160a060020a03600435811690602435166044356133a5565b604080519115158252519081900360200190f35b3480156105e857600080fd5b506105f4600435613499565b604080516001606060020a038a168152600160a060020a03891660208201529081018790526060810186600481111561062957fe5b60ff168152602001858152602001848152602001838152602001821515151581526020019850505050505050505060405180910390f35b34801561066c57600080fd5b506102bf6001606060020a03600435166024613507565b34801561068f57600080fd5b506102bf6001606060020a036004351660243561355b565b3480156106b357600080fd5b506102bf6001606060020a03600435166024356135a4565b3480156106d757600080fd5b506102bf6004803590602480359081019101356044356135ed565b3480156106fe57600080fd5b506102d661383b565b34801561071357600080fd5b50610327613841565b34801561072857600080fd5b506102bf60048035600160a060020a0316906024803591604435918201910135613850565b34801561075957600080fd5b506102bf6004356138a9565b34801561077157600080fd5b506102d66138c5565b34801561078657600080fd5b506102bf6001606060020a03600435166001608060020a03602435166138d0565b3480156107b357600080fd5b506102bf6004356138ea565b3480156107cb57600080fd5b506107dd600435602435604435613aa9565b60408051600160a060020a03909516855260208501939093528383019190915215156060830152519081900360800190f35b34801561081b57600080fd5b506102bf600160a060020a0360043516613b36565b34801561083c57600080fd5b506102bf600435613bfc565b34801561085457600080fd5b506102d6600160a060020a03600435166001606060020a0360243516613cf2565b34801561088157600080fd5b506102bf6001606060020a0360043516602435613d9f565b3480156108a557600080fd5b506108b1600435613de8565b6040805192835260208301919091528051918290030190f35b3480156108d657600080fd5b50610370613e7c565b3480156108eb57600080fd5b506102d6613e8c565b34801561090057600080fd5b5061090c600435613e91565b60408051600160a060020a0390941684526001606060020a0390921660208401526001608060020a031682820152519081900360600190f35b34801561095157600080fd5b506102d6613ecf565b34801561096657600080fd5b506102d6613ed5565b34801561097b57600080fd5b506102d6613edb565b60408051602060046024803582810135601f81018590048502860185019096528585526102d6958335953695604494919390910191908190840183828082843750949750613ee19650505050505050565b3480156109e157600080fd5b506102bf6004356024356141bd565b3480156109fc57600080fd5b506102bf6001606060020a0360043516602435151560443560643560843560a43560c4610144356144d5565b348015610a3457600080fd5b50610a49600160a060020a03600435166147d2565b60408051602080825283518183015283519192839290830191858101910280838360005b83811015610a85578181015183820152602001610a6d565b505050509050019250505060405180910390f35b348015610aa557600080fd5b506105c8600160a060020a0360043581169060243516604435614875565b348015610acf57600080fd5b506108b1600160a060020a036004351661487e565b348015610af057600080fd5b506102bf60043561489a565b348015610b0857600080fd5b50610b146004356148b6565b6040518080602001806020018060200180602001806020018060200187810387528d818151815260200191508051906020019060200280838360005b83811015610b68578181015183820152602001610b50565b5050505090500187810386528c818151815260200191508051906020019060200280838360005b83811015610ba7578181015183820152602001610b8f565b5050505090500187810385528b818151815260200191508051906020019060200280838360005b83811015610be6578181015183820152602001610bce565b5050505090500187810384528a818151815260200191508051906020019060200280838360005b83811015610c25578181015183820152602001610c0d565b50505050905001878103835289818151815260200191508051906020019060200280838360005b83811015610c64578181015183820152602001610c4c565b50505050905001878103825288818151815260200191508051906020019060200280838360005b83811015610ca3578181015183820152602001610c8b565b505050509050019c5050505050505050505050505060405180910390f35b348015610ccd57600080fd5b50610cdc600435602435614b16565b604051808481526020018060200183151515158152602001828103825284818151815260200191508051906020019060200280838360005b83811015610d2c578181015183820152602001610d14565b5050505090500194505050505060405180910390f35b348015610d4e57600080fd5b506102bf600160a060020a0360043516614bf2565b348015610d6f57600080fd5b506102d6614c2b565b348015610d8457600080fd5b5060408051602060046024803582810135601f81018590048502860185019096528585526102d6958335953695604494919390910191908190840183828082843750949750614c309650505050505050565b6105c8600160a060020a0360043516614d74565b348015610df657600080fd5b506105c8614d7a565b348015610e0b57600080fd5b506040805160206004803580820135601f81018490048402850184019095528484526102d6943694929360249392840191908190840183828082843750949750614d839650505050505050565b348015610e6457600080fd5b50610327614dca565b600054600160a060020a03163314610e8457600080fd5b60018054600160a060020a031916600160a060020a0392909216919091179055565b60055481565b60045481565b60006002805460a060020a900460ff1690811115610ecc57fe5b141561106a5760075460035442031015610f56576040805160e560020a62461bcd02815260206004820152602c60248201527f546865206d696e696d756d207374616b696e672074696d6520686173206e6f7460448201527f20706173736564207965742e0000000000000000000000000000000000000000606482015290519081900360840190fd5b600454600010610fd6576040805160e560020a62461bcd02815260206004820152602760248201527f546865726520617265206e6f2064697370757465732074686174206e6565642060448201527f6a75726f72732e00000000000000000000000000000000000000000000000000606482015290519081900360840190fd5b6001430160058190556002546040805160e560020a6303dce1a7028152600481019390935251600160a060020a0390911691637b9c34e091602480830192600092919082900301818387803b15801561102e57600080fd5b505af1158015611042573d6000803e3d6000fd5b5050600280546001935090915060a060020a60ff02191660a060020a835b021790555061127d565b60016002805460a060020a900460ff169081111561108457fe5b141561119657600254600554604080517f1c73601e000000000000000000000000000000000000000000000000000000008152600481019290925251600160a060020a0390921691631c73601e916024808201926020929091908290030181600087803b1580156110f457600080fd5b505af1158015611108573d6000803e3d6000fd5b505050506040513d602081101561111e57600080fd5b50516006819055151561117b576040805160e560020a62461bcd02815260206004820152601f60248201527f52616e646f6d206e756d626572206973206e6f74207265616479207965742e00604482015290519081900360640190fd5b60028054819060a060020a60ff02191660a060020a82611060565b600280805460a060020a900460ff16908111156111af57fe5b141561127d5760045415806111ca5750600854600354420310155b151561126c576040805160e560020a62461bcd02815260206004820152605860248201527f546865726520617265207374696c6c20646973707574657320776974686f757460448201527f206a75726f727320616e6420746865206d6178696d756d2064726177696e672060648201527f74696d6520686173206e6f7420706173736564207965742e0000000000000000608482015290519081900360a40190fd5b6002805460a060020a60ff02191690555b426003819055507f31f72b44f546d9e7eaec13f65636997665e15f134a81c82924f568f5c0d07b93600260149054906101000a900460ff16604051808260028111156112c557fe5b60ff16815260200191505060405180910390a1565b600054600160a060020a031681565b600e5481565b600080600f8381548110151561130157fe5b60009182526020909120600e9091020190506003600282015460ff16600481111561132857fe5b10156113375760009150611360565b6004600282015460ff16600481111561134c57fe5b101561135b5760019150611360565b600291505b50919050565b6000600f8281548110151561137757fe5b600091825260208220600e909102019150600282015460ff16600481111561139b57fe5b14156115b15760048101546001108061140d57508054600a805490916001606060020a03169081106113c957fe5b90600052602060002090600b02016007018160020160009054906101000a900460ff1660048111156113f757fe5b6004811061140157fe5b01548160030154420310155b15156114b0576040805160e560020a62461bcd028152602060048201526044602482018190527f5468652065766964656e636520706572696f642074696d6520686173206e6f74908201527f207061737365642079657420616e64206974206973206e6f7420616e2061707060648201527f65616c2e00000000000000000000000000000000000000000000000000000000608482015290519081900360a40190fd5b60048101805460001981019081106114c457fe5b600091825260209091200154600882015414611550576040805160e560020a62461bcd02815260206004820152602960248201527f546865206469737075746520686173206e6f742066696e69736865642064726160448201527f77696e67207965742e0000000000000000000000000000000000000000000000606482015290519081900360840190fd5b8054600a805490916001606060020a031690811061156a57fe5b600091825260209091206002600b90920201015460ff1661158c57600261158f565b60015b60028201805460ff191660018360048111156115a757fe5b0217905550611a5f565b6001600282015460ff1660048111156115c657fe5b141561170b578054600a805490916001606060020a03169081106115e657fe5b90600052602060002090600b02016007018160020160009054906101000a900460ff16600481111561161457fe5b6004811061161e57fe5b0154816003015442031015806116565750600481018054600019810190811061164357fe5b6000918252602090912001546009820154145b15156116f8576040805160e560020a62461bcd02815260206004820152605060248201527f54686520636f6d6d697420706572696f642074696d6520686173206e6f74207060448201527f61737365642079657420616e64206e6f74206576657279206a75726f7220686160648201527f7320636f6d6d6974746564207965742e00000000000000000000000000000000608482015290519081900360a40190fd5b6002818101805460ff19166001836115a7565b60028082015460ff16600481111561171f57fe5b14156118c6578054600a805490916001606060020a031690811061173f57fe5b90600052602060002090600b02016007018160020160009054906101000a900460ff16600481111561176d57fe5b6004811061177757fe5b0154816003015442031015806117cf5750600481018054600019810190811061179c57fe5b6000918252602090912001546004820154600a830180549091600019019081106117c257fe5b9060005260206000200154145b1515611871576040805160e560020a62461bcd02815260206004820152604a60248201527f54686520766f746520706572696f642074696d6520686173206e6f742070617360448201527f7365642079657420616e64206e6f74206576657279206a75726f72206861732060648201527f766f746564207965742e00000000000000000000000000000000000000000000608482015290519081900360a40190fd5b600281018054600360ff199091161790558054604051606060020a909104600160a060020a03169083907fa5d41b970d849372be1da1481ffd78d162bfe57a7aa2fe4e5fb73481fa5ac24f90600090a3611a5f565b6003600282015460ff1660048111156118db57fe5b14156119ce578054600a805490916001606060020a03169081106118fb57fe5b90600052602060002090600b02016007018160020160009054906101000a900460ff16600481111561192957fe5b6004811061193357fe5b01546003820154420310156119b8576040805160e560020a62461bcd02815260206004820152602a60248201527f5468652061707065616c20706572696f642074696d6520686173206e6f74207060448201527f6173736564207965742e00000000000000000000000000000000000000000000606482015290519081900360840190fd5b6002810180546004919060ff19166001836115a7565b6004600282015460ff1660048111156119e357fe5b1415611a5f576040805160e560020a62461bcd02815260206004820152602a60248201527f546865206469737075746520697320616c726561647920696e20746865206c6160448201527f737420706572696f642e00000000000000000000000000000000000000000000606482015290519081900360840190fd5b426003820155600281015460405183917f4e6f5cf43b95303e86aee81683df63992061723a829ee012db21dad388756b919160ff9091169080826004811115611aa457fe5b60ff16815260200191505060405180910390a25050565b60085481565b600080600f83815481101515611ad357fe5b60009182526020909120600e90910201600581018054919250906000198101908110611afb57fe5b600091825260209091206002600390920201015460ff16611b41576005810180546000198101908110611b2a57fe5b906000526020600020906003020160000154611b44565b60005b9392505050565b600a805482908110611b5957fe5b60009182526020909120600b90910201805460028201546003830154600484015460058501546006909501546001606060020a03909416955060ff90921693909286565b600080808080808080808b600480600f805484908110611bb957fe5b600091825260209091206002600e90920201015460ff166004811115611bdb57fe5b14611be557600080fd5b6009805460ff19169055600f80548f908110611bfd57fe5b90600052602060002090600e02019a508b8b600b018e815481101515611c1f57fe5b90600052602060002001540199508a600b018d815481101515611c3e57fe5b90600052602060002001548a10151515611c5757600080fd5b600c8b0180548e908110611c6757fe5b600091825260208220015460058d018054919b509199508998506000198101908110611c8f57fe5b600091825260209091206002600390920201015460ff16158015611d11575060058b0180548e908110611cbe57fe5b906000526020600020906003020160010160008c60050160018e6005018054905003815481101515611cec57fe5b9060005260206000209060030201600001548152602001908152602001600020546000145b15611d5d5760048b0180548e908110611d2657fe5b6000918252602090912001548a1115611d585760048b0180548e908110611d4957fe5b60009182526020909120015499505b611dfb565b60048b0180548e908110611d6d57fe5b600091825260209091200154600b8c0180548f908110611d8957fe5b90600052602060002001541015611da257600080611dac565b611dac8e8e614dd9565b60048d018054929a50909850908e908110611dc357fe5b6000918252602090912001546002028a1115611dfb5760048b0180548e908110611de957fe5b60009182526020909120015460020299505b600b8b0180548e908110611e0b57fe5b906000526020600020015495505b898610156126ac5760048b0180548e908110611e3157fe5b906000526020600020018b6004018e815481101515611e4c57fe5b60009182526020909120015487811515611e6257fe5b06815481101515611e6f57fe5b60009182526020909120600490910201600381015490955060ff168015611eef575060058b0180546000198101908110611ea557fe5b90600052602060002090600302016000015485600201541480611eef575060058b0180546000198101908110611ed757fe5b600091825260209091206002600390920201015460ff165b156120835760048b0180548e908110611f0457fe5b600091825260209091200154861061207e576001548554604080517fa9059cbb000000000000000000000000000000000000000000000000000000008152600160a060020a039283166004820152602481018c90529051919092169163a9059cbb9160448083019260209291908290030181600087803b158015611f8757600080fd5b505af1158015611f9b573d6000803e3d6000fd5b505050506040513d6020811015611fb157600080fd5b50508454604051600160a060020a039091169088156108fc029089906000818181858888f19350505050508d8560000160009054906101000a9004600160a060020a0316600160a060020a03167f24f45c2b08bbde8c837d70b67991ccb7660537cf749de21a940ae4858b681e198a8a604051808381526020018281526020019250505060405180910390a360068b0180548e90811061204d57fe5b60009182526020808320909101548754600160a060020a031683526010909152604090912060020180549190910390555b61246c565b60048b0180548e90811061209357fe5b60009182526020909120015486101561246c5760015485546040805160e060020a6370a08231028152600160a060020a039283166004820152905191909216916370a082319160248083019260209291908290030181600087803b1580156120fa57600080fd5b505af115801561210e573d6000803e3d6000fd5b505050506040513d602081101561212457600080fd5b505160068c0180548f90811061213657fe5b9060005260206000200154116121665760068b0180548e90811061215657fe5b90600052602060002001546121e7565b60015485546040805160e060020a6370a08231028152600160a060020a039283166004820152905191909216916370a082319160248083019260209291908290030181600087803b1580156121ba57600080fd5b505af11580156121ce573d6000803e3d6000fd5b505050506040513d60208110156121e457600080fd5b50515b6001548654604080517f23b872dd000000000000000000000000000000000000000000000000000000008152600160a060020a0392831660048201523060248201526044810185905290519397509116916323b872dd916064808201926020929091908290030181600087803b15801561226057600080fd5b505af1158015612274573d6000803e3d6000fd5b505050506040513d602081101561228a57600080fd5b8101908080519060200190929190505050508d8560000160009054906101000a9004600160a060020a0316600160a060020a03167f24f45c2b08bbde8c837d70b67991ccb7660537cf749de21a940ae4858b681e19866000036000604051808381526020018281526020019250505060405180910390a360068b018054998501998e90811061231557fe5b60009182526020808320909101548754600160a060020a039081168452601083526040808520600201805493909303909255885481168085528285206001908101549054845160e060020a6370a0823102815260048101939093529351909593909216936370a082319360248084019492938390030190829087803b15801561239d57600080fd5b505af11580156123b1573d6000803e3d6000fd5b505050506040513d60208110156123c757600080fd5b505110806123da5750600385015460ff16155b1561246c57600092505b8454600160a060020a031660009081526010602052604090205483101561246c578454600160a060020a0316600081815260106020526040902080546124609291908690811061243057fe5b9060005260206000209060029182820401919006600c029054906101000a90046001606060020a03166000614f7c565b506001909201916123e4565b60018b6004018e81548110151561247f57fe5b600091825260209091200154038614156126a157600a8b0180548e9081106124a357fe5b90600052602060002001546000148061254d575060058b01805460001981019081106124cb57fe5b600091825260209091206002600390920201015460ff1615801561254d575060058b0180548e9081106124fa57fe5b906000526020600020906003020160010160008c60050160018e600501805490500381548110151561252857fe5b9060005260206000209060030201600001548152602001908152602001600020546000145b15612668576000809054906101000a9004600160a060020a0316600160a060020a03166108fc8c6007018f81548110151561258457fe5b90600052602060002001549081150290604051600060405180830381858888f1935050505050600160009054906101000a9004600160a060020a0316600160a060020a031663a9059cbb6000809054906101000a9004600160a060020a03168b6040518363ffffffff1660e060020a0281526004018083600160a060020a0316600160a060020a0316815260200182815260200192505050602060405180830381600087803b15801561263657600080fd5b505af115801561264a573d6000803e3d6000fd5b505050506040513d602081101561266057600080fd5b506126a19050565b898660010110156126a157888b600c018e81548110151561268557fe5b60009182526020909120015561269b8e8e614dd9565b90985096505b600190950194611e19565b888b600c018e8154811015156126be57fe5b90600052602060002001541415156126ef57888b600c018e8154811015156126e257fe5b6000918252602090912001555b898b600b018e81548110151561270157fe5b60009182526020909120015550506009805460ff19166001179055505050505050505050505050565b61271081565b6000808087600280600f80548490811061274657fe5b600091825260209091206002600e90920201015460ff16600481111561276857fe5b1461277257600080fd5b600f80548b90811061278057fe5b600091825260208220600e909102019550881161279c57600080fd5b6001850154871115612844576040805160e560020a62461bcd02815260206004820152605160248201527f5468652063686f6963652068617320746f206265206c657373207468616e206f60448201527f7220657175616c20746f20746865206e756d626572206f662063686f6963657360648201527f20666f722074686520646973707574652e000000000000000000000000000000608482015290519081900360a40190fd5b600093505b87841015612b9957600485018054339190600019810190811061286857fe5b906000526020600020018a8a87818110151561288057fe5b9050602002013581548110151561289357fe5b6000918252602090912060049091020154600160a060020a031614612902576040805160e560020a62461bcd02815260206004820152601f60248201527f5468652063616c6c65722068617320746f206f776e2074686520766f74652e00604482015290519081900360640190fd5b8454600a805490916001606060020a031690811061291c57fe5b600091825260209091206002600b90920201015460ff1615806129aa575060408051888152602081018890528151908190039091019020600486018054600019810190811061296757fe5b906000526020600020018a8a87818110151561297f57fe5b9050602002013581548110151561299257fe5b90600052602060002090600402016001015460001916145b1515612a26576040805160e560020a62461bcd02815260206004820152602481018290527f54686520636f6d6d6974206d757374206d61746368207468652063686f69636560448201527f20696e20737562636f7572747320776974682068696464656e20766f7465732e606482015290519081900360840190fd5b6004850180546000198101908110612a3a57fe5b906000526020600020018989868181101515612a5257fe5b90506020020135815481101515612a6557fe5b600091825260209091206003600490920201015460ff1615612ad1576040805160e560020a62461bcd02815260206004820152601260248201527f566f746520616c726561647920636173742e0000000000000000000000000000604482015290519081900360640190fd5b6004850180548891906000198101908110612ae857fe5b906000526020600020018a8a878181101515612b0057fe5b90506020020135815481101515612b1357fe5b600091825260209091206004918202016002019190915585018054600191906000198101908110612b4057fe5b906000526020600020018a8a878181101515612b5857fe5b90506020020135815481101515612b6b57fe5b60009182526020909120600490910201600301805460ff191691151591909117905560019390930192612849565b6004850154600a860180548a9260001901908110612bb357fe5b6000918252602090912001805490910190556005850180546000198101908110612bd957fe5b600091825260208083208a845260016003909302019182019052604090912080548a0190558054909350871415612c2957600283015460ff1615612c245760028301805460ff191690555b612c9b565b82546000908152600184016020526040808220548983529120541415612c6b57600283015460ff161515612c245760028301805460ff19166001179055612c9b565b82546000908152600184016020526040808220548983529120541115612c9b5786835560028301805460ff191690555b50505050505050505050565b60008054600160a060020a03163314612cbf57600080fd5b6001606060020a0383161580612d26575081600a80856001606060020a0316815481101515612cea57fe5b60009182526020909120600b909102015481546001606060020a03909116908110612d1157fe5b90600052602060002090600b02016003015411155b1515612d3157600080fd5b5060005b600a80546001606060020a038516908110612d4c57fe5b90600052602060002090600b020160010180549050811015612e755781600a80856001606060020a0316815481101515612d8257fe5b90600052602060002090600b020160010183815481101515612da057fe5b9060005260206000200154815481101515612db757fe5b90600052602060002090600b02016003015410151515612e6d576040805160e560020a62461bcd02815260206004820152604960248201527f4120737562636f7572742063616e6e6f742062652074686520706172656e742060448201527f6f66206120737562636f75727420776974682061206c6f776572206d696e696d60648201527f756d207374616b652e0000000000000000000000000000000000000000000000608482015290519081900360a40190fd5b600101612d35565b81600a846001606060020a0316815481101515612e8e57fe5b90600052602060002090600b020160030181905550505050565b6060612eb2615643565b6000600a846001606060020a0316815481101515612ecc57fe5b90600052602060002090600b0201905080600101805480602002602001604051908101604052809291908181526020018280548015612f2a57602002820191906000526020600020905b815481526020019060010190808311612f16575b505060408051608081019182905294975060078601935060049250905082845b815481526020019060010190808311612f4a575050505050915050915091565b60008282612f788282614c30565b341015612ff5576040805160e560020a62461bcd02815260206004820152602560248201527f4e6f7420656e6f7567682045544820746f20636f7665722061707065616c206360448201527f6f7374732e000000000000000000000000000000000000000000000000000000606482015290519081900360840190fd5b84600380600f80548490811061300757fe5b600091825260209091206002600e90920201015460ff16600481111561302957fe5b1461303357600080fd5b600f80548890811061304157fe5b60009182526020909120600e909102018054909550606060020a9004600160a060020a031633146130e2576040805160e560020a62461bcd02815260206004820152602e60248201527f43616e206f6e6c792062652063616c6c6564206279207468652061726269747260448201527f61626c6520636f6e74726163742e000000000000000000000000000000000000606482015290519081900360840190fd5b8454600a805490916001606060020a03169081106130fc57fe5b600091825260209091206006600b909202010154600486018054600019810190811061312457fe5b60009182526020909120015410613180578454600a805490916001606060020a031690811061314f57fe5b60009182526020909120600b909102015485546bffffffffffffffffffffffff19166001606060020a039091161785555b60028501805460ff191690554260038601558454600a805490916001606060020a03169081106131ac57fe5b90600052602060002090600b020160050154348115156131c857fe5b60048701805492909104916131e08260018301615662565b815481106131ea57fe5b90600052602060002001816131ff9190615686565b5060058501805460019190613216828285016156b2565b8154811061322057fe5b60009182526020909120600390910201600201805460ff19169115159190911790558454600a8054600688019261271092916001606060020a0390911690811061326657fe5b600091825260209091206004600b9092020101548754600a805490916001606060020a031690811061329457fe5b90600052602060002090600b020160030154028115156132b057fe5b825460018181018555600094855260208086209490930493909101929092556007880180548084018255908452818420349101556008880183905560098801839055600a88018054808401825590845281842001839055600b88018054808401825590845281842001839055600c88018054808401825590845290832001829055600480549091019055604051339189917f9c9b64db9e130f48381bf697abf638e73117dbfbfd7a4484f2da3ba188f4187d9190a36040805160008152905188917f4e6f5cf43b95303e86aee81683df63992061723a829ee012db21dad388756b91919081900360200190a250505050505050565b600954600090819060ff161561348c576001546040805160e060020a6370a08231028152600160a060020a0388811660048301529151869392909216916370a08231916024808201926020929091908290030181600087803b15801561340a57600080fd5b505af115801561341e573d6000803e3d6000fd5b505050506040513d602081101561343457600080fd5b5051600160a060020a038716600090815260106020526040902060010154919003915081108061347e5750600160a060020a03851660009081526010602052604090206002015481105b1561348c5760009150613491565b600191505b509392505050565b600f8054829081106134a757fe5b60009182526020909120600e90910201805460018201546002830154600384015460088501546009860154600d909601546001606060020a0386169750606060020a909504600160a060020a031695939460ff9384169492939192911688565b600054600160a060020a0316331461351e57600080fd5b80600a836001606060020a031681548110151561353757fe5b90600052602060002090600b02016007019060046135569291906156de565b505050565b600054600160a060020a0316331461357257600080fd5b80600a836001606060020a031681548110151561358b57fe5b90600052602060002090600b0201600501819055505050565b600054600160a060020a031633146135bb57600080fd5b80600a836001606060020a03168154811015156135d457fe5b90600052602060002090600b0201600401819055505050565b60008085600180600f80548490811061360257fe5b600091825260209091206002600e90920201015460ff16600481111561362457fe5b1461362e57600080fd5b600f80548990811061363c57fe5b60009182526020909120600e90910201935084151561365a57600080fd5b600092505b8583101561382857600484018054339190600019810190811061367e57fe5b90600052602060002001888886818110151561369657fe5b905060200201358154811015156136a957fe5b6000918252602090912060049091020154600160a060020a031614613718576040805160e560020a62461bcd02815260206004820152601f60248201527f5468652063616c6c65722068617320746f206f776e2074686520766f74652e00604482015290519081900360640190fd5b60048401805460009190600019810190811061373057fe5b90600052602060002001888886818110151561374857fe5b9050602002013581548110151561375b57fe5b6000918252602090912060016004909202010154146137c4576040805160e560020a62461bcd02815260206004820152601c60248201527f416c726561647920636f6d6d6974746564207468697320766f74652e00000000604482015290519081900360640190fd5b60048401805486919060001981019081106137db57fe5b9060005260206000200188888681811015156137f357fe5b9050602002013581548110151561380657fe5b600091825260209091206001600490920201810191909155929092019161365f565b5050506009018054909201909155505050565b60065481565b600254600160a060020a031681565b600054600160a060020a0316331461386757600080fd5b83600160a060020a03168383836040518083838082843782019150509250505060006040518083038185875af19250505015156138a357600080fd5b50505050565b600054600160a060020a031633146138c057600080fd5b600755565b600160ff60020a0381565b6138db338383614f7c565b15156138e657600080fd5b5050565b60008082600480600f8054849081106138ff57fe5b600091825260209091206002600e90920201015460ff16600481111561392157fe5b1461392b57600080fd5b600f80548690811061393957fe5b60009182526020909120600e90910201600d81015490945060ff16156139a9576040805160e560020a62461bcd02815260206004820152601860248201527f52756c696e6720616c72656164792065786563757465642e0000000000000000604482015290519081900360640190fd5b600d8401805460ff1916600117905560058401805460001981019081106139cc57fe5b600091825260209091206002600390920201015460ff16613a125760058401805460001981019081106139fb57fe5b906000526020600020906003020160000154613a15565b60005b8454604080517f311a6c5600000000000000000000000000000000000000000000000000000000815260048101899052602481018490529051929550606060020a909104600160a060020a03169163311a6c569160448082019260009290919082900301818387803b158015613a8a57600080fd5b505af1158015613a9e573d6000803e3d6000fd5b505050505050505050565b6000806000806000600f88815481101515613ac057fe5b90600052602060002090600e020160040187815481101515613ade57fe5b9060005260206000200186815481101515613af557fe5b60009182526020909120600490910201805460018201546002830154600390930154600160a060020a039092169b909a5091985060ff169650945050505050565b600054600160a060020a03163314613b4d57600080fd5b60028054600160a060020a031916600160a060020a03831617905560016002805460a060020a900460ff1690811115613b8257fe5b1415613bf9576001430160058190556002546040805160e560020a6303dce1a7028152600481019390935251600160a060020a0390911691637b9c34e091602480830192600092919082900301818387803b158015613be057600080fd5b505af1158015613bf4573d6000803e3d6000fd5b505050505b50565b600080808080806002805460a060020a900460ff1690811115613c1b57fe5b14613c2557600080fd5b600e54600187600d54010311613c3b5785613c46565b600d54600e54036001015b600d549095508086019450841015613c5d57600080fd5b600d5492505b83831015613ce8576000838152600c6020526040902080546001820154919350613cb191600160a060020a0382169160a060020a90046001606060020a0316906001608060020a0316614f7c565b506000838152600c60205260408120908155600190810180546fffffffffffffffffffffffffffffffff1916905590920191613c63565b505050600d555050565b600073__src/data-structures/SortitionSumTree__637521ccb1600b6001606060020a038516613d24878761558a565b6040805160e060020a63ffffffff8716028152600481019490945260248401929092526044830152516064808301926020929190829003018186803b158015613d6c57600080fd5b505af4158015613d80573d6000803e3d6000fd5b505050506040513d6020811015613d9657600080fd5b50519392505050565b600054600160a060020a03163314613db657600080fd5b80600a836001606060020a0316815481101515613dcf57fe5b90600052602060002090600b0201600601819055505050565b6000806000600f84815481101515613dfc57fe5b60009182526020909120600e9091020190506003600282015460ff166004811115613e2357fe5b1415613e6d5760038101548154600a8054929550916001606060020a03909116908110613e4c57fe5b60009182526020909120600a600b9092020101546003820154019150613e76565b60009250600091505b50915091565b60025460a060020a900460ff1681565b600481565b600c6020526000908152604090208054600190910154600160a060020a0382169160a060020a90046001606060020a0316906001608060020a031683565b60035481565b60075481565b600d5481565b60008060008084613ef181614d83565b341015613f6e576040805160e560020a62461bcd02815260206004820152602a60248201527f4e6f7420656e6f7567682045544820746f20636f76657220617262697472617460448201527f696f6e20636f7374732e00000000000000000000000000000000000000000000606482015290519081900360840190fd5b613f77866155c9565b600f8054929650909450613f8e906001830161571c565b9450600f85815481101515613f9f57fe5b60009182526020909120600e9091020180546bffffffffffffffffffffffff19166001606060020a0386811691909117811633606060020a0217808355600183018a905560028301805460ff19169055426003840155600a805493955092911690811061400857fe5b90600052602060002090600b0201600501543481151561402457fe5b600484018054929091049161403c8260018301615662565b8154811061404657fe5b906000526020600020018161405b9190615686565b5060058201805460019190614072828285016156b2565b8154811061407c57fe5b60009182526020909120600390910201600201805460ff19169115159190911790558154600a8054600685019261271092916001606060020a039091169081106140c257fe5b600091825260209091206004600b9092020101548454600a805490916001606060020a03169081106140f057fe5b90600052602060002090600b0201600301540281151561410c57fe5b82546001818101855560009485526020808620949093049390910192909255600785018054808401825590845281842034910155600a85018054808401825590845281842001839055600b85018054808401825590845281842001839055600c85018054808401825590845290832001829055600480549091019055604051339187917f141dfc18aa6a56fc816f44f0e9e2f1ebc92b15ab167770e17db5b084c10ed9959190a35050505092915050565b6000808080806002806002805460a060020a900460ff16908111156141de57fe5b146141e857600080fd5b87600080600f8054849081106141fa57fe5b600091825260209091206002600e90920201015460ff16600481111561421c57fe5b1461422657600080fd5b600f80548b90811061423457fe5b90600052602060002090600e020197508888600801540196508760080154871015151561426057600080fd5b600488018054600019810190811061427457fe5b6000918252602090912001548711156142aa57600488018054600019810190811061429b57fe5b60009182526020909120015496505b876008015495505b868610156144c45787546006546040805191825260208083018e90528282018a905281519283900360600183207f88c1d467000000000000000000000000000000000000000000000000000000008452600b60048501526001606060020a03909416602484015260448301939093525161438e9273__src/data-structures/SortitionSumTree__926388c1d4679260648083019392829003018186803b15801561435d57600080fd5b505af4158015614371573d6000803e3d6000fd5b505050506040513d602081101561438757600080fd5b5051615617565b60048a0180549297506001606060020a03919091169550869160001981019081106143b557fe5b90600052602060002001878154811015156143cc57fe5b600091825260209091206004909102018054600160a060020a031916600160a060020a0392909216919091179055600688018054600019810190811061440e57fe5b6000918252602080832090910154600160a060020a03881680845260108352604093849020600201805490920190915560048b01548351600019909101815291820189905282518d9391927f6119cf536152c11e0a9a6c22f3953ce4ecc93ee54fa72ffa326ffabded21509b92908290030190a360048801805460019190600019810190811061449a57fe5b600091825260209091200154038614156144b957600480546000190190555b6001909501946142b2565b505050505060089290920155505050565b60008054600160a060020a031633146144ed57600080fd5b86600a8a6001606060020a031681548110151561450657fe5b90600052602060002090600b020160030154111515156145bc576040805160e560020a62461bcd02815260206004820152604760248201527f4120737562636f7572742063616e6e6f742062652061206368696c64206f662060448201527f6120737562636f7572742077697468206120686967686572206d696e696d756d60648201527f207374616b652e00000000000000000000000000000000000000000000000000608482015290519081900360a40190fd5b60408051610100810182526001606060020a038b168152815160008152602080820184528201528915158183015260608101899052608080820189905260a0820188905260c082018790528251808201909352600192600a929160e083019190889060049083908390808284375050509190925250508154600180820180855560009485526020948590208451600b9094020180546bffffffffffffffffffffffff19166001606060020a03909416939093178355838501518051919561468893850192910190615748565b50604082015160028201805460ff191691151591909117905560608201516003820155608082015160048083019190915560a0830151600583015560c0830151600683015560e08301516146e191600784019190615783565b5050604080517f9075789e000000000000000000000000000000000000000000000000000000008152600b6004820152939092036001606060020a038116602485015260448401869052915191935073__src/data-structures/SortitionSumTree__92639075789e9260648083019350600092829003018186803b15801561476a57600080fd5b505af415801561477e573d6000803e3d6000fd5b50505050600a896001606060020a031681548110151561479a57fe5b600091825260208083206001600b9093020182018054928301815583529091206001606060020a039092169101555050505050505050565b600160a060020a0381166000908152601060209081526040918290208054835181840281018401909452808452606093919283919083018282801561486857602002820191906000526020600020906000905b82829054906101000a90046001606060020a03166001606060020a0316815260200190600c0190602082600b010492830192600103820291508084116148255790505b5050505050915050919050565b50600192915050565b6010602052600090815260409020600181015460029091015482565b600054600160a060020a031633146148b157600080fd5b600855565b606080606080606080600080600f898154811015156148d157fe5b90600052602060002090600e020191508160040180549050604051908082528060200260200182016040528015614912578160200160208202803883390190505b509750600090505b6004820154811015614962576004820180548290811061493657fe5b600091825260209091200154885189908390811061495057fe5b6020908102909101015260010161491a565b816006018054806020026020016040519081016040528092919081815260200182805480156149b057602002820191906000526020600020905b81548152602001906001019080831161499c575b5050505050965081600701805480602002602001604051908101604052809291908181526020018280548015614a0557602002820191906000526020600020905b8154815260200190600101908083116149f1575b5050505050955081600a01805480602002602001604051908101604052809291908181526020018280548015614a5a57602002820191906000526020600020905b815481526020019060010190808311614a46575b5050505050945081600b01805480602002602001604051908101604052809291908181526020018280548015614aaf57602002820191906000526020600020905b815481526020019060010190808311614a9b575b5050505050935081600c01805480602002602001604051908101604052809291908181526020018280548015614b0457602002820191906000526020600020905b815481526020019060010190808311614af0575b50505050509250505091939550919395565b60006060600080600080600f88815481101515614b2f57fe5b90600052602060002090600e020192508260050187815481101515614b5057fe5b90600052602060002090600302019150816000015495508260010154600101604051908082528060200260200182016040528015614b98578160200160208202803883390190505b509450600090505b60018301548111614bdc5760008181526001830160205260409020548551869083908110614bca57fe5b60209081029091010152600101614ba0565b506002015493969295505060ff90921692509050565b600054600160a060020a03163314614c0957600080fd5b60008054600160a060020a031916600160a060020a0392909216919091179055565b600381565b6000806000600f85815481101515614c4457fe5b60009182526020909120600e90910201600481018054919350906000198101908110614c6c57fe5b6000918252602090912001548254600a8054929350916001606060020a03909116908110614c9657fe5b90600052602060002090600b02016006015481101515614d365781546001606060020a03161515614cd057600160ff60020a039250614d31565b8154600a8054600160028502019282916001606060020a03909116908110614cf457fe5b60009182526020909120600b909102015481546001606060020a03909116908110614d1b57fe5b90600052602060002090600b0201600501540292505b614d6c565b8154600a805460016002850201926001606060020a0316908110614d5657fe5b90600052602060002090600b0201600501540292505b505092915050565b50600090565b60095460ff1681565b6000806000614d91846155c9565b9150915080600a836001606060020a0316815481101515614dae57fe5b90600052602060002090600b0201600501540292505050919050565b600154600160a060020a031681565b600080600080600080600f88815481101515614df157fe5b60009182526020909120600e90910201600581018054919550906000198101908110614e1957fe5b600091825260209091206002600390920201015460ff1615614ec057600a8401805488908110614e4557fe5b906000526020600020015492506000831115614eb2578284600c0188815481101515614e6d57fe5b9060005260206000200154811515614e8157fe5b049550828460070188815481101515614e9657fe5b9060005260206000200154811515614eaa57fe5b049450614ebb565b60009550600094505b614f71565b6005840180546000198101908110614ed457fe5b90600052602060002090600302016000015491508360050187815481101515614ef957fe5b906000526020600020906003020160010160008381526020019081526020016000205490508084600c0188815481101515614f3057fe5b9060005260206000200154811515614f4457fe5b049550808460070188815481101515614f5957fe5b9060005260206000200154811515614f6d57fe5b0494505b505050509250929050565b600080600080600080600080600a805490508a6001606060020a0316101515614fa8576000975061557c565b60006002805460a060020a900460ff1690811115614fc257fe5b146150b2576060604051908101604052808c600160a060020a031681526020018b6001606060020a031681526020018a6001608060020a0316815250600c6000600e60008154600101919050819055815260200190815260200160002060008201518160000160006101000a815481600160a060020a030219169083600160a060020a0316021790555060208201518160000160146101000a8154816001606060020a0302191690836001606060020a0316021790555060408201518160010160006101000a8154816001608060020a0302191690836001608060020a031602179055509050506001975061557c565b6001608060020a03891615806150fa5750886001608060020a0316600a8b6001606060020a03168154811015156150e557fe5b90600052602060002090600b02016003015411155b1515615109576000975061557c565b600160a060020a038b166000908152601060205260409020965061512d8b8b61558a565b604080517f7521ccb1000000000000000000000000000000000000000000000000000000008152600b60048201526001606060020a038d16602482015260448101839052905191975073__src/data-structures/SortitionSumTree__91637521ccb191606480820192602092909190829003018186803b1580156151b257600080fd5b505af41580156151c6573d6000803e3d6000fd5b505050506040513d60208110156151dc57600080fd5b505194506001608060020a03891615806151f65750600085115b80615202575086546004115b1515615211576000975061557c565b60018701548590036001608060020a038a16908101945015806152b357506001546040805160e060020a6370a08231028152600160a060020a038e811660048301529151879392909216916370a08231916024808201926020929091908290030181600087803b15801561528457600080fd5b505af1158015615298573d6000803e3d6000fd5b505050506040513d60208110156152ae57600080fd5b505110155b15156152c2576000975061557c565b600187018490556001608060020a03891615156153df57600092505b86548310156153da5786546001606060020a038b169088908590811061530057fe5b600091825260209091206002820401546001909116600c026101000a90046001606060020a031614156153cf5786548790600019810190811061533f57fe5b9060005260206000209060029182820401919006600c029054906101000a90046001606060020a0316876000018481548110151561537957fe5b9060005260206000209060029182820401919006600c026101000a8154816001606060020a0302191690836001606060020a03160217905550866000018054809190600190036153c991906157b0565b506153da565b6001909201916152de565b615421565b841515615421578654600180820189556000898152602090206002830401805491909216600c026101000a6001606060020a0381810219909216918d16021790555b50600090506001606060020a0389165b81151561551a57604080517f2e25c38a000000000000000000000000000000000000000000000000000000008152600b6004820152602481018390526001608060020a038b16604482015260648101889052905173__src/data-structures/SortitionSumTree__91632e25c38a916084808301926000929190829003018186803b1580156154c057600080fd5b505af41580156154d4573d6000803e3d6000fd5b5050505080600014156154ea5760019150615515565b600a8054829081106154f857fe5b60009182526020909120600b90910201546001606060020a031690505b615431565b604080516001606060020a038c1681526001608060020a038b1660208201528082018690529051600160a060020a038d16917f8f753321c98641397daaca5e8abf8881fff1fd7a7bc229924a012e2cb61763d5919081900360600190a2600197505b505050505050509392505050565b600060405160005b60148110156155ad578481600c011a81830153600101615592565b5060145b6020811015613d965783811a818301536001016155b1565b6000806040835110151561560a57505060208101516040820151600a546001606060020a038316106155fa57600091505b801515615605575060035b615612565b506000905060035b915091565b60008060405160005b601481101561563b5784811a81600c84010153600101615620565b505193915050565b6080604051908101604052806004906020820280388339509192915050565b815481835581811115613556576000838152602090206135569181019083016157e4565b81548183558181111561355657600402816004028360005260206000209182019101613556919061580a565b815481835581811115613556576003028160030283600052602060002091820191016135569190615848565b826004810192821561570c579160200282015b8281111561570c5782358255916020019190600101906156f1565b5061571892915061586e565b5090565b81548183558181111561355657600e0281600e0283600052602060002091820191016135569190615888565b82805482825590600052602060002090810192821561570c579160200282015b8281111561570c578251825591602001919060010190615768565b826004810192821561570c579160200282018281111561570c578251825591602001919060010190615768565b815481835581811115613556576001016002900481600101600290048360005260206000209182019101613556919061586e565b61580791905b808211156157185760006157fe828261593d565b506001016157ea565b90565b61580791905b80821115615718578054600160a060020a0319168155600060018201819055600282015560038101805460ff19169055600401615810565b61580791905b80821115615718576000815560028101805460ff1916905560030161584e565b61580791905b808211156157185760008155600101615874565b61580791905b808211156157185760008082556001820181905560028201805460ff19169055600382018190556158c2600483018261595e565b6158d060058301600061597c565b6158de60068301600061599d565b6158ec60078301600061599d565b60088201600090556009820160009055600a8201600061590c919061599d565b61591a600b8301600061599d565b615928600c8301600061599d565b50600d8101805460ff19169055600e0161588e565b5080546000825560040290600052602060002090810190613bf9919061580a565b5080546000825590600052602060002090810190613bf991906157e4565b5080546000825560030290600052602060002090810190613bf99190615848565b5080546000825590600052602060002090810190613bf9919061586e5600a165627a7a72305820565c9e7dde850fb23a3c03d0a6d68e45520cc138ce32b70848f4de27548f31960029",
  "libraries": {
    "SortitionSumTreeFactory": "0x17aA5CDbe970fB8C0FdfD9090F2883fF70c83DD8"
  },
  "devdoc": {
    "author": "Enrique Piqueras - <epiquerass@gmail.com>",
    "methods": {
      "appeal(uint256,bytes)": {
        "details": "Appeals the ruling of a specified dispute.",
        "params": {
          "_disputeID": "The ID of the dispute.",
          "_extraData": "Additional info about the appeal. Not used by this contract."
        }
      },
      "appealCost(uint256,bytes)": {
        "details": "Gets the cost of appealing a specified dispute.",
        "params": {
          "_disputeID": "The ID of the dispute.",
          "_extraData": "Additional info about the appeal. Not used by this contract."
        },
        "return": "cost The cost."
      },
      "appealPeriod(uint256)": {
        "details": "Gets the start and end of a specified dispute's current appeal period.",
        "params": {
          "_disputeID": "The ID of the dispute."
        },
        "return": "start The start of the appeal period.end The end of the appeal period."
      },
      "arbitrationCost(bytes)": {
        "details": "Gets the cost of arbitration in a specified subcourt.",
        "params": {
          "_extraData": "Additional info about the dispute. We use it to pass the ID of the subcourt to create the dispute in (first 32 bytes) and the minimum number of jurors required (next 32 bytes)."
        },
        "return": "cost The cost."
      },
      "castCommit(uint256,uint256[],bytes32)": {
        "details": "Sets the caller's commit for the specified votes. `O(n)` where `n` is the number of votes.",
        "params": {
          "_commit": "The commit.",
          "_disputeID": "The ID of the dispute.",
          "_voteIDs": "The IDs of the votes."
        }
      },
      "castVote(uint256,uint256[],uint256,uint256)": {
        "details": "Sets the caller's choices for the specified votes. `O(n)` where `n` is the number of votes.",
        "params": {
          "_choice": "The choice.",
          "_disputeID": "The ID of the dispute.",
          "_salt": "The salt for the commit if the votes were hidden.",
          "_voteIDs": "The IDs of the votes."
        }
      },
      "changeGovernor(address)": {
        "details": "Changes the `governor` storage variable.",
        "params": {
          "_governor": "The new value for the `governor` storage variable."
        }
      },
      "changeMaxDrawingTime(uint256)": {
        "details": "Changes the `maxDrawingTime` storage variable.",
        "params": {
          "_maxDrawingTime": "The new value for the `maxDrawingTime` storage variable."
        }
      },
      "changeMinStakingTime(uint256)": {
        "details": "Changes the `minStakingTime` storage variable.",
        "params": {
          "_minStakingTime": "The new value for the `minStakingTime` storage variable."
        }
      },
      "changePinakion(address)": {
        "details": "Changes the `pinakion` storage variable.",
        "params": {
          "_pinakion": "The new value for the `pinakion` storage variable."
        }
      },
      "changeRNGenerator(address)": {
        "details": "Changes the `RNGenerator` storage variable.",
        "params": {
          "_RNGenerator": "The new value for the `RNGenerator` storage variable."
        }
      },
      "changeSubcourtAlpha(uint96,uint256)": {
        "details": "Changes the `alpha` property value of a specified subcourt.",
        "params": {
          "_alpha": "The new value for the `alpha` property value.",
          "_subcourtID": "The ID of the subcourt."
        }
      },
      "changeSubcourtJurorFee(uint96,uint256)": {
        "details": "Changes the `feeForJuror` property value of a specified subcourt.",
        "params": {
          "_feeForJuror": "The new value for the `feeForJuror` property value.",
          "_subcourtID": "The ID of the subcourt."
        }
      },
      "changeSubcourtJurorsForJump(uint96,uint256)": {
        "details": "Changes the `jurorsForCourtJump` property value of a specified subcourt.",
        "params": {
          "_jurorsForCourtJump": "The new value for the `jurorsForCourtJump` property value.",
          "_subcourtID": "The ID of the subcourt."
        }
      },
      "changeSubcourtMinStake(uint96,uint256)": {
        "details": "Changes the `minStake` property value of a specified subcourt. Don't set to a value lower than its parent's `minStake` property value.",
        "params": {
          "_minStake": "The new value for the `minStake` property value.",
          "_subcourtID": "The ID of the subcourt."
        }
      },
      "changeSubcourtTimesPerPeriod(uint96,uint256[4])": {
        "details": "Changes the `timesPerPeriod` property value of a specified subcourt.",
        "params": {
          "_subcourtID": "The ID of the subcourt.",
          "_timesPerPeriod": "The new value for the `timesPerPeriod` property value."
        }
      },
      "createDispute(uint256,bytes)": {
        "details": "Creates a dispute. Must be called by the arbitrable contract.",
        "params": {
          "_extraData": "Additional info about the dispute to be created. We use it to pass the ID of the subcourt to create the dispute in (first 32 bytes) and the minimum number of jurors required (next 32 bytes).",
          "_numberOfChoices": "Number of choices to choose from in the dispute to be created."
        },
        "return": "disputeID The ID of the created dispute."
      },
      "createSubcourt(uint96,bool,uint256,uint256,uint256,uint256,uint256[4],uint256)": {
        "details": "Creates a subcourt under a specified parent court.",
        "params": {
          "_alpha": "The `alpha` property value of the subcourt.",
          "_feeForJuror": "The `feeForJuror` property value of the subcourt.",
          "_hiddenVotes": "The `hiddenVotes` property value of the subcourt.",
          "_jurorsForCourtJump": "The `jurorsForCourtJump` property value of the subcourt.",
          "_minStake": "The `minStake` property value of the subcourt.",
          "_parent": "The `parent` property value of the subcourt.",
          "_sortitionSumTreeK": "The number of children per node of the subcourt's sortition sum tree.",
          "_timesPerPeriod": "The `timesPerPeriod` property value of the subcourt."
        }
      },
      "currentRuling(uint256)": {
        "details": "Gets the current ruling of a specified dispute.",
        "params": {
          "_disputeID": "The ID of the dispute."
        },
        "return": "ruling The current ruling."
      },
      "disputeStatus(uint256)": {
        "details": "Gets the status of a specified dispute.",
        "params": {
          "_disputeID": "The ID of the dispute."
        },
        "return": "status The status."
      },
      "drawJurors(uint256,uint256)": {
        "details": "Draws jurors for a dispute. Can be called in parts. `O(n * k * log_k(j))` where `n` is the number of iterations to run, `k` is the number of children per node of the dispute's court's sortition sum tree, and `j` is the maximum number of jurors that ever staked in it simultaneously.",
        "params": {
          "_disputeID": "The ID of the dispute.",
          "_iterations": "The number of iterations to run."
        }
      },
      "execute(uint256,uint256,uint256)": {
        "details": "Repartitions tokens and ETH for a specified appeal in a specified dispute. Can be called in parts. `O(i + u * n * (n + p * log_k(j)))` where `i` is the number of iterations to run, `u` is the number of jurors that need to be unstaked, `n` is the maximum number of subcourts one of these jurors has staked in, `p` is the depth of the subcourt tree, `k` is the minimum number of children per node of one of these subcourts' sortition sum tree, and `j` is the maximum number of jurors that ever staked in one of these subcourts simultaneously.",
        "params": {
          "_appeal": "The appeal.",
          "_disputeID": "The ID of the dispute.",
          "_iterations": "The number of iterations to run."
        }
      },
      "executeDelayedSetStakes(uint256)": {
        "details": "Executes the next delayed set stakes.",
        "params": {
          "_iterations": "The number of delayed set stakes to execute."
        }
      },
      "executeGovernorProposal(address,uint256,bytes)": {
        "details": "Lets the governor call anything on behalf of the contract.",
        "params": {
          "_amount": "The value sent with the call.",
          "_data": "The data sent with the call.",
          "_destination": "The destination of the call."
        }
      },
      "executeRuling(uint256)": {
        "details": "Executes a specified dispute's ruling. UNTRUSTED.",
        "params": {
          "_disputeID": "The ID of the dispute."
        }
      },
      "getDispute(uint256)": {
        "details": "Gets a specified dispute's non primitive properties.",
        "params": {
          "_disputeID": "The ID of the dispute."
        },
        "return": "votesLengths The dispute's vote length.tokensAtStakePerJuror The dispute's required tokens at stake per Juror.totalFeesForJurors The dispute's total fees for Jurors.votesInEachRound The dispute's counter of votes made in each round.repartitionsInEachRound The dispute's counter of vote reward repartitions made in each round.penaltiesInEachRound The dispute's amount of tokens collected from penalties in each round. `O(a)` where `a` is the number of appeals of the dispute."
      },
      "getJuror(address)": {
        "details": "Gets a specified juror's non primitive properties.",
        "params": {
          "_account": "The address of the juror."
        },
        "return": "subcourtIDs The juror's IDs of subcourts where the juror has stake path."
      },
      "getSubcourt(uint96)": {
        "details": "Gets a specified subcourt's non primitive properties.",
        "params": {
          "_subcourtID": "The ID of the subcourt."
        },
        "return": "children The subcourt's child court list.timesPerPeriod The subcourt's time per period."
      },
      "getVote(uint256,uint256,uint256)": {
        "details": "Gets a specified vote for a specified appeal in a specified dispute.",
        "params": {
          "_appeal": "The appeal.",
          "_disputeID": "The ID of the dispute.",
          "_voteID": "The ID of the vote."
        },
        "return": "account The account for vote.commit  The commit for vote.choice  The choice for vote.voted True if the account voted, False otherwise."
      },
      "getVoteCounter(uint256,uint256)": {
        "details": "Gets the vote counter for a specified appeal in a specified dispute. Note: This function is only to be used by the interface and it won't work if the number of choices is too high.",
        "params": {
          "_appeal": "The appeal.",
          "_disputeID": "The ID of the dispute."
        },
        "return": "winningChoice The winning choice.counts The count.tied Whether the vote tied. `O(n)` where `n` is the number of choices of the dispute."
      },
      "onApprove(address,address,uint256)": {
        "details": "Notifies the controller about an approval allowing the controller to react if desired.",
        "params": {
          "_amount": "The amount in the `approve()` call.",
          "_owner": "The address that calls `approve()`.",
          "_spender": "The spender in the `approve()` call."
        },
        "return": "allowed Whether the operation should be allowed or not."
      },
      "onTransfer(address,address,uint256)": {
        "details": "Notifies the controller about a token transfer allowing the controller to react if desired.",
        "params": {
          "_amount": "The amount of the transfer.",
          "_from": "The origin of the transfer.",
          "_to": "The destination of the transfer."
        },
        "return": "allowed Whether the operation should be allowed or not."
      },
      "passPeriod(uint256)": {
        "details": "Passes the period of a specified dispute.",
        "params": {
          "_disputeID": "The ID of the dispute."
        }
      },
      "passPhase()": {
        "details": "Passes the phase. TRUSTED "
      },
      "proxyPayment(address)": {
        "details": "Called when `_owner` sends ether to the MiniMe Token contract.",
        "params": {
          "_owner": "The address that sent the ether to create tokens."
        },
        "return": "allowed Whether the operation should be allowed or not."
      },
      "setStake(uint96,uint128)": {
        "details": "Sets the caller's stake in a subcourt.",
        "params": {
          "_stake": "The new stake.",
          "_subcourtID": "The ID of the subcourt."
        }
      },
      "stakeOf(address,uint96)": {
        "details": "Gets the stake of a specified juror in a specified subcourt.",
        "params": {
          "_account": "The address of the juror.",
          "_subcourtID": "The ID of the subcourt."
        },
        "return": "stake The stake."
      }
    },
    "title": "KlerosLiquid"
  },
  "userdoc": {
    "methods": {}
  }
}