{
  "contractName": "ArbitrableTransaction",
  "abi": [
    {
      "constant": false,
      "inputs": [
        {
          "name": "_extraData",
          "type": "bytes"
        }
      ],
      "name": "appeal",
      "outputs": [],
      "payable": true,
      "stateMutability": "payable",
      "type": "function"
    },
    {
      "constant": true,
      "inputs": [],
      "name": "arbitratorExtraData",
      "outputs": [
        {
          "name": "",
          "type": "bytes"
        }
      ],
      "payable": false,
      "stateMutability": "view",
      "type": "function"
    },
    {
      "constant": true,
      "inputs": [],
      "name": "partyA",
      "outputs": [
        {
          "name": "",
          "type": "address"
        }
      ],
      "payable": false,
      "stateMutability": "view",
      "type": "function"
    },
    {
      "constant": false,
      "inputs": [],
      "name": "timeOutByPartyA",
      "outputs": [],
      "payable": false,
      "stateMutability": "nonpayable",
      "type": "function"
    },
    {
      "constant": true,
      "inputs": [],
      "name": "status",
      "outputs": [
        {
          "name": "",
          "type": "uint8"
        }
      ],
      "payable": false,
      "stateMutability": "view",
      "type": "function"
    },
    {
      "constant": true,
      "inputs": [],
      "name": "partyB",
      "outputs": [
        {
          "name": "",
          "type": "address"
        }
      ],
      "payable": false,
      "stateMutability": "view",
      "type": "function"
    },
    {
      "constant": false,
      "inputs": [
        {
          "name": "_disputeID",
          "type": "uint256"
        },
        {
          "name": "_ruling",
          "type": "uint256"
        }
      ],
      "name": "rule",
      "outputs": [],
      "payable": false,
      "stateMutability": "nonpayable",
      "type": "function"
    },
    {
      "constant": true,
      "inputs": [],
      "name": "partyAFee",
      "outputs": [
        {
          "name": "",
          "type": "uint256"
        }
      ],
      "payable": false,
      "stateMutability": "view",
      "type": "function"
    },
    {
      "constant": true,
      "inputs": [],
      "name": "partyBFee",
      "outputs": [
        {
          "name": "",
          "type": "uint256"
        }
      ],
      "payable": false,
      "stateMutability": "view",
      "type": "function"
    },
    {
      "constant": true,
      "inputs": [],
      "name": "arbitrator",
      "outputs": [
        {
          "name": "",
          "type": "address"
        }
      ],
      "payable": false,
      "stateMutability": "view",
      "type": "function"
    },
    {
      "constant": true,
      "inputs": [],
      "name": "timeout",
      "outputs": [
        {
          "name": "",
          "type": "uint256"
        }
      ],
      "payable": false,
      "stateMutability": "view",
      "type": "function"
    },
    {
      "constant": false,
      "inputs": [],
      "name": "timeOutByPartyB",
      "outputs": [],
      "payable": false,
      "stateMutability": "nonpayable",
      "type": "function"
    },
    {
      "constant": true,
      "inputs": [],
      "name": "lastInteraction",
      "outputs": [
        {
          "name": "",
          "type": "uint256"
        }
      ],
      "payable": false,
      "stateMutability": "view",
      "type": "function"
    },
    {
      "constant": false,
      "inputs": [],
      "name": "payArbitrationFeeByPartyA",
      "outputs": [],
      "payable": true,
      "stateMutability": "payable",
      "type": "function"
    },
    {
      "constant": true,
      "inputs": [],
      "name": "amount",
      "outputs": [
        {
          "name": "",
          "type": "uint256"
        }
      ],
      "payable": false,
      "stateMutability": "view",
      "type": "function"
    },
    {
      "constant": true,
      "inputs": [],
      "name": "disputeID",
      "outputs": [
        {
          "name": "",
          "type": "uint256"
        }
      ],
      "payable": false,
      "stateMutability": "view",
      "type": "function"
    },
    {
      "constant": false,
      "inputs": [],
      "name": "payArbitrationFeeByPartyB",
      "outputs": [],
      "payable": true,
      "stateMutability": "payable",
      "type": "function"
    },
    {
      "constant": false,
      "inputs": [
        {
          "name": "_evidence",
          "type": "string"
        }
      ],
      "name": "submitEvidence",
      "outputs": [],
      "payable": false,
      "stateMutability": "nonpayable",
      "type": "function"
    },
    {
      "inputs": [
        {
          "name": "_arbitrator",
          "type": "address"
        },
        {
          "name": "_hashContract",
          "type": "bytes32"
        },
        {
          "name": "_timeout",
          "type": "uint256"
        },
        {
          "name": "_partyB",
          "type": "address"
        },
        {
          "name": "_arbitratorExtraData",
          "type": "bytes"
        }
      ],
      "payable": true,
      "stateMutability": "payable",
      "type": "constructor"
    },
    {
      "anonymous": false,
      "inputs": [
        {
          "indexed": false,
          "name": "_party",
          "type": "uint8"
        }
      ],
      "name": "HasToPayFee",
      "type": "event"
    },
    {
      "anonymous": false,
      "inputs": [
        {
          "indexed": true,
          "name": "_arbitrator",
          "type": "address"
        },
        {
          "indexed": true,
          "name": "_disputeID",
          "type": "uint256"
        },
        {
          "indexed": false,
          "name": "_rulingOptions",
          "type": "string"
        }
      ],
      "name": "Dispute",
      "type": "event"
    },
    {
      "anonymous": false,
      "inputs": [
        {
          "indexed": true,
          "name": "_arbitrator",
          "type": "address"
        },
        {
          "indexed": true,
          "name": "_disputeID",
          "type": "uint256"
        },
        {
          "indexed": false,
          "name": "_ruling",
          "type": "uint256"
        }
      ],
      "name": "Ruling",
      "type": "event"
    },
    {
      "anonymous": false,
      "inputs": [
        {
          "indexed": true,
          "name": "_arbitrator",
          "type": "address"
        },
        {
          "indexed": true,
          "name": "_disputeID",
          "type": "uint256"
        },
        {
          "indexed": false,
          "name": "_party",
          "type": "address"
        },
        {
          "indexed": false,
          "name": "_evidence",
          "type": "string"
        }
      ],
      "name": "Evidence",
      "type": "event"
    },
    {
      "anonymous": false,
      "inputs": [
        {
          "indexed": false,
          "name": "_contractHash",
          "type": "bytes32"
        }
      ],
      "name": "ContractHash",
      "type": "event"
    },
    {
      "constant": false,
      "inputs": [],
      "name": "pay",
      "outputs": [],
      "payable": false,
      "stateMutability": "nonpayable",
      "type": "function"
    },
    {
      "constant": false,
      "inputs": [
        {
          "name": "_amountReimbursed",
          "type": "uint256"
        }
      ],
      "name": "reimburse",
      "outputs": [],
      "payable": false,
      "stateMutability": "nonpayable",
      "type": "function"
    }
  ],
  "bytecode": "0x606060405260405162001a1138038062001a11833981016040528080519060200190919080519060200190919080519060200190919080519060200190919080518201919050508484848484848185826000806101000a81548173ffffffffffffffffffffffffffffffffffffffff021916908373ffffffffffffffffffffffffffffffffffffffff1602179055508160019080519060200190620000a692919062000192565b507f1892820d22f2ab2b60795935d39550f42562bf8862a0b3c2193b095baa40af218160405180826000191660001916815260200191505060405180910390a15050508260028190555033600360006101000a81548173ffffffffffffffffffffffffffffffffffffffff021916908373ffffffffffffffffffffffffffffffffffffffff16021790555081600460006101000a81548173ffffffffffffffffffffffffffffffffffffffff021916908373ffffffffffffffffffffffffffffffffffffffff160217905550505050505034600a60008282540192505081905550505050505062000241565b828054600181600116156101000203166002900490600052602060002090601f016020900481019282601f10620001d557805160ff191683800117855562000206565b8280016001018555821562000206579182015b8281111562000205578251825591602001919060010190620001e8565b5b50905062000215919062000219565b5090565b6200023e91905b808211156200023a57600081600090555060010162000220565b5090565b90565b6117c080620002516000396000f300606060405260043610610112576000357c0100000000000000000000000000000000000000000000000000000000900463ffffffff168063069fae2a146101175780630c7ac7b61461016957806310e1d8ca146101f757806319e2641e1461024c5780631b9265b814610261578063200d2ed21461027657806329040113146102ad578063311a6c56146103025780634a44c2e41461032e5780634b40c97414610351578063512491f11461037a5780636cc6cde1146103a357806370dea79a146103f8578063853c80ce146104215780638f71a26514610436578063a01096311461045f578063aa8c217c14610469578063b0a1e2b414610492578063b1bcce3a146104bb578063bac91e2e146104c5575b600080fd5b610167600480803590602001908201803590602001908080601f01602080910402602001604051908101604052809392919081815260200183838082843782019150505050505091905050610522565b005b341561017457600080fd5b61017c6106ec565b6040518080602001828103825283818151815260200191508051906020019080838360005b838110156101bc5780820151818401526020810190506101a1565b50505050905090810190601f1680156101e95780820380516001836020036101000a031916815260200191505b509250505060405180910390f35b341561020257600080fd5b61020a61078a565b604051808273ffffffffffffffffffffffffffffffffffffffff1673ffffffffffffffffffffffffffffffffffffffff16815260200191505060405180910390f35b341561025757600080fd5b61025f6107b0565b005b341561026c57600080fd5b610274610867565b005b341561028157600080fd5b610289610931565b6040518082600481111561029957fe5b60ff16815260200191505060405180910390f35b34156102b857600080fd5b6102c0610944565b604051808273ffffffffffffffffffffffffffffffffffffffff1673ffffffffffffffffffffffffffffffffffffffff16815260200191505060405180910390f35b341561030d57600080fd5b61032c600480803590602001909190803590602001909190505061096a565b005b341561033957600080fd5b61034f6004808035906020019091905050610a22565b005b341561035c57600080fd5b610364610b04565b6040518082815260200191505060405180910390f35b341561038557600080fd5b61038d610b0a565b6040518082815260200191505060405180910390f35b34156103ae57600080fd5b6103b6610b10565b604051808273ffffffffffffffffffffffffffffffffffffffff1673ffffffffffffffffffffffffffffffffffffffff16815260200191505060405180910390f35b341561040357600080fd5b61040b610b35565b6040518082815260200191505060405180910390f35b341561042c57600080fd5b610434610b3b565b005b341561044157600080fd5b610449610bf2565b6040518082815260200191505060405180910390f35b610467610bf8565b005b341561047457600080fd5b61047c610e6f565b6040518082815260200191505060405180910390f35b341561049d57600080fd5b6104a5610e75565b6040518082815260200191505060405180910390f35b6104c3610e7b565b005b34156104d057600080fd5b610520600480803590602001908201803590602001908080601f016020809104026020016040519081016040528093929190818152602001838380828437820191505050505050919050506110f2565b005b600360009054906101000a900473ffffffffffffffffffffffffffffffffffffffff1673ffffffffffffffffffffffffffffffffffffffff163373ffffffffffffffffffffffffffffffffffffffff1614806105cb5750600460009054906101000a900473ffffffffffffffffffffffffffffffffffffffff1673ffffffffffffffffffffffffffffffffffffffff163373ffffffffffffffffffffffffffffffffffffffff16145b15156105d657600080fd5b6000809054906101000a900473ffffffffffffffffffffffffffffffffffffffff1673ffffffffffffffffffffffffffffffffffffffff166349912f8834600854846040518463ffffffff167c01000000000000000000000000000000000000000000000000000000000281526004018083815260200180602001828103825283818151815260200191508051906020019080838360005b8381101561068957808201518184015260208101905061066e565b50505050905090810190601f1680156106b65780820380516001836020036101000a031916815260200191505b5093505050506000604051808303818588803b15156106d457600080fd5b6125ee5a03f115156106e557600080fd5b5050505050565b60018054600181600116156101000203166002900480601f0160208091040260200160405190810160405280929190818152602001828054600181600116156101000203166002900480156107825780601f1061075757610100808354040283529160200191610782565b820191906000526020600020905b81548152906001019060200180831161076557829003601f168201915b505050505081565b600360009054906101000a900473ffffffffffffffffffffffffffffffffffffffff1681565b600360009054906101000a900473ffffffffffffffffffffffffffffffffffffffff1673ffffffffffffffffffffffffffffffffffffffff163373ffffffffffffffffffffffffffffffffffffffff1614151561080c57600080fd5b6002600481111561081957fe5b600960009054906101000a900460ff16600481111561083457fe5b14151561084057600080fd5b60025460075401421015151561085557600080fd5b610865600854600160ff166112e9565b565b600360009054906101000a900473ffffffffffffffffffffffffffffffffffffffff1673ffffffffffffffffffffffffffffffffffffffff163373ffffffffffffffffffffffffffffffffffffffff161415156108c357600080fd5b600460009054906101000a900473ffffffffffffffffffffffffffffffffffffffff1673ffffffffffffffffffffffffffffffffffffffff166108fc600a549081150290604051600060405180830381858888f19350505050151561092757600080fd5b6000600a81905550565b600960009054906101000a900460ff1681565b600460009054906101000a900473ffffffffffffffffffffffffffffffffffffffff1681565b6000809054906101000a900473ffffffffffffffffffffffffffffffffffffffff1673ffffffffffffffffffffffffffffffffffffffff163373ffffffffffffffffffffffffffffffffffffffff161415156109c557600080fd5b813373ffffffffffffffffffffffffffffffffffffffff167f394027a5fa6e098a1191094d1719d6929b9abc535fcc0c8f448d6a4e75622276836040518082815260200191505060405180910390a3610a1e82826112e9565b5050565b600460009054906101000a900473ffffffffffffffffffffffffffffffffffffffff1673ffffffffffffffffffffffffffffffffffffffff163373ffffffffffffffffffffffffffffffffffffffff16141515610a7e57600080fd5b600a548111151515610a8f57600080fd5b600360009054906101000a900473ffffffffffffffffffffffffffffffffffffffff1673ffffffffffffffffffffffffffffffffffffffff166108fc829081150290604051600060405180830381858888f193505050501515610af157600080fd5b80600a6000828254039250508190555050565b60055481565b60065481565b6000809054906101000a900473ffffffffffffffffffffffffffffffffffffffff1681565b60025481565b600460009054906101000a900473ffffffffffffffffffffffffffffffffffffffff1673ffffffffffffffffffffffffffffffffffffffff163373ffffffffffffffffffffffffffffffffffffffff16141515610b9757600080fd5b60016004811115610ba457fe5b600960009054906101000a900460ff166004811115610bbf57fe5b141515610bcb57600080fd5b600254600754014210151515610be057600080fd5b610bf0600854600260ff166112e9565b565b60075481565b6000600360009054906101000a900473ffffffffffffffffffffffffffffffffffffffff1673ffffffffffffffffffffffffffffffffffffffff163373ffffffffffffffffffffffffffffffffffffffff16141515610c5657600080fd5b6000809054906101000a900473ffffffffffffffffffffffffffffffffffffffff1673ffffffffffffffffffffffffffffffffffffffff1663f7434ea960016000604051602001526040518263ffffffff167c01000000000000000000000000000000000000000000000000000000000281526004018080602001828103825283818154600181600116156101000203166002900481526020019150805460018160011615610100020316600290048015610d525780601f10610d2757610100808354040283529160200191610d52565b820191906000526020600020905b815481529060010190602001808311610d3557829003601f168201915b505092505050602060405180830381600087803b1515610d7157600080fd5b6102c65a03f11515610d8257600080fd5b5050506040518051905090503460056000828254019250508190555080600554141515610dae57600080fd5b60036004811115610dbb57fe5b600960009054906101000a900460ff166004811115610dd657fe5b101515610de257600080fd5b42600781905550806006541015610e62576002600960006101000a81548160ff02191690836004811115610e1257fe5b02179055507fba8db766b5582c21593909b57af48297714ea2c508bfff6c537ce36bb853e568600160405180826001811115610e4a57fe5b60ff16815260200191505060405180910390a1610e6c565b610e6b816113d2565b5b50565b600a5481565b60085481565b6000600460009054906101000a900473ffffffffffffffffffffffffffffffffffffffff1673ffffffffffffffffffffffffffffffffffffffff163373ffffffffffffffffffffffffffffffffffffffff16141515610ed957600080fd5b6000809054906101000a900473ffffffffffffffffffffffffffffffffffffffff1673ffffffffffffffffffffffffffffffffffffffff1663f7434ea960016000604051602001526040518263ffffffff167c01000000000000000000000000000000000000000000000000000000000281526004018080602001828103825283818154600181600116156101000203166002900481526020019150805460018160011615610100020316600290048015610fd55780601f10610faa57610100808354040283529160200191610fd5565b820191906000526020600020905b815481529060010190602001808311610fb857829003601f168201915b505092505050602060405180830381600087803b1515610ff457600080fd5b6102c65a03f1151561100557600080fd5b505050604051805190509050346006600082825401925050819055508060065414151561103157600080fd5b6003600481111561103e57fe5b600960009054906101000a900460ff16600481111561105957fe5b10151561106557600080fd5b426007819055508060055410156110e5576001600960006101000a81548160ff0219169083600481111561109557fe5b02179055507fba8db766b5582c21593909b57af48297714ea2c508bfff6c537ce36bb853e5686000604051808260018111156110cd57fe5b60ff16815260200191505060405180910390a16110ef565b6110ee816113d2565b5b50565b600360009054906101000a900473ffffffffffffffffffffffffffffffffffffffff1673ffffffffffffffffffffffffffffffffffffffff163373ffffffffffffffffffffffffffffffffffffffff16148061119b5750600460009054906101000a900473ffffffffffffffffffffffffffffffffffffffff1673ffffffffffffffffffffffffffffffffffffffff163373ffffffffffffffffffffffffffffffffffffffff16145b15156111a657600080fd5b600360048111156111b357fe5b600960009054906101000a900460ff1660048111156111ce57fe5b101515156111db57600080fd5b6008546000809054906101000a900473ffffffffffffffffffffffffffffffffffffffff1673ffffffffffffffffffffffffffffffffffffffff167fdccf2f8b2cc26eafcd61905cba744cff4b81d14740725f6376390dc6298a6a3c3384604051808373ffffffffffffffffffffffffffffffffffffffff1673ffffffffffffffffffffffffffffffffffffffff16815260200180602001828103825283818151815260200191508051906020019080838360005b838110156112ab578082015181840152602081019050611290565b50505050905090810190601f1680156112d85780820380516001836020036101000a031916815260200191505b50935050505060405180910390a350565b6112f3828261164e565b600160ff1681141561135e57600360009054906101000a900473ffffffffffffffffffffffffffffffffffffffff1673ffffffffffffffffffffffffffffffffffffffff166108fc600a549081150290604051600060405180830381858888f19350505050506113c6565b600260ff168114156113c557600460009054906101000a900473ffffffffffffffffffffffffffffffffffffffff1673ffffffffffffffffffffffffffffffffffffffff166108fc600a549081150290604051600060405180830381858888f19350505050505b5b6000600a819055505050565b6003600960006101000a81548160ff021916908360048111156113f157fe5b02179055506000809054906101000a900473ffffffffffffffffffffffffffffffffffffffff1673ffffffffffffffffffffffffffffffffffffffff1663c13517e182600260016000604051602001526040518463ffffffff167c0100000000000000000000000000000000000000000000000000000000028152600401808360ff168152602001806020018281038252838181546001816001161561010002031660029004815260200191508054600181600116156101000203166002900480156114fe5780601f106114d3576101008083540402835291602001916114fe565b820191906000526020600020905b8154815290600101906020018083116114e157829003601f168201915b505093505050506020604051808303818588803b151561151d57600080fd5b6125ee5a03f1151561152e57600080fd5b50505050604051805190506008819055506008546000809054906101000a900473ffffffffffffffffffffffffffffffffffffffff1673ffffffffffffffffffffffffffffffffffffffff167f775071bee3f2d409883bcb9dfcef6befa9343668ab341f76fcc5817b52a126116040805190810160405280601981526020017f506172747920412077696e733b506172747920422077696e73000000000000008152506040518080602001828103825283818151815260200191508051906020019080838360005b838110156116115780820151818401526020810190506115f6565b50505050905090810190601f16801561163e5780820380516001836020036101000a031916815260200191505b509250505060405180910390a350565b6008548214151561165e57600080fd5b600260ff16811115151561167157600080fd5b600160ff168114156116f057600360009054906101000a900473ffffffffffffffffffffffffffffffffffffffff1673ffffffffffffffffffffffffffffffffffffffff166108fc600654600554116116cc576006546116d0565b6005545b9081150290604051600060405180830381858888f193505050505061176c565b600260ff1681141561176b57600460009054906101000a900473ffffffffffffffffffffffffffffffffffffffff1673ffffffffffffffffffffffffffffffffffffffff166108fc6006546005541161174b5760065461174f565b6005545b9081150290604051600060405180830381858888f19350505050505b5b6004600960006101000a81548160ff0219169083600481111561178b57fe5b021790555050505600a165627a7a7230582043edafc8e3c4492936523cf10f758c99a90d1442cb8b8f3c54be87c27e3c09e10029",
  "source": "/**\r\n *  @title Arbitrable Transaction\r\n *  @author Clément Lesaege - <clement@lesaege.com>\r\n *  Bug Bounties: This code hasn't undertaken a bug bounty program yet.\r\n */\r\n\r\n\r\npragma solidity ^0.4.15;\r\nimport \"./TwoPartyArbitrable.sol\";\r\n\r\n/** @title Arbitrable Transaction\r\n *  This is a a contract for an arbitrated transaction which can be reversed by the arbitrator.\r\n *  This can be used for buying goods, services and for paying freelancers.\r\n *  Party A is the payer. Party B is the payee.\r\n */\r\n contract ArbitrableTransaction is TwoPartyArbitrable {\r\n    string constant RULING_OPTIONS = \"Reimburse partyA;Pay partyB\";\r\n    \r\n    uint public amount; // Amount sent by party A.\r\n    \r\n    \r\n    /** @dev Constructor. Choose the arbitrator. Should be called by party A (the payer).\r\n     *  @param _arbitrator The arbitrator of the contract.\r\n     *  @param _hashContract Keccak hash of the plain English contract.\r\n     *  @param _timeout Time after which a party automatically loose a dispute.\r\n     *  @param _partyB The recipient of the transaction.\r\n     *  @param _arbitratorExtraData Extra data for the arbitrator.\r\n     */\r\n    function ArbitrableTransaction(Arbitrator _arbitrator, bytes32 _hashContract, uint _timeout, address _partyB, bytes _arbitratorExtraData) TwoPartyArbitrable(_arbitrator,_hashContract,_timeout,_partyB,_arbitratorExtraData) payable {\r\n        amount+=msg.value;\r\n    }\r\n\r\n    /** @dev Pay the party B. To be called when the good is delivered or the service rendered.\r\n     */\r\n    function pay() onlyPartyA {\r\n        partyB.transfer(amount);\r\n        amount=0;\r\n    }\r\n    \r\n    /** @dev Reimburse party A. To be called if the good or service can't be fully provided.\r\n     *  @param _amountReimbursed Amount to reimburse in wei.\r\n     */\r\n    function reimburse(uint _amountReimbursed) onlyPartyB {\r\n        require(_amountReimbursed<=amount);\r\n        partyA.transfer(_amountReimbursed);\r\n        amount-=_amountReimbursed;\r\n    }\r\n    \r\n    /** @dev Execute a ruling of a dispute. It reimburse the fee to the winning party.\r\n     *  This need to be extended by contract inheriting from it.\r\n     *  @param _disputeID ID of the dispute in the Arbitrator contract.\r\n     *  @param _ruling Ruling given by the arbitrator. 1 : Reimburse the partyA. 2 : Pay the partyB.\r\n     */\r\n    function executeRuling(uint _disputeID, uint _ruling) internal {\r\n        super.executeRuling(_disputeID,_ruling);\r\n        if (_ruling==PARTY_A_WINS)\r\n            partyA.send(amount);\r\n        else if (_ruling==PARTY_B_WINS)\r\n            partyB.send(amount);\r\n            \r\n        amount=0;\r\n    }\r\n    \r\n    \r\n }\r\n \r\n",
  "sourcePath": "kleros-interaction/contracts/standard/arbitration/ArbitrableTransaction.sol",
  "compiler": {
    "name": "solc",
    "version": "0.4.19+commit.c4cbbb05.Emscripten.clang"
  },
  "schemaVersion": "2.0.0",
  "updatedAt": "2018-04-07T18:47:04.170Z"
}