{
  "contractName": "ConstantNG",
  "abi": [
    {
      "constant": true,
      "inputs": [
        {
          "name": "_block",
          "type": "uint256"
        }
      ],
      "name": "getUncorrelatedRN",
      "outputs": [
        {
          "name": "RN",
          "type": "uint256"
        }
      ],
      "payable": false,
      "stateMutability": "view",
      "type": "function"
    },
    {
      "constant": false,
      "inputs": [
        {
          "name": "_block",
          "type": "uint256"
        }
      ],
      "name": "requestRN",
      "outputs": [],
      "payable": true,
      "stateMutability": "payable",
      "type": "function"
    },
    {
      "constant": true,
      "inputs": [],
      "name": "number",
      "outputs": [
        {
          "name": "",
          "type": "uint256"
        }
      ],
      "payable": false,
      "stateMutability": "view",
      "type": "function"
    },
    {
      "inputs": [
        {
          "name": "_number",
          "type": "uint256"
        }
      ],
      "payable": false,
      "stateMutability": "nonpayable",
      "type": "constructor"
    },
    {
      "constant": false,
      "inputs": [
        {
          "name": "_block",
          "type": "uint256"
        }
      ],
      "name": "contribute",
      "outputs": [],
      "payable": true,
      "stateMutability": "payable",
      "type": "function"
    },
    {
      "constant": true,
      "inputs": [
        {
          "name": "_block",
          "type": "uint256"
        }
      ],
      "name": "getRN",
      "outputs": [
        {
          "name": "RN",
          "type": "uint256"
        }
      ],
      "payable": false,
      "stateMutability": "view",
      "type": "function"
    }
  ],
  "bytecode": "0x6060604052341561000f57600080fd5b60405160208061024d83398101604052808051906020019091905050806000819055505061020b806100426000396000f30060606040526004361061006d576000357c0100000000000000000000000000000000000000000000000000000000900463ffffffff1680631c73601e146100725780637b9c34e0146100a95780638381f58a146100c1578063c1cbbca7146100ea578063ca4742f114610102575b600080fd5b341561007d57600080fd5b6100936004808035906020019091905050610139565b6040518082815260200191505060405180910390f35b6100bf60048080359060200190919050506101bf565b005b34156100cc57600080fd5b6100d46101cb565b6040518082815260200191505060405180910390f35b61010060048080359060200190919050506101d1565b005b341561010d57600080fd5b61012360048080359060200190919050506101d4565b6040518082815260200191505060405180910390f35b600080610145836101d4565b9050600081141561015957600091506101b9565b3381604051808373ffffffffffffffffffffffffffffffffffffffff1673ffffffffffffffffffffffffffffffffffffffff166c010000000000000000000000000281526014018281526020019250505060405180910390206001900491505b50919050565b6101c8816101d1565b50565b60005481565b50565b6000805490509190505600a165627a7a72305820c4e3826d8757f1379e035300b4c769adbbbd4323188c211755d322d9c7c54f130029",
  "source": "/**\r\n *  @title Constant Number Generator\r\n *  @author Clément Lesaege - <clement@lesaege.com>\r\n *  @dev A Random Number Generator which always return the same number. Usefull in order to make tests.\r\n */\r\n\r\nimport \"./RNG.sol\";\r\n\r\npragma solidity ^0.4.15;\r\n\r\n contract ConstantNG is RNG{\r\n\r\n    uint public number;\r\n\r\n    /** @dev Constructor.\r\n     *  @param _number The number to always return.\r\n     */\r\n    function ConstantNG(uint _number) public {\r\n        number = _number;\r\n    }\r\n\r\n    /** @dev Contribute to the reward of a random number. All the ETH will be lost forever.\r\n     *  @param _block Block the random number is linked to.\r\n     */\r\n    function contribute(uint _block) public payable {}\r\n\r\n\r\n    /** @dev Get the \"random number\" (which is always the same).\r\n     *  @param _block Block the random number is linked to.\r\n     *  @return RN Random Number. If the number is not ready or has not been required 0 instead.\r\n     */\r\n    function getRN(uint _block) public constant returns (uint RN) {\r\n        return number;\r\n    }\r\n\r\n\r\n }\r\n",
  "sourcePath": "kleros-interaction/contracts/standard/rng/ConstantNG.sol",
  "compiler": {
    "name": "solc",
    "version": "0.4.19+commit.c4cbbb05.Emscripten.clang"
  },
  "schemaVersion": "2.0.0",
  "updatedAt": "2018-04-07T18:56:31.860Z"
}