{
  "contractName": "KlerosPOCCourt",
  "abi": [
    {
      "constant": true,
      "inputs": [],
      "name": "lastPeriodChange",
      "outputs": [
        {
          "name": "",
          "type": "uint256"
        }
      ],
      "payable": false,
      "stateMutability": "view",
      "type": "function"
    },
    {
      "constant": true,
      "inputs": [
        {
          "name": "_disputeID",
          "type": "uint256"
        }
      ],
      "name": "disputeStatus",
      "outputs": [
        {
          "name": "status",
          "type": "uint8"
        }
      ],
      "payable": false,
      "stateMutability": "view",
      "type": "function"
    },
    {
      "constant": true,
      "inputs": [
        {
          "name": "_disputeID",
          "type": "uint256"
        }
      ],
      "name": "currentRuling",
      "outputs": [
        {
          "name": "ruling",
          "type": "uint256"
        }
      ],
      "payable": false,
      "stateMutability": "view",
      "type": "function"
    },
    {
      "constant": true,
      "inputs": [],
      "name": "rnBlock",
      "outputs": [
        {
          "name": "",
          "type": "uint256"
        }
      ],
      "payable": false,
      "stateMutability": "view",
      "type": "function"
    },
    {
      "constant": false,
      "inputs": [
        {
          "name": "_value",
          "type": "uint256"
        }
      ],
      "name": "activateTokens",
      "outputs": [],
      "payable": false,
      "stateMutability": "nonpayable",
      "type": "function"
    },
    {
      "constant": true,
      "inputs": [
        {
          "name": "_disputeID",
          "type": "uint256"
        }
      ],
      "name": "amountJurors",
      "outputs": [
        {
          "name": "nbJurors",
          "type": "uint256"
        }
      ],
      "payable": false,
      "stateMutability": "view",
      "type": "function"
    },
    {
      "constant": false,
      "inputs": [
        {
          "name": "_value",
          "type": "uint256"
        }
      ],
      "name": "withdraw",
      "outputs": [],
      "payable": false,
      "stateMutability": "nonpayable",
      "type": "function"
    },
    {
      "constant": true,
      "inputs": [],
      "name": "segmentSize",
      "outputs": [
        {
          "name": "",
          "type": "uint256"
        }
      ],
      "payable": false,
      "stateMutability": "view",
      "type": "function"
    },
    {
      "constant": false,
      "inputs": [
        {
          "name": "_disputeID",
          "type": "uint256"
        },
        {
          "name": "_ruling",
          "type": "uint256"
        },
        {
          "name": "_draws",
          "type": "uint256[]"
        }
      ],
      "name": "voteRuling",
      "outputs": [],
      "payable": false,
      "stateMutability": "nonpayable",
      "type": "function"
    },
    {
      "constant": false,
      "inputs": [
        {
          "name": "_from",
          "type": "address"
        },
        {
          "name": "_to",
          "type": "address"
        },
        {
          "name": "_amount",
          "type": "uint256"
        }
      ],
      "name": "onTransfer",
      "outputs": [
        {
          "name": "",
          "type": "bool"
        }
      ],
      "payable": false,
      "stateMutability": "nonpayable",
      "type": "function"
    },
    {
      "constant": true,
      "inputs": [
        {
          "name": "",
          "type": "uint256"
        }
      ],
      "name": "disputes",
      "outputs": [
        {
          "name": "arbitrated",
          "type": "address"
        },
        {
          "name": "session",
          "type": "uint256"
        },
        {
          "name": "appeals",
          "type": "uint256"
        },
        {
          "name": "choices",
          "type": "uint256"
        },
        {
          "name": "initialNumberJurors",
          "type": "uint16"
        },
        {
          "name": "arbitrationFeePerJuror",
          "type": "uint256"
        },
        {
          "name": "state",
          "type": "uint8"
        },
        {
          "name": "currentAppealToRepartition",
          "type": "uint256"
        }
      ],
      "payable": false,
      "stateMutability": "view",
      "type": "function"
    },
    {
      "constant": true,
      "inputs": [],
      "name": "session",
      "outputs": [
        {
          "name": "",
          "type": "uint256"
        }
      ],
      "payable": false,
      "stateMutability": "view",
      "type": "function"
    },
    {
      "constant": false,
      "inputs": [
        {
          "name": "_nextParentName",
          "type": "string"
        },
        {
          "name": "_nextParentAddress",
          "type": "address"
        }
      ],
      "name": "setParent",
      "outputs": [],
      "payable": false,
      "stateMutability": "nonpayable",
      "type": "function"
    },
    {
      "constant": true,
      "inputs": [
        {
          "name": "_disputeID",
          "type": "uint256"
        },
        {
          "name": "_appeals",
          "type": "uint256"
        },
        {
          "name": "_choice",
          "type": "uint256"
        }
      ],
      "name": "getVoteCount",
      "outputs": [
        {
          "name": "voteCount",
          "type": "uint256"
        }
      ],
      "payable": false,
      "stateMutability": "view",
      "type": "function"
    },
    {
      "constant": true,
      "inputs": [
        {
          "name": "_disputeID",
          "type": "uint256"
        },
        {
          "name": "_juror",
          "type": "address"
        },
        {
          "name": "_draw",
          "type": "uint256"
        }
      ],
      "name": "isDrawn",
      "outputs": [
        {
          "name": "drawn",
          "type": "bool"
        }
      ],
      "payable": false,
      "stateMutability": "view",
      "type": "function"
    },
    {
      "constant": false,
      "inputs": [
        {
          "name": "_subCourtName",
          "type": "string"
        },
        {
          "name": "_subCourtAddress",
          "type": "address"
        }
      ],
      "name": "addSubCourt",
      "outputs": [],
      "payable": false,
      "stateMutability": "nonpayable",
      "type": "function"
    },
    {
      "constant": true,
      "inputs": [
        {
          "name": "_disputeID",
          "type": "uint256"
        },
        {
          "name": "_appeals",
          "type": "uint256"
        },
        {
          "name": "_voteID",
          "type": "uint256"
        }
      ],
      "name": "getVoteAccount",
      "outputs": [
        {
          "name": "account",
          "type": "address"
        }
      ],
      "payable": false,
      "stateMutability": "view",
      "type": "function"
    },
    {
      "constant": false,
      "inputs": [
        {
          "name": "disputeID",
          "type": "uint256"
        }
      ],
      "name": "executeRuling",
      "outputs": [],
      "payable": false,
      "stateMutability": "nonpayable",
      "type": "function"
    },
    {
      "constant": true,
      "inputs": [],
      "name": "owner",
      "outputs": [
        {
          "name": "",
          "type": "address"
        }
      ],
      "payable": false,
      "stateMutability": "view",
      "type": "function"
    },
    {
      "constant": false,
      "inputs": [
        {
          "name": "_from",
          "type": "address"
        },
        {
          "name": "_value",
          "type": "uint256"
        },
        {
          "name": "",
          "type": "address"
        },
        {
          "name": "",
          "type": "bytes"
        }
      ],
      "name": "receiveApproval",
      "outputs": [],
      "payable": false,
      "stateMutability": "nonpayable",
      "type": "function"
    },
    {
      "constant": false,
      "inputs": [
        {
          "name": "_disputeId",
          "type": "uint256"
        },
        {
          "name": "_maxIterations",
          "type": "uint256"
        }
      ],
      "name": "multipleShotTokenRepartition",
      "outputs": [],
      "payable": false,
      "stateMutability": "nonpayable",
      "type": "function"
    },
    {
      "constant": true,
      "inputs": [],
      "name": "arbitrationFeePerJuror",
      "outputs": [
        {
          "name": "",
          "type": "uint256"
        }
      ],
      "payable": false,
      "stateMutability": "view",
      "type": "function"
    },
    {
      "constant": false,
      "inputs": [],
      "name": "buyPinakion",
      "outputs": [],
      "payable": true,
      "stateMutability": "payable",
      "type": "function"
    },
    {
      "constant": true,
      "inputs": [],
      "name": "defaultNumberJuror",
      "outputs": [
        {
          "name": "",
          "type": "uint16"
        }
      ],
      "payable": false,
      "stateMutability": "view",
      "type": "function"
    },
    {
      "constant": false,
      "inputs": [],
      "name": "passPeriod",
      "outputs": [],
      "payable": false,
      "stateMutability": "nonpayable",
      "type": "function"
    },
    {
      "constant": true,
      "inputs": [
        {
          "name": "_disputeID",
          "type": "uint256"
        },
        {
          "name": "_appeals",
          "type": "uint256"
        },
        {
          "name": "_voteID",
          "type": "uint256"
        }
      ],
      "name": "getVoteRuling",
      "outputs": [
        {
          "name": "ruling",
          "type": "uint256"
        }
      ],
      "payable": false,
      "stateMutability": "view",
      "type": "function"
    },
    {
      "constant": true,
      "inputs": [
        {
          "name": "_disputeID",
          "type": "uint256"
        },
        {
          "name": "_juror",
          "type": "address"
        }
      ],
      "name": "getLastSessionVote",
      "outputs": [
        {
          "name": "lastSessionVote",
          "type": "uint256"
        }
      ],
      "payable": false,
      "stateMutability": "view",
      "type": "function"
    },
    {
      "constant": true,
      "inputs": [
        {
          "name": "",
          "type": "uint256"
        }
      ],
      "name": "timePerPeriod",
      "outputs": [
        {
          "name": "",
          "type": "uint256"
        }
      ],
      "payable": false,
      "stateMutability": "view",
      "type": "function"
    },
    {
      "constant": false,
      "inputs": [
        {
          "name": "_choices",
          "type": "uint256"
        },
        {
          "name": "_extraData",
          "type": "bytes"
        }
      ],
      "name": "createDispute",
      "outputs": [
        {
          "name": "disputeID",
          "type": "uint256"
        }
      ],
      "payable": true,
      "stateMutability": "payable",
      "type": "function"
    },
    {
      "constant": false,
      "inputs": [
        {
          "name": "_disputeID",
          "type": "uint256"
        }
      ],
      "name": "oneShotTokenRepartition",
      "outputs": [],
      "payable": false,
      "stateMutability": "nonpayable",
      "type": "function"
    },
    {
      "constant": true,
      "inputs": [
        {
          "name": "_disputeID",
          "type": "uint256"
        },
        {
          "name": "_appeals",
          "type": "uint256"
        }
      ],
      "name": "getWinningChoice",
      "outputs": [
        {
          "name": "winningChoice",
          "type": "uint256"
        }
      ],
      "payable": false,
      "stateMutability": "view",
      "type": "function"
    },
    {
      "constant": true,
      "inputs": [],
      "name": "randomNumber",
      "outputs": [
        {
          "name": "",
          "type": "uint256"
        }
      ],
      "payable": false,
      "stateMutability": "view",
      "type": "function"
    },
    {
      "constant": false,
      "inputs": [
        {
          "name": "_subCourtIndex",
          "type": "uint256"
        }
      ],
      "name": "removeSubCourt",
      "outputs": [],
      "payable": false,
      "stateMutability": "nonpayable",
      "type": "function"
    },
    {
      "constant": true,
      "inputs": [],
      "name": "rng",
      "outputs": [
        {
          "name": "",
          "type": "address"
        }
      ],
      "payable": false,
      "stateMutability": "view",
      "type": "function"
    },
    {
      "constant": false,
      "inputs": [
        {
          "name": "_owner",
          "type": "address"
        },
        {
          "name": "_spender",
          "type": "address"
        },
        {
          "name": "_amount",
          "type": "uint256"
        }
      ],
      "name": "onApprove",
      "outputs": [
        {
          "name": "",
          "type": "bool"
        }
      ],
      "payable": false,
      "stateMutability": "nonpayable",
      "type": "function"
    },
    {
      "constant": true,
      "inputs": [],
      "name": "alpha",
      "outputs": [
        {
          "name": "",
          "type": "uint256"
        }
      ],
      "payable": false,
      "stateMutability": "view",
      "type": "function"
    },
    {
      "constant": true,
      "inputs": [
        {
          "name": "",
          "type": "address"
        }
      ],
      "name": "jurors",
      "outputs": [
        {
          "name": "balance",
          "type": "uint256"
        },
        {
          "name": "atStake",
          "type": "uint256"
        },
        {
          "name": "lastSession",
          "type": "uint256"
        },
        {
          "name": "segmentStart",
          "type": "uint256"
        },
        {
          "name": "segmentEnd",
          "type": "uint256"
        }
      ],
      "payable": false,
      "stateMutability": "view",
      "type": "function"
    },
    {
      "constant": true,
      "inputs": [
        {
          "name": "_disputeID",
          "type": "uint256"
        },
        {
          "name": "_appeals",
          "type": "uint256"
        }
      ],
      "name": "getWinningCount",
      "outputs": [
        {
          "name": "winningCount",
          "type": "uint256"
        }
      ],
      "payable": false,
      "stateMutability": "view",
      "type": "function"
    },
    {
      "constant": true,
      "inputs": [],
      "name": "getStakePerDraw",
      "outputs": [
        {
          "name": "minActivatedTokenInAlpha",
          "type": "uint256"
        }
      ],
      "payable": false,
      "stateMutability": "view",
      "type": "function"
    },
    {
      "constant": true,
      "inputs": [],
      "name": "period",
      "outputs": [
        {
          "name": "",
          "type": "uint8"
        }
      ],
      "payable": false,
      "stateMutability": "view",
      "type": "function"
    },
    {
      "constant": false,
      "inputs": [
        {
          "name": "_owner",
          "type": "address"
        }
      ],
      "name": "proxyPayment",
      "outputs": [
        {
          "name": "",
          "type": "bool"
        }
      ],
      "payable": true,
      "stateMutability": "payable",
      "type": "function"
    },
    {
      "constant": false,
      "inputs": [
        {
          "name": "_jurorAddress",
          "type": "address"
        },
        {
          "name": "_disputeID",
          "type": "uint256"
        },
        {
          "name": "_draws",
          "type": "uint256[]"
        }
      ],
      "name": "penalizeInactiveJuror",
      "outputs": [],
      "payable": false,
      "stateMutability": "nonpayable",
      "type": "function"
    },
    {
      "constant": true,
      "inputs": [
        {
          "name": "_extraData",
          "type": "bytes"
        }
      ],
      "name": "arbitrationCost",
      "outputs": [
        {
          "name": "fee",
          "type": "uint256"
        }
      ],
      "payable": false,
      "stateMutability": "view",
      "type": "function"
    },
    {
      "constant": true,
      "inputs": [],
      "name": "minActivatedToken",
      "outputs": [
        {
          "name": "",
          "type": "uint256"
        }
      ],
      "payable": false,
      "stateMutability": "view",
      "type": "function"
    },
    {
      "constant": true,
      "inputs": [],
      "name": "pinakion",
      "outputs": [
        {
          "name": "",
          "type": "address"
        }
      ],
      "payable": false,
      "stateMutability": "view",
      "type": "function"
    },
    {
      "constant": true,
      "inputs": [
        {
          "name": "_jurorAddress",
          "type": "address"
        },
        {
          "name": "_disputeID",
          "type": "uint256"
        },
        {
          "name": "_draws",
          "type": "uint256[]"
        }
      ],
      "name": "validDraws",
      "outputs": [
        {
          "name": "valid",
          "type": "bool"
        }
      ],
      "payable": false,
      "stateMutability": "view",
      "type": "function"
    },
    {
      "inputs": [
        {
          "name": "_parentName",
          "type": "string"
        },
        {
          "name": "_parentAddress",
          "type": "address"
        },
        {
          "name": "_pinakion",
          "type": "address"
        },
        {
          "name": "_rng",
          "type": "address"
        },
        {
          "name": "_timePerPeriod",
          "type": "uint256[5]"
        }
      ],
      "payable": false,
      "stateMutability": "nonpayable",
      "type": "constructor"
    },
    {
      "anonymous": false,
      "inputs": [
        {
          "indexed": false,
          "name": "_period",
          "type": "uint8"
        },
        {
          "indexed": true,
          "name": "_session",
          "type": "uint256"
        }
      ],
      "name": "NewPeriod",
      "type": "event"
    },
    {
      "anonymous": false,
      "inputs": [
        {
          "indexed": true,
          "name": "_account",
          "type": "address"
        },
        {
          "indexed": false,
          "name": "_disputeID",
          "type": "uint256"
        },
        {
          "indexed": false,
          "name": "_amount",
          "type": "int256"
        }
      ],
      "name": "TokenShift",
      "type": "event"
    },
    {
      "anonymous": false,
      "inputs": [
        {
          "indexed": true,
          "name": "_account",
          "type": "address"
        },
        {
          "indexed": false,
          "name": "_disputeID",
          "type": "uint256"
        },
        {
          "indexed": false,
          "name": "_amount",
          "type": "uint256"
        }
      ],
      "name": "ArbitrationReward",
      "type": "event"
    },
    {
      "anonymous": false,
      "inputs": [
        {
          "indexed": false,
          "name": "_prevParentName",
          "type": "string"
        },
        {
          "indexed": false,
          "name": "_prevParentAddress",
          "type": "address"
        },
        {
          "indexed": false,
          "name": "_nextParentName",
          "type": "string"
        },
        {
          "indexed": false,
          "name": "_nextParentAddress",
          "type": "address"
        }
      ],
      "name": "OnParentChange",
      "type": "event"
    },
    {
      "anonymous": false,
      "inputs": [
        {
          "indexed": false,
          "name": "_subCourtIndex",
          "type": "uint256"
        },
        {
          "indexed": false,
          "name": "_subCourtName",
          "type": "string"
        },
        {
          "indexed": false,
          "name": "_subCourtAddress",
          "type": "address"
        }
      ],
      "name": "OnSubCourtAdd",
      "type": "event"
    },
    {
      "anonymous": false,
      "inputs": [
        {
          "indexed": false,
          "name": "_subCourtIndex",
          "type": "uint256"
        },
        {
          "indexed": false,
          "name": "_subCourtName",
          "type": "string"
        },
        {
          "indexed": false,
          "name": "_subCourtAddress",
          "type": "address"
        }
      ],
      "name": "OnSubCourtRemove",
      "type": "event"
    },
    {
      "anonymous": false,
      "inputs": [
        {
          "indexed": false,
          "name": "_disputeID",
          "type": "uint256"
        }
      ],
      "name": "AppealPossible",
      "type": "event"
    },
    {
      "anonymous": false,
      "inputs": [
        {
          "indexed": true,
          "name": "_disputeID",
          "type": "uint256"
        },
        {
          "indexed": false,
          "name": "_arbitrable",
          "type": "address"
        }
      ],
      "name": "DisputeCreation",
      "type": "event"
    },
    {
      "anonymous": false,
      "inputs": [
        {
          "indexed": true,
          "name": "_disputeID",
          "type": "uint256"
        },
        {
          "indexed": false,
          "name": "_arbitrable",
          "type": "address"
        }
      ],
      "name": "AppealDecision",
      "type": "event"
    },
    {
      "constant": false,
      "inputs": [
        {
          "name": "_disputeID",
          "type": "uint256"
        },
        {
          "name": "_extraData",
          "type": "bytes"
        }
      ],
      "name": "appeal",
      "outputs": [],
      "payable": true,
      "stateMutability": "payable",
      "type": "function"
    },
    {
      "constant": true,
      "inputs": [
        {
          "name": "_disputeID",
          "type": "uint256"
        },
        {
          "name": "_extraData",
          "type": "bytes"
        }
      ],
      "name": "appealCost",
      "outputs": [
        {
          "name": "_fee",
          "type": "uint256"
        }
      ],
      "payable": false,
      "stateMutability": "view",
      "type": "function"
    }
  ],
  "bytecode": "0x6080604052336000806101000a81548173ffffffffffffffffffffffffffffffffffffffff021916908373ffffffffffffffffffffffffffffffffffffffff16021790555066b1a2bc2ec500006007556003600860006101000a81548161ffff021916908361ffff16021790555067016345785d8a00006009556107d0600f5560016010553480156200009157600080fd5b506040516200564e3803806200564e833981018060405281019080805182019291906020018051906020019092919080519060200190929190805190602001909291909190505082828282828260018b8b8260018190555060408051908101604052808381526020018273ffffffffffffffffffffffffffffffffffffffff16815250600260008201518160000190805190602001906200013492919062000230565b5060208201518160010160006101000a81548173ffffffffffffffffffffffffffffffffffffffff021916908373ffffffffffffffffffffffffffffffffffffffff16021790555090505050505082600560006101000a81548173ffffffffffffffffffffffffffffffffffffffff021916908373ffffffffffffffffffffffffffffffffffffffff16021790555081600660006101000a81548173ffffffffffffffffffffffffffffffffffffffff021916908373ffffffffffffffffffffffffffffffffffffffff1602179055504260118190555080600a9060056200021e929190620002b7565b50505050505050505050505062000324565b828054600181600116156101000203166002900490600052602060002090601f016020900481019282601f106200027357805160ff1916838001178555620002a4565b82800160010185558215620002a4579182015b82811115620002a357825182559160200191906001019062000286565b5b509050620002b39190620002fc565b5090565b8260058101928215620002e9579160200282015b82811115620002e8578251825591602001919060010190620002cb565b5b509050620002f89190620002fc565b5090565b6200032191905b808211156200031d57600081600090555060010162000303565b5090565b90565b61531a80620003346000396000f300608060405260043610610246576000357c0100000000000000000000000000000000000000000000000000000000900463ffffffff16806302d2f3491461024b57806310f169e8146102765780631c3db16d146102c557806328764b441461030657806329c8d3ce146103315780632dd403011461035e5780632e1a7d4d1461039f5780633cec9309146103cc5780633f58f8c0146103f757806349912f88146104715780634a393149146104d7578063564a565d1461055c5780635e3568b8146106105780636b04b0ee1461063b5780636c9732481461069657806370d17adb146106eb5780637e47b86a1461075a57806382495626146107b55780638bb04875146108365780638da5cb5b146108635780638f4ffcb1146108ba5780639313919a1461096d578063a10e6d28146109a4578063a9ed83cc146109cf578063ac74bcde146109d9578063b241ff0314610a0c578063b3c7618e14610a23578063b5040f0a14610a78578063baaaaad214610ad9578063c13517e114610b1a578063c15a679114610b94578063c8860f4114610bc1578063ccbac9f514610c0c578063d1ef54ff14610c37578063d605787b14610c64578063da682aeb14610cbb578063db1d0fd514610d40578063dca5f6b014610d6b578063e07a31c714610dde578063e59a29a614610e29578063ef78d4fd14610e54578063f23f16e614610e8d578063f48c305414610f14578063f55ab98714610f62578063f7434ea914610ff2578063f97154581461106f578063fbf405b01461109a578063fe69dacd146110f1575b600080fd5b34801561025757600080fd5b50610260611199565b6040518082815260200191505060405180910390f35b34801561028257600080fd5b506102a16004803603810190808035906020019092919050505061119f565b604051808260028111156102b157fe5b60ff16815260200191505060405180910390f35b3480156102d157600080fd5b506102f0600480360381019080803590602001909291905050506112ad565b6040518082815260200191505060405180910390f35b34801561031257600080fd5b5061031b6112fe565b6040518082815260200191505060405180910390f35b34801561033d57600080fd5b5061035c60048036038101908080359060200190929190505050611304565b005b34801561036a57600080fd5b50610389600480360381019080803590602001909291905050506113ea565b6040518082815260200191505060405180910390f35b3480156103ab57600080fd5b506103ca6004803603810190808035906020019092919050505061143a565b005b3480156103d857600080fd5b506103e16115e3565b6040518082815260200191505060405180910390f35b34801561040357600080fd5b5061046f6004803603810190808035906020019092919080359060200190929190803590602001908201803590602001908080602002602001604051908101604052809392919081815260200183836020028082843782019150505050505091929192905050506115e9565b005b6104d560048036038101908080359060200190929190803590602001908201803590602001908080601f01602080910402602001604051908101604052809392919081815260200183838082843782019150505050505091929192905050506119ca565b005b3480156104e357600080fd5b50610542600480360381019080803573ffffffffffffffffffffffffffffffffffffffff169060200190929190803573ffffffffffffffffffffffffffffffffffffffff16906020019092919080359060200190929190505050611cd0565b604051808215151515815260200191505060405180910390f35b34801561056857600080fd5b5061058760048036038101908080359060200190929190505050611cdd565b604051808973ffffffffffffffffffffffffffffffffffffffff1673ffffffffffffffffffffffffffffffffffffffff1681526020018881526020018781526020018681526020018561ffff1661ffff1681526020018481526020018360038111156105ef57fe5b60ff1681526020018281526020019850505050505050505060405180910390f35b34801561061c57600080fd5b50610625611d6f565b6040518082815260200191505060405180910390f35b34801561064757600080fd5b50610694600480360381019080803590602001908201803590602001919091929391929390803573ffffffffffffffffffffffffffffffffffffffff169060200190929190505050611d75565b005b3480156106a257600080fd5b506106d5600480360381019080803590602001909291908035906020019092919080359060200190929190505050612007565b6040518082815260200191505060405180910390f35b3480156106f757600080fd5b5061074060048036038101908080359060200190929190803573ffffffffffffffffffffffffffffffffffffffff16906020019092919080359060200190929190505050612062565b604051808215151515815260200191505060405180910390f35b34801561076657600080fd5b506107b3600480360381019080803590602001908201803590602001919091929391929390803573ffffffffffffffffffffffffffffffffffffffff1690602001909291905050506121b1565b005b3480156107c157600080fd5b506107f4600480360381019080803590602001909291908035906020019092919080359060200190929190505050612396565b604051808273ffffffffffffffffffffffffffffffffffffffff1673ffffffffffffffffffffffffffffffffffffffff16815260200191505060405180910390f35b34801561084257600080fd5b5061086160048036038101908080359060200190929190505050612417565b005b34801561086f57600080fd5b50610878612571565b604051808273ffffffffffffffffffffffffffffffffffffffff1673ffffffffffffffffffffffffffffffffffffffff16815260200191505060405180910390f35b3480156108c657600080fd5b5061096b600480360381019080803573ffffffffffffffffffffffffffffffffffffffff16906020019092919080359060200190929190803573ffffffffffffffffffffffffffffffffffffffff169060200190929190803590602001908201803590602001908080601f0160208091040260200160405190810160405280939291908181526020018383808284378201915050505050509192919290505050612596565b005b34801561097957600080fd5b506109a26004803603810190808035906020019092919080359060200190929190505050612789565b005b3480156109b057600080fd5b506109b9613292565b6040518082815260200191505060405180910390f35b6109d7613298565b005b3480156109e557600080fd5b506109ee6133f1565b604051808261ffff1661ffff16815260200191505060405180910390f35b348015610a1857600080fd5b50610a21613405565b005b348015610a2f57600080fd5b50610a6260048036038101908080359060200190929190803590602001909291908035906020019092919050505061381a565b6040518082815260200191505060405180910390f35b348015610a8457600080fd5b50610ac360048036038101908080359060200190929190803573ffffffffffffffffffffffffffffffffffffffff16906020019092919050505061387b565b6040518082815260200191505060405180910390f35b348015610ae557600080fd5b50610b04600480360381019080803590602001909291905050506138e3565b6040518082815260200191505060405180910390f35b610b7e60048036038101908080359060200190929190803590602001908201803590602001908080601f01602080910402602001604051908101604052809392919081815260200183838082843782019150505050505091929192905050506138fd565b6040518082815260200191505060405180910390f35b348015610ba057600080fd5b50610bbf60048036038101908080359060200190929190505050613ab9565b005b348015610bcd57600080fd5b50610bf660048036038101908080359060200190929190803590602001909291905050506140c5565b6040518082815260200191505060405180910390f35b348015610c1857600080fd5b50610c2161410e565b6040518082815260200191505060405180910390f35b348015610c4357600080fd5b50610c6260048036038101908080359060200190929190505050614114565b005b348015610c7057600080fd5b50610c796143ec565b604051808273ffffffffffffffffffffffffffffffffffffffff1673ffffffffffffffffffffffffffffffffffffffff16815260200191505060405180910390f35b348015610cc757600080fd5b50610d26600480360381019080803573ffffffffffffffffffffffffffffffffffffffff169060200190929190803573ffffffffffffffffffffffffffffffffffffffff16906020019092919080359060200190929190505050614412565b604051808215151515815260200191505060405180910390f35b348015610d4c57600080fd5b50610d5561441f565b6040518082815260200191505060405180910390f35b348015610d7757600080fd5b50610dac600480360381019080803573ffffffffffffffffffffffffffffffffffffffff169060200190929190505050614425565b604051808681526020018581526020018481526020018381526020018281526020019550505050505060405180910390f35b348015610dea57600080fd5b50610e13600480360381019080803590602001909291908035906020019092919050505061445b565b6040518082815260200191505060405180910390f35b348015610e3557600080fd5b50610e3e6144a4565b6040518082815260200191505060405180910390f35b348015610e6057600080fd5b50610e696144bf565b60405180826004811115610e7957fe5b60ff16815260200191505060405180910390f35b348015610e9957600080fd5b50610efe60048036038101908080359060200190929190803590602001908201803590602001908080601f01602080910402602001604051908101604052809392919081815260200183838082843782019150505050505091929192905050506144d2565b6040518082815260200191505060405180910390f35b610f48600480360381019080803573ffffffffffffffffffffffffffffffffffffffff16906020019092919050505061464c565b604051808215151515815260200191505060405180910390f35b348015610f6e57600080fd5b50610ff0600480360381019080803573ffffffffffffffffffffffffffffffffffffffff1690602001909291908035906020019092919080359060200190820180359060200190808060200260200160405190810160405280939291908181526020018383602002808284378201915050505050509192919290505050614656565b005b348015610ffe57600080fd5b50611059600480360381019080803590602001908201803590602001908080601f0160208091040260200160405190810160405280939291908181526020018383808284378201915050505050509192919290505050614900565b6040518082815260200191505060405180910390f35b34801561107b57600080fd5b5061108461491a565b6040518082815260200191505060405180910390f35b3480156110a657600080fd5b506110af614920565b604051808273ffffffffffffffffffffffffffffffffffffffff1673ffffffffffffffffffffffffffffffffffffffff16815260200191505060405180910390f35b3480156110fd57600080fd5b5061117f600480360381019080803573ffffffffffffffffffffffffffffffffffffffff1690602001909291908035906020019092919080359060200190820180359060200190808060200260200160405190810160405280939291908181526020018383602002808284378201915050505050509192919290505050614946565b604051808215151515815260200191505060405180910390f35b60115481565b6000806017838154811015156111b157fe5b90600052602060002090600c02019050601054816002015482600101540110156111de57600291506112a7565b601054816002015482600101540114156112a257600060038111156111ff57fe5b8160060160009054906101000a900460ff16600381111561121c57fe5b1415611299576003600481111561122f57fe5b601560009054906101000a900460ff16600481111561124a57fe5b101561125957600091506112a7565b6003600481111561126657fe5b601560009054906101000a900460ff16600481111561128157fe5b141561129057600191506112a7565b600291506112a7565b600291506112a7565b600091505b50919050565b6000806017838154811015156112bf57fe5b90600052602060002090600c020190508060080181600201548154811015156112e457fe5b906000526020600020906003020160000154915050919050565b60135481565b60008080600481111561131357fe5b601560009054906101000a900460ff16600481111561132e57fe5b14151561133a57600080fd5b601660003373ffffffffffffffffffffffffffffffffffffffff1673ffffffffffffffffffffffffffffffffffffffff16815260200190815260200160002091508160000154831115151561138e57600080fd5b600954831015151561139f57600080fd5b6010548260020154141515156113b457600080fd5b60105482600201819055506012548260030181905550826012600082825401925050819055506012548260040181905550505050565b6000806017838154811015156113fc57fe5b90600052602060002090600c020190506001816002015460020a60018360040160009054906101000a900461ffff160161ffff160203915050919050565b6000601660003373ffffffffffffffffffffffffffffffffffffffff1673ffffffffffffffffffffffffffffffffffffffff1681526020019081526020016000209050806000015481600101541115151561149457600080fd5b806001015481600001540382111515156114ad57600080fd5b6010548160020154141515156114c257600080fd5b818160000160008282540392505081905550600560009054906101000a900473ffffffffffffffffffffffffffffffffffffffff1673ffffffffffffffffffffffffffffffffffffffff1663a9059cbb33846040518363ffffffff167c0100000000000000000000000000000000000000000000000000000000028152600401808373ffffffffffffffffffffffffffffffffffffffff1673ffffffffffffffffffffffffffffffffffffffff16815260200182815260200192505050602060405180830381600087803b15801561159957600080fd5b505af11580156115ad573d6000803e3d6000fd5b505050506040513d60208110156115c357600080fd5b810190808051906020019092919050505015156115df57600080fd5b5050565b60125481565b600080600080600060028060048111156115ff57fe5b601560009054906101000a900460ff16600481111561161a57fe5b14151561162657600080fd5b60178981548110151561163557fe5b90600052602060002090600c02019550601660003373ffffffffffffffffffffffffffffffffffffffff1673ffffffffffffffffffffffffffffffffffffffff168152602001908152602001600020945085600801866002015481548110151561169b57fe5b906000526020600020906003020193506010548660090160003373ffffffffffffffffffffffffffffffffffffffff1673ffffffffffffffffffffffffffffffffffffffff16815260200190815260200160002054141515156116fd57600080fd5b8560030154881115151561171057600080fd5b61171b338a89614946565b151561172657600080fd5b6010548660090160003373ffffffffffffffffffffffffffffffffffffffff1673ffffffffffffffffffffffffffffffffffffffff1681526020019081526020016000208190555086518460020160008a81526020019081526020016000206000828254019250508190555083600201600089815260200190815260200160002054846001015410156117df5783600201600089815260200190815260200160002054846001018190555087846000018190555061181a565b83600201600089815260200190815260200160002054846001015414801561180957506000875114155b1561181957600084600001819055505b5b600092505b86518310156118fc5785600701866002015481548110151561183d57fe5b9060005260206000200160408051908101604052803373ffffffffffffffffffffffffffffffffffffffff1681526020018a8152509080600181540180825580915050906001820390600052602060002090600202016000909192909190915060008201518160000160006101000a81548173ffffffffffffffffffffffffffffffffffffffff021916908373ffffffffffffffffffffffffffffffffffffffff1602179055506020820151816001015550505082600101925061181f565b6119046144a4565b8751028560010160008282540192505081905550856005015487510291503373ffffffffffffffffffffffffffffffffffffffff166108fc839081150290604051600060405180830381858888f19350505050158015611968573d6000803e3d6000fd5b503373ffffffffffffffffffffffffffffffffffffffff167f6aabe3309b819a2115cccbcff8b8284764a6a4db2ff85b12d8cc696b945192cb8a84604051808381526020018281526020019250505060405180910390a2505050505050505050565b60038060048111156119d857fe5b601560009054906101000a900460ff1660048111156119f357fe5b1415156119ff57600080fd5b600154601784815481101515611a1157fe5b90600052602060002090600c0201600201541015611a3857611a338383614b08565b611ccb565b601054601784815481101515611a4a57fe5b90600052602060002090600c020160020154601785815481101515611a6b57fe5b90600052602060002090600c02016001015401141515611a8a57600080fd5b601783815481101515611a9957fe5b90600052602060002090600c020160020160008154809291906001019190505550601783815481101515611ac957fe5b90600052602060002090600c02016007018054809190600101611aec9190614dd8565b50601783815481101515611afc57fe5b90600052602060002090600c02016008018054809190600101611b1f9190614e04565b506003601784815481101515611b3157fe5b90600052602060002090600c020160060160006101000a81548160ff02191690836003811115611b5d57fe5b0217905550611b6c8383614be2565b600260010160009054906101000a900473ffffffffffffffffffffffffffffffffffffffff1673ffffffffffffffffffffffffffffffffffffffff1663c13517e134601786815481101515611bbd57fe5b90600052602060002090600c020160030154856040518463ffffffff167c01000000000000000000000000000000000000000000000000000000000281526004018083815260200180602001828103825283818151815260200191508051906020019080838360005b83811015611c41578082015181840152602081019050611c26565b50505050905090810190601f168015611c6e5780820380516001836020036101000a031916815260200191505b5093505050506020604051808303818588803b158015611c8d57600080fd5b505af1158015611ca1573d6000803e3d6000fd5b50505050506040513d6020811015611cb857600080fd5b8101908080519060200190929190505050505b505050565b6000600190509392505050565b601781815481101515611cec57fe5b90600052602060002090600c02016000915090508060000160009054906101000a900473ffffffffffffffffffffffffffffffffffffffff16908060010154908060020154908060030154908060040160009054906101000a900461ffff16908060050154908060060160009054906101000a900460ff169080600a0154905088565b60105481565b3373ffffffffffffffffffffffffffffffffffffffff166000809054906101000a900473ffffffffffffffffffffffffffffffffffffffff1673ffffffffffffffffffffffffffffffffffffffff16141515611dd057600080fd5b7fd82bb953d37fa9721011b7852f820c5ac39b918299e361800841613b08b440136002600001600260010160009054906101000a900473ffffffffffffffffffffffffffffffffffffffff1685858560405180806020018673ffffffffffffffffffffffffffffffffffffffff1673ffffffffffffffffffffffffffffffffffffffff168152602001806020018473ffffffffffffffffffffffffffffffffffffffff1673ffffffffffffffffffffffffffffffffffffffff168152602001838103835288818154600181600116156101000203166002900481526020019150805460018160011615610100020316600290048015611f105780601f10611ee557610100808354040283529160200191611f10565b820191906000526020600020905b815481529060010190602001808311611ef357829003601f168201915b50508381038252868682818152602001925080828437820191505097505050505050505060405180910390a1604080519081016040528084848080601f01602080910402602001604051908101604052809392919081815260200183838082843782019150505050505081526020018273ffffffffffffffffffffffffffffffffffffffff1681525060026000820151816000019080519060200190611fb7929190614e36565b5060208201518160010160006101000a81548173ffffffffffffffffffffffffffffffffffffffff021916908373ffffffffffffffffffffffffffffffffffffffff160217905550905050505050565b600060178481548110151561201857fe5b90600052602060002090600c02016008018381548110151561203657fe5b906000526020600020906003020160020160008381526020019081526020016000205490509392505050565b60008060008060178781548110151561207757fe5b90600052602060002090600c02019250601660008773ffffffffffffffffffffffffffffffffffffffff1673ffffffffffffffffffffffffffffffffffffffff168152602001908152602001600020915060105482600201541415806120e95750601054836002015484600101540114155b8061211a5750600160048111156120fc57fe5b601560009054906101000a900460ff16600481111561211757fe5b11155b8061212c5750612129876113ea565b85115b806121375750600085145b8061214457506000601254145b1561215257600093506121a7565b601254601454888760405180848152602001838152602001828152602001935050505060405180910390206001900481151561218a57fe5b069050816003015481101580156121a45750816004015481105b93505b5050509392505050565b60003373ffffffffffffffffffffffffffffffffffffffff166000809054906101000a900473ffffffffffffffffffffffffffffffffffffffff1673ffffffffffffffffffffffffffffffffffffffff1614151561220e57600080fd5b60016004604080519081016040528087878080601f01602080910402602001604051908101604052809392919081815260200183838082843782019150505050505081526020018573ffffffffffffffffffffffffffffffffffffffff168152509080600181540180825580915050906001820390600052602060002090600202016000909192909190915060008201518160000190805190602001906122b6929190614e36565b5060208201518160010160006101000a81548173ffffffffffffffffffffffffffffffffffffffff021916908373ffffffffffffffffffffffffffffffffffffffff16021790555050500390507f2ecb3782c3b30b1acdfc08fbe9b375b49fb2905e8a90377498fa6ec39ed2a2d18185858560405180858152602001806020018373ffffffffffffffffffffffffffffffffffffffff1673ffffffffffffffffffffffffffffffffffffffff168152602001828103825285858281815260200192508082843782019150509550505050505060405180910390a150505050565b60006017848154811015156123a757fe5b90600052602060002090600c0201600701838154811015156123c557fe5b90600052602060002001828154811015156123dc57fe5b906000526020600020906002020160000160009054906101000a900473ffffffffffffffffffffffffffffffffffffffff1690509392505050565b600060178281548110151561242857fe5b90600052602060002090600c020190506002600381111561244557fe5b8160060160009054906101000a900460ff16600381111561246257fe5b14151561246e57600080fd5b60038160060160006101000a81548160ff0219169083600381111561248f57fe5b02179055508060000160009054906101000a900473ffffffffffffffffffffffffffffffffffffffff1673ffffffffffffffffffffffffffffffffffffffff1663311a6c56838360080184600201548154811015156124ea57fe5b9060005260206000209060030201600001546040518363ffffffff167c01000000000000000000000000000000000000000000000000000000000281526004018083815260200182815260200192505050600060405180830381600087803b15801561255557600080fd5b505af1158015612569573d6000803e3d6000fd5b505050505050565b6000809054906101000a900473ffffffffffffffffffffffffffffffffffffffff1681565b600560009054906101000a900473ffffffffffffffffffffffffffffffffffffffff168073ffffffffffffffffffffffffffffffffffffffff163373ffffffffffffffffffffffffffffffffffffffff161415156125f357600080fd5b600560009054906101000a900473ffffffffffffffffffffffffffffffffffffffff1673ffffffffffffffffffffffffffffffffffffffff166323b872dd8630876040518463ffffffff167c0100000000000000000000000000000000000000000000000000000000028152600401808473ffffffffffffffffffffffffffffffffffffffff1673ffffffffffffffffffffffffffffffffffffffff1681526020018373ffffffffffffffffffffffffffffffffffffffff1673ffffffffffffffffffffffffffffffffffffffff1681526020018281526020019350505050602060405180830381600087803b1580156126ec57600080fd5b505af1158015612700573d6000803e3d6000fd5b505050506040513d602081101561271657600080fd5b8101908080519060200190929190505050151561273257600080fd5b83601660008773ffffffffffffffffffffffffffffffffffffffff1673ffffffffffffffffffffffffffffffffffffffff168152602001908152602001600020600001600082825401925050819055505050505050565b60008060008060008060008060008060048060048111156127a657fe5b601560009054906101000a900460ff1660048111156127c157fe5b1415156127cd57600080fd5b60178d8154811015156127dc57fe5b90600052602060002090600c02019a50600160038111156127f957fe5b8b60060160009054906101000a900460ff16600381111561281657fe5b1115151561282357600080fd5b6010548b600201548c60010154011115151561283e57600080fd5b60018b60060160006101000a81548160ff0219169083600381111561285f57fe5b02179055508a6008018b6002015481548110151561287957fe5b90600052602060002090600302016000015499506128956144a4565b9850600097508a600a015496505b8a600201548711151561325c57600187018b600b018054905010156128da578a600b0180548091906001016128d89190614eb6565b505b60008a14801561294757508a6008018b600201548154811015156128fa57fe5b9060005260206000209060030201600101548b6008018c6002015481548110151561292157fe5b906000526020600020906003020160020160008081526020019081526020016000205414155b156129915760028b600b018881548110151561295f57fe5b906000526020600020906006020160050160006101000a81548160ff0219169083600381111561298b57fe5b02179055505b6000600381111561299e57fe5b8b600b01888154811015156129af57fe5b906000526020600020906006020160050160009054906101000a900460ff1660038111156129d957fe5b1415612c77578a600b01878154811015156129f057fe5b90600052602060002090600602016002015495505b8a60070187815481101515612a1657fe5b9060005260206000200180549050861015612c32578b88101515612a3957613283565b8a60070187815481101515612a4a57fe5b9060005260206000200186815481101515612a6157fe5b90600052602060002090600202019450898560010154141515612bc057601660008660000160009054906101000a900473ffffffffffffffffffffffffffffffffffffffff1673ffffffffffffffffffffffffffffffffffffffff1673ffffffffffffffffffffffffffffffffffffffff168152602001908152602001600020935083600001548910612af8578360000154612afa565b885b92508284600001600082825403925050819055508460000160009054906101000a900473ffffffffffffffffffffffffffffffffffffffff1673ffffffffffffffffffffffffffffffffffffffff167f72f86a9d9fab69e4814ca24b54076a6e59b7463230974d7b72bed55777fbcf6c8e85600003604051808381526020018281526020019250505060405180910390a2828b600b0188815481101515612b9d57fe5b906000526020600020906006020160000160008282540192505081905550612bf1565b8a600b0187815481101515612bd157fe5b906000526020600020906006020160010160008154600101919050819055505b8a600b0187815481101515612c0257fe5b90600052602060002090600602016002016000815460010191905081905550876001019750856001019550612a05565b60018b600b0188815481101515612c4557fe5b906000526020600020906006020160050160006101000a81548160ff02191690836003811115612c7157fe5b02179055505b60016003811115612c8457fe5b8b600b0188815481101515612c9557fe5b906000526020600020906006020160050160009054906101000a900460ff166003811115612cbf57fe5b14156130145760008b600b0188815481101515612cd857fe5b9060005260206000209060060201600101541415612dab578a600b0187815481101515612d0157fe5b906000526020600020906006020160000154601660003073ffffffffffffffffffffffffffffffffffffffff1673ffffffffffffffffffffffffffffffffffffffff1681526020019081526020016000206000016000828254019250508190555060028b600b0188815481101515612d7557fe5b906000526020600020906006020160050160006101000a81548160ff02191690836003811115612da157fe5b0217905550613013565b8a600b0187815481101515612dbc57fe5b9060005260206000209060060201600101548b600b0188815481101515612ddf57fe5b906000526020600020906006020160000154811515612dfa57fe5b0491508a600b0187815481101515612e0e57fe5b90600052602060002090600602016003015495505b8a60070187815481101515612e3457fe5b9060005260206000200180549050861015612fce578b88101515612e5757613283565b8a60070187815481101515612e6857fe5b9060005260206000200186815481101515612e7f57fe5b906000526020600020906002020194508985600101541415612f8d57601660008660000160009054906101000a900473ffffffffffffffffffffffffffffffffffffffff1673ffffffffffffffffffffffffffffffffffffffff1673ffffffffffffffffffffffffffffffffffffffff16815260200190815260200160002093508184600001600082825401925050819055508460000160009054906101000a900473ffffffffffffffffffffffffffffffffffffffff1673ffffffffffffffffffffffffffffffffffffffff167f72f86a9d9fab69e4814ca24b54076a6e59b7463230974d7b72bed55777fbcf6c8e84604051808381526020018281526020019250505060405180910390a25b8760010197508a600b0187815481101515612fa457fe5b90600052602060002090600602016003016000815460010191905081905550856001019550612e23565b60028b600b0188815481101515612fe157fe5b906000526020600020906006020160050160006101000a81548160ff0219169083600381111561300d57fe5b02179055505b5b6002600381111561302157fe5b8b600b018881548110151561303257fe5b906000526020600020906006020160050160009054906101000a900460ff16600381111561305c57fe5b14156131f1578a600b018781548110151561307357fe5b90600052602060002090600602016004015495505b8a6007018781548110151561309957fe5b90600052602060002001805490508610156131ac578b881015156130bc57613283565b8a600701878154811015156130cd57fe5b90600052602060002001868154811015156130e457fe5b90600052602060002090600202019450601660008660000160009054906101000a900473ffffffffffffffffffffffffffffffffffffffff1673ffffffffffffffffffffffffffffffffffffffff1673ffffffffffffffffffffffffffffffffffffffff16815260200190815260200160002093508884600101600082825403925050819055508760010197508a600b018781548110151561318257fe5b90600052602060002090600602016004016000815460010191905081905550856001019550613088565b60038b600b01888154811015156131bf57fe5b906000526020600020906006020160050160006101000a81548160ff021916908360038111156131eb57fe5b02179055505b6003808111156131fd57fe5b8b600b018881548110151561320e57fe5b906000526020600020906006020160050160009054906101000a900460ff16600381111561323857fe5b1415613251578a600a0160008154600101919050819055505b8660010196506128a3565b60028b60060160006101000a81548160ff0219169083600381111561327d57fe5b02179055505b50505050505050505050505050565b60075481565b6000601660003373ffffffffffffffffffffffffffffffffffffffff1673ffffffffffffffffffffffffffffffffffffffff1681526020019081526020016000209050348160000160008282540192505081905550600560009054906101000a900473ffffffffffffffffffffffffffffffffffffffff1673ffffffffffffffffffffffffffffffffffffffff1663827f32c030346040518363ffffffff167c0100000000000000000000000000000000000000000000000000000000028152600401808373ffffffffffffffffffffffffffffffffffffffff1673ffffffffffffffffffffffffffffffffffffffff16815260200182815260200192505050602060405180830381600087803b1580156133b257600080fd5b505af11580156133c6573d6000803e3d6000fd5b505050506040513d60208110156133dc57600080fd5b81019080805190602001909291905050505050565b600860009054906101000a900461ffff1681565b600a601560009054906101000a900460ff16600481111561342257fe5b60ff1660058110151561343157fe5b015460115442031015151561344557600080fd5b6000600481111561345257fe5b601560009054906101000a900460ff16600481111561346d57fe5b14156135515760014301601381905550600660009054906101000a900473ffffffffffffffffffffffffffffffffffffffff1673ffffffffffffffffffffffffffffffffffffffff16637b9c34e06013546040518263ffffffff167c010000000000000000000000000000000000000000000000000000000002815260040180828152602001915050600060405180830381600087803b15801561351057600080fd5b505af1158015613524573d6000803e3d6000fd5b505050506001601560006101000a81548160ff0219169083600481111561354757fe5b02179055506137ba565b6001600481111561355e57fe5b601560009054906101000a900460ff16600481111561357957fe5b141561368e57600660009054906101000a900473ffffffffffffffffffffffffffffffffffffffff1673ffffffffffffffffffffffffffffffffffffffff16631c73601e6013546040518263ffffffff167c010000000000000000000000000000000000000000000000000000000002815260040180828152602001915050602060405180830381600087803b15801561361257600080fd5b505af1158015613626573d6000803e3d6000fd5b505050506040513d602081101561363c57600080fd5b810190808051906020019092919050505060148190555060006014541415151561366557600080fd5b6002601560006101000a81548160ff0219169083600481111561368457fe5b02179055506137b9565b6002600481111561369b57fe5b601560009054906101000a900460ff1660048111156136b657fe5b14156136e5576003601560006101000a81548160ff021916908360048111156136db57fe5b02179055506137b8565b600360048111156136f257fe5b601560009054906101000a900460ff16600481111561370d57fe5b141561373c576004601560006101000a81548160ff0219169083600481111561373257fe5b02179055506137b7565b60048081111561374857fe5b601560009054906101000a900460ff16600481111561376357fe5b14156137b6576000601560006101000a81548160ff0219169083600481111561378857fe5b0217905550601060008154600101919050819055506000601281905550600060138190555060006014819055505b5b5b5b5b426011819055506010547f68c618b4722a30adfd435aefec043781d40a8a871689115e91a2257ca097fab5601560009054906101000a900460ff166040518082600481111561380557fe5b60ff16815260200191505060405180910390a2565b600060178481548110151561382b57fe5b90600052602060002090600c02016007018381548110151561384957fe5b906000526020600020018281548110151561386057fe5b90600052602060002090600202016001015490509392505050565b600060178381548110151561388c57fe5b90600052602060002090600c020160090160008373ffffffffffffffffffffffffffffffffffffffff1673ffffffffffffffffffffffffffffffffffffffff16815260200190815260200160002054905092915050565b600a816005811015156138f257fe5b016000915090505481565b600080600061390b84614c66565b915061391684614900565b341015151561392457600080fd5b601780548091906001016139389190614ee8565b925060178381548110151561394957fe5b90600052602060002090600c02019050338160000160006101000a81548173ffffffffffffffffffffffffffffffffffffffff021916908373ffffffffffffffffffffffffffffffffffffffff160217905550600160048111156139a957fe5b601560009054906101000a900460ff1660048111156139c457fe5b10156139da5760105481600101819055506139e9565b60016010540181600101819055505b848160030181905550818160040160006101000a81548161ffff021916908361ffff1602179055506007548160050181905550806007018054809190600101613a329190614dd8565b50806008018054809190600101613a499190614e04565b50827f141dfc18aa6a56fc816f44f0e9e2f1ebc92b15ab167770e17db5b084c10ed99533604051808273ffffffffffffffffffffffffffffffffffffffff1673ffffffffffffffffffffffffffffffffffffffff16815260200191505060405180910390a2829250505092915050565b60008060008060008060008060008060006004806004811115613ad857fe5b601560009054906101000a900460ff166004811115613af357fe5b141515613aff57600080fd5b60178d815481101515613b0e57fe5b90600052602060002090600c02019b5060006003811115613b2b57fe5b8c60060160009054906101000a900460ff166003811115613b4857fe5b141515613b5457600080fd5b6010548c600201548d600101540111151515613b6f57600080fd5b8b6008018c60020154815481101515613b8457fe5b9060005260206000209060030201600001549a50613ba06144a4565b9950600098505b8b60020154891115156140905760008b141580613c2057508b6008018c60020154815481101515613bd457fe5b9060005260206000209060030201600101548c6008018d60020154815481101515613bfb57fe5b9060005260206000209060030201600201600080815260200190815260200160002054145b15613fa0576000975060009650600095505b8b60070189815481101515613c4357fe5b9060005260206000200180549050861015613dc6578b60070189815481101515613c6957fe5b9060005260206000200186815481101515613c8057fe5b906000526020600020906002020194508a8560010154141515613db457601660008660000160009054906101000a900473ffffffffffffffffffffffffffffffffffffffff1673ffffffffffffffffffffffffffffffffffffffff1673ffffffffffffffffffffffffffffffffffffffff168152602001908152602001600020935083600001548a10613d17578360000154613d19565b895b92508284600001600082825403925050819055508460000160009054906101000a900473ffffffffffffffffffffffffffffffffffffffff1673ffffffffffffffffffffffffffffffffffffffff167f72f86a9d9fab69e4814ca24b54076a6e59b7463230974d7b72bed55777fbcf6c8e85600003604051808381526020018281526020019250505060405180910390a28288019750613dbb565b8660010196505b856001019550613c32565b6000871415613e245787601660003073ffffffffffffffffffffffffffffffffffffffff1673ffffffffffffffffffffffffffffffffffffffff16815260200190815260200160002060000160008282540192505081905550613f9f565b8688811515613e2f57fe5b049150600095505b8b60070189815481101515613e4857fe5b9060005260206000200180549050861015613f9e578b60070189815481101515613e6e57fe5b9060005260206000200186815481101515613e8557fe5b906000526020600020906002020194508a85600101541415613f9357601660008660000160009054906101000a900473ffffffffffffffffffffffffffffffffffffffff1673ffffffffffffffffffffffffffffffffffffffff1673ffffffffffffffffffffffffffffffffffffffff16815260200190815260200160002093508184600001600082825401925050819055508460000160009054906101000a900473ffffffffffffffffffffffffffffffffffffffff1673ffffffffffffffffffffffffffffffffffffffff167f72f86a9d9fab69e4814ca24b54076a6e59b7463230974d7b72bed55777fbcf6c8e84604051808381526020018281526020019250505060405180910390a25b856001019550613e37565b5b5b600095505b8b60070189815481101515613fb657fe5b9060005260206000200180549050861015614085578b60070189815481101515613fdc57fe5b9060005260206000200186815481101515613ff357fe5b90600052602060002090600202019450601660008660000160009054906101000a900473ffffffffffffffffffffffffffffffffffffffff1673ffffffffffffffffffffffffffffffffffffffff1673ffffffffffffffffffffffffffffffffffffffff1681526020019081526020016000209350898460010160008282540392505081905550856001019550613fa5565b886001019850613ba7565b60028c60060160006101000a81548160ff021916908360038111156140b157fe5b021790555050505050505050505050505050565b60006017838154811015156140d657fe5b90600052602060002090600c0201600801828154811015156140f457fe5b906000526020600020906003020160000154905092915050565b60145481565b60003373ffffffffffffffffffffffffffffffffffffffff166000809054906101000a900473ffffffffffffffffffffffffffffffffffffffff1673ffffffffffffffffffffffffffffffffffffffff1614151561417157600080fd5b60008210158015614186575060048054905082105b151561419157600080fd5b7f1eb644ddef23fc889c55e711d5575604dec01c96734d958650cae353cb641036826004848154811015156141c257fe5b90600052602060002090600202016000016004858154811015156141e257fe5b906000526020600020906002020160010160009054906101000a900473ffffffffffffffffffffffffffffffffffffffff1660405180848152602001806020018373ffffffffffffffffffffffffffffffffffffffff1673ffffffffffffffffffffffffffffffffffffffff1681526020018281038252848181546001816001161561010002031660029004815260200191508054600181600116156101000203166002900480156142d55780601f106142aa576101008083540402835291602001916142d5565b820191906000526020600020905b8154815290600101906020018083116142b857829003601f168201915b505094505050505060405180910390a18190505b6004805490508110156143d25760046001820181548110151561430857fe5b906000526020600020906002020160048281548110151561432557fe5b90600052602060002090600202016000820181600001908054600181600116156101000203166002900461435a929190614f1a565b506001820160009054906101000a900473ffffffffffffffffffffffffffffffffffffffff168160010160006101000a81548173ffffffffffffffffffffffffffffffffffffffff021916908373ffffffffffffffffffffffffffffffffffffffff16021790555090505080806001019150506142e9565b60048054809190600190036143e79190614fa1565b505050565b600660009054906101000a900473ffffffffffffffffffffffffffffffffffffffff1681565b6000600190509392505050565b600f5481565b60166020528060005260406000206000915090508060000154908060010154908060020154908060030154908060040154905085565b600060178381548110151561446c57fe5b90600052602060002090600c02016008018281548110151561448a57fe5b906000526020600020906003020160010154905092915050565b6000612710600954600f54028115156144b957fe5b04905090565b601560009054906101000a900460ff1681565b60006001546017848154811015156144e657fe5b90600052602060002090600c020160020154101561450f576145088383614d98565b9050614646565b600260010160009054906101000a900473ffffffffffffffffffffffffffffffffffffffff1673ffffffffffffffffffffffffffffffffffffffff1663f7434ea9836040518263ffffffff167c01000000000000000000000000000000000000000000000000000000000281526004018080602001828103825283818151815260200191508051906020019080838360005b838110156145bc5780820151818401526020810190506145a1565b50505050905090810190601f1680156145e95780820380516001836020036101000a031916815260200191505b5092505050602060405180830381600087803b15801561460857600080fd5b505af115801561461c573d6000803e3d6000fd5b505050506040513d602081101561463257600080fd5b810190808051906020019092919050505090505b92915050565b6000809050919050565b600080600060178581548110151561466a57fe5b90600052602060002090600c02019250601660008773ffffffffffffffffffffffffffffffffffffffff1673ffffffffffffffffffffffffffffffffffffffff1681526020019081526020016000209150600260048111156146c857fe5b601560009054906101000a900460ff1660048111156146e357fe5b1115156146ef57600080fd5b6010548360090160008873ffffffffffffffffffffffffffffffffffffffff1673ffffffffffffffffffffffffffffffffffffffff168152602001908152602001600020541415151561474157600080fd5b6010548360090160008873ffffffffffffffffffffffffffffffffffffffff1673ffffffffffffffffffffffffffffffffffffffff16815260200190815260200160002081905550614794868686614946565b151561479f57600080fd5b612710600f54600260095487510202028115156147b857fe5b049050816001015482600001540381106147dc5781600101548260000154036147de565b805b90508082600001600082825403925050819055506002818115156147fe57fe5b04601660003373ffffffffffffffffffffffffffffffffffffffff1673ffffffffffffffffffffffffffffffffffffffff1681526020019081526020016000206000016000828254019250508190555060028181151561485a57fe5b04601660003073ffffffffffffffffffffffffffffffffffffffff1673ffffffffffffffffffffffffffffffffffffffff168152602001908152602001600020600001600082825401925050819055503373ffffffffffffffffffffffffffffffffffffffff166108fc84600501548651029081150290604051600060405180830381858888f193505050501580156148f7573d6000803e3d6000fd5b50505050505050565b600060075461490e83614c66565b61ffff16029050919050565b60095481565b600560009054906101000a900473ffffffffffffffffffffffffffffffffffffffff1681565b6000806000806000806000809550601660008b73ffffffffffffffffffffffffffffffffffffffff1673ffffffffffffffffffffffffffffffffffffffff16815260200190815260200160002094506017898154811015156149a457fe5b90600052602060002090600c020193506149bd896113ea565b925060105485600201541415156149d75760009650614afb565b60105484600201548560010154011415156149f55760009650614afb565b60016004811115614a0257fe5b601560009054906101000a900460ff166004811115614a1d57fe5b111515614a2d5760009650614afb565b5b8751821015614af657858883815181101515614a4657fe5b90602001906020020151111515614a605760009650614afb565b8782815181101515614a6e57fe5b90602001906020020151955082861115614a8b5760009650614afb565b6012546014548a88604051808481526020018381526020018281526020019350505050604051809103902060019004811515614ac357fe5b06905084600301548110151515614ad957600080fd5b846004015481101515614aeb57600080fd5b816001019150614a2e565b600196505b5050505050509392505050565b60006003806004811115614b1857fe5b601560009054906101000a900460ff166004811115614b3357fe5b141515614b3f57600080fd5b614b498484614be2565b601784815481101515614b5857fe5b90600052602060002090600c02019150614b7284846144d2565b3410151515614b8057600080fd5b6010548260020154836001015401141515614b9a57600080fd5b8160020160008154809291906001019190505550816007018054809190600101614bc49190614dd8565b50816008018054809190600101614bdb9190614e04565b5050505050565b8181614bee82826144d2565b3410151515614bfc57600080fd5b837f9c9b64db9e130f48381bf697abf638e73117dbfbfd7a4484f2da3ba188f4187d33604051808273ffffffffffffffffffffffffffffffffffffffff1673ffffffffffffffffffffffffffffffffffffffff16815260200191505060405180910390a250505050565b6000600282511015614c8a57600860009054906101000a900461ffff169050614d93565b816001815181101515614c9957fe5b9060200101517f010000000000000000000000000000000000000000000000000000000000000090047f0100000000000000000000000000000000000000000000000000000000000000027f010000000000000000000000000000000000000000000000000000000000000090046008836000815181101515614d1857fe5b9060200101517f010000000000000000000000000000000000000000000000000000000000000090047f0100000000000000000000000000000000000000000000000000000000000000027f0100000000000000000000000000000000000000000000000000000000000000900461ffff169060020a020190505b919050565b600080601784815481101515614daa57fe5b90600052602060002090600c0201905080600501546001614dca866113ea565b600202010291505092915050565b815481835581811115614dff57818360005260206000209182019101614dfe9190614fd3565b5b505050565b815481835581811115614e3157600302816003028360005260206000209182019101614e309190614fff565b5b505050565b828054600181600116156101000203166002900490600052602060002090601f016020900481019282601f10614e7757805160ff1916838001178555614ea5565b82800160010185558215614ea5579182015b82811115614ea4578251825591602001919060010190614e89565b5b509050614eb2919061502e565b5090565b815481835581811115614ee357600602816006028360005260206000209182019101614ee29190615053565b5b505050565b815481835581811115614f1557600c0281600c028360005260206000209182019101614f1491906150ae565b5b505050565b828054600181600116156101000203166002900490600052602060002090601f016020900481019282601f10614f535780548555614f90565b82800160010185558215614f9057600052602060002091601f016020900482015b82811115614f8f578254825591600101919060010190614f74565b5b509050614f9d919061502e565b5090565b815481835581811115614fce57600202816002028360005260206000209182019101614fcd9190615175565b5b505050565b614ffc91905b80821115614ff85760008181614fef91906151cb565b50600101614fd9565b5090565b90565b61502b91905b8082111561502757600080820160009055600182016000905550600301615005565b5090565b90565b61505091905b8082111561504c576000816000905550600101615034565b5090565b90565b6150ab91905b808211156150a75760008082016000905560018201600090556002820160009055600382016000905560048201600090556005820160006101000a81549060ff021916905550600601615059565b5090565b90565b61517291905b8082111561516e57600080820160006101000a81549073ffffffffffffffffffffffffffffffffffffffff02191690556001820160009055600282016000905560038201600090556004820160006101000a81549061ffff021916905560058201600090556006820160006101000a81549060ff021916905560078201600061513d91906151ef565b60088201600061514d9190615210565b600a820160009055600b820160006151659190615234565b50600c016150b4565b5090565b90565b6151c891905b808211156151c457600080820160006151949190615258565b6001820160006101000a81549073ffffffffffffffffffffffffffffffffffffffff02191690555060020161517b565b5090565b90565b50805460008255600202906000526020600020908101906151ec91906152a0565b50565b508054600082559060005260206000209081019061520d9190614fd3565b50565b50805460008255600302906000526020600020908101906152319190614fff565b50565b50805460008255600602906000526020600020908101906152559190615053565b50565b50805460018160011615610100020316600290046000825580601f1061527e575061529d565b601f01602090049060005260206000209081019061529c919061502e565b5b50565b6152eb91905b808211156152e757600080820160006101000a81549073ffffffffffffffffffffffffffffffffffffffff02191690556001820160009055506002016152a6565b5090565b905600a165627a7a723058200e32b750fc64763aebbf8aa354cf80830729f5eb3a12a8f3b186cf074924cb970029",
  "source": "pragma solidity ^0.4.15;\n\nimport \"kleros-interaction/contracts/standard/arbitration/ArbitratorCourt.sol\";\nimport \"kleros-interaction/contracts/standard/rng/RNG.sol\";\nimport { MiniMeTokenERC20 as Pinakion } from \"kleros-interaction/contracts/standard/arbitration/ArbitrableTokens/MiniMeTokenERC20.sol\";\n\nimport \"./KlerosPOC.sol\";\n\n/**\n *  @title KlerosPOCCourt\n *  @author Enrique Piqueras - <epiquerass@gmail.com>\n *  @notice A `KlerosPOC` Court in a tree of `ArbitratorCourt`s.\n */\ncontract KlerosPOCCourt is ArbitratorCourt, KlerosPOC {\n    /* Constructor */\n\n    /**\n     *  @notice Constructs the `KlerosPOCCourt`, forwarding all required parameters to the base contracts.\n     *  @param _parentName The name of the `parent`.\n     *  @param _parentAddress The address of the `parent`.\n     *  @param _pinakion The address of the pinakion contract which will be used.\n     *  @param _rng The address of the random number generator contract which will be used.\n     *  @param _timePerPeriod The minimal time for each period.\n     */\n    function KlerosPOCCourt(string _parentName, Arbitrator _parentAddress, Pinakion _pinakion, RNG _rng, uint[5] _timePerPeriod) ArbitratorCourt(1, _parentName, _parentAddress) KlerosPOC(_pinakion, _rng, _timePerPeriod) public {}\n\n    /* Public */\n\n    /** @notice Appeals a ruling to the parent court.\n     *  @param _disputeID The ID of the dispute to be appealed.\n     *  @param _extraData Part of the standard but not used by this contract.\n     */\n    function appeal(uint256 _disputeID, bytes _extraData) public payable onlyDuring(Period.Appeal) {\n        if (disputes[_disputeID].appeals < maxLocalAppeals) { // Will we stay under max local appeals?\n            super.appeal(_disputeID, _extraData); // Regular appeal\n        } else { // Appeal to `parent`\n            // Checks\n            require(disputes[_disputeID].session + disputes[_disputeID].appeals == session); // Dispute of the current session\n\n            // Effects\n            disputes[_disputeID].appeals++;\n            disputes[_disputeID].votes.length++;\n            disputes[_disputeID].voteCounter.length++;\n            disputes[_disputeID].state = DisputeState.Executed; // Terminate dispute\n\n            // Interactions\n            Arbitrator.appeal(_disputeID, _extraData); // Fire appeal event\n            parent._address.createDispute.value(msg.value)(disputes[_disputeID].choices, _extraData); // Create dispute in `parent` court\n        }\n    }\n\n    /* Public Views */\n\n    /** @notice Computes the cost of appealing to the parent court. It is recommended not to increase it often, as it can be highly time and gas consuming for the arbitrated contracts to cope with fee augmentation.\n     *  @param _disputeID The ID of the dispute to be appealed.\n     *  @param _extraData Part of the standard but not used by this contract.\n     *  @return _fee The appeal cost.\n     */\n    function appealCost(uint256 _disputeID, bytes _extraData) public constant returns(uint256 _fee) {\n        if (disputes[_disputeID].appeals < maxLocalAppeals) { // Will we stay under max local appeals?\n            return super.appealCost(_disputeID, _extraData); // Regular appeal cost\n        }\n\n        return parent._address.arbitrationCost(_extraData); // `parent` arbitration cost\n    }\n}\n",
  "sourcePath": "/Users/samvitello/kleros/kleros/contracts/POC/KlerosPOCCourt.sol",
  "compiler": {
    "name": "solc",
    "version": "0.4.23+commit.124ca40d.Emscripten.clang"
  },
  "schemaVersion": "2.0.0",
  "updatedAt": "2018-06-11T15:01:52.617Z"
}