{
  "contractName": "KlerosPOC",
  "abi": [
    {
      "constant": true,
      "inputs": [],
      "name": "lastPeriodChange",
      "outputs": [
        {
          "name": "",
          "type": "uint256"
        }
      ],
      "payable": false,
      "stateMutability": "view",
      "type": "function"
    },
    {
      "constant": true,
      "inputs": [
        {
          "name": "_disputeID",
          "type": "uint256"
        }
      ],
      "name": "disputeStatus",
      "outputs": [
        {
          "name": "status",
          "type": "uint8"
        }
      ],
      "payable": false,
      "stateMutability": "view",
      "type": "function"
    },
    {
      "constant": true,
      "inputs": [
        {
          "name": "_disputeID",
          "type": "uint256"
        }
      ],
      "name": "currentRuling",
      "outputs": [
        {
          "name": "ruling",
          "type": "uint256"
        }
      ],
      "payable": false,
      "stateMutability": "view",
      "type": "function"
    },
    {
      "constant": true,
      "inputs": [],
      "name": "rnBlock",
      "outputs": [
        {
          "name": "",
          "type": "uint256"
        }
      ],
      "payable": false,
      "stateMutability": "view",
      "type": "function"
    },
    {
      "constant": false,
      "inputs": [
        {
          "name": "_value",
          "type": "uint256"
        }
      ],
      "name": "activateTokens",
      "outputs": [],
      "payable": false,
      "stateMutability": "nonpayable",
      "type": "function"
    },
    {
      "constant": true,
      "inputs": [
        {
          "name": "_disputeID",
          "type": "uint256"
        }
      ],
      "name": "amountJurors",
      "outputs": [
        {
          "name": "nbJurors",
          "type": "uint256"
        }
      ],
      "payable": false,
      "stateMutability": "view",
      "type": "function"
    },
    {
      "constant": false,
      "inputs": [
        {
          "name": "_value",
          "type": "uint256"
        }
      ],
      "name": "withdraw",
      "outputs": [],
      "payable": false,
      "stateMutability": "nonpayable",
      "type": "function"
    },
    {
      "constant": true,
      "inputs": [],
      "name": "segmentSize",
      "outputs": [
        {
          "name": "",
          "type": "uint256"
        }
      ],
      "payable": false,
      "stateMutability": "view",
      "type": "function"
    },
    {
      "constant": false,
      "inputs": [
        {
          "name": "_disputeID",
          "type": "uint256"
        },
        {
          "name": "_ruling",
          "type": "uint256"
        },
        {
          "name": "_draws",
          "type": "uint256[]"
        }
      ],
      "name": "voteRuling",
      "outputs": [],
      "payable": false,
      "stateMutability": "nonpayable",
      "type": "function"
    },
    {
      "constant": false,
      "inputs": [
        {
          "name": "_disputeID",
          "type": "uint256"
        },
        {
          "name": "_extraData",
          "type": "bytes"
        }
      ],
      "name": "appeal",
      "outputs": [],
      "payable": true,
      "stateMutability": "payable",
      "type": "function"
    },
    {
      "constant": true,
      "inputs": [
        {
          "name": "",
          "type": "uint256"
        }
      ],
      "name": "disputes",
      "outputs": [
        {
          "name": "arbitrated",
          "type": "address"
        },
        {
          "name": "session",
          "type": "uint256"
        },
        {
          "name": "appeals",
          "type": "uint256"
        },
        {
          "name": "choices",
          "type": "uint256"
        },
        {
          "name": "initialNumberJurors",
          "type": "uint16"
        },
        {
          "name": "arbitrationFeePerJuror",
          "type": "uint256"
        },
        {
          "name": "state",
          "type": "uint8"
        },
        {
          "name": "currentAppealToRepartition",
          "type": "uint256"
        }
      ],
      "payable": false,
      "stateMutability": "view",
      "type": "function"
    },
    {
      "constant": true,
      "inputs": [],
      "name": "session",
      "outputs": [
        {
          "name": "",
          "type": "uint256"
        }
      ],
      "payable": false,
      "stateMutability": "view",
      "type": "function"
    },
    {
      "constant": true,
      "inputs": [
        {
          "name": "_disputeID",
          "type": "uint256"
        },
        {
          "name": "_appeals",
          "type": "uint256"
        },
        {
          "name": "_choice",
          "type": "uint256"
        }
      ],
      "name": "getVoteCount",
      "outputs": [
        {
          "name": "voteCount",
          "type": "uint256"
        }
      ],
      "payable": false,
      "stateMutability": "view",
      "type": "function"
    },
    {
      "constant": true,
      "inputs": [
        {
          "name": "_disputeID",
          "type": "uint256"
        },
        {
          "name": "_juror",
          "type": "address"
        },
        {
          "name": "_draw",
          "type": "uint256"
        }
      ],
      "name": "isDrawn",
      "outputs": [
        {
          "name": "drawn",
          "type": "bool"
        }
      ],
      "payable": false,
      "stateMutability": "view",
      "type": "function"
    },
    {
      "constant": true,
      "inputs": [
        {
          "name": "_disputeID",
          "type": "uint256"
        },
        {
          "name": "_appeals",
          "type": "uint256"
        },
        {
          "name": "_voteID",
          "type": "uint256"
        }
      ],
      "name": "getVoteAccount",
      "outputs": [
        {
          "name": "account",
          "type": "address"
        }
      ],
      "payable": false,
      "stateMutability": "view",
      "type": "function"
    },
    {
      "constant": false,
      "inputs": [
        {
          "name": "disputeID",
          "type": "uint256"
        }
      ],
      "name": "executeRuling",
      "outputs": [],
      "payable": false,
      "stateMutability": "nonpayable",
      "type": "function"
    },
    {
      "constant": false,
      "inputs": [
        {
          "name": "_from",
          "type": "address"
        },
        {
          "name": "_value",
          "type": "uint256"
        },
        {
          "name": "",
          "type": "address"
        },
        {
          "name": "",
          "type": "bytes"
        }
      ],
      "name": "receiveApproval",
      "outputs": [],
      "payable": false,
      "stateMutability": "nonpayable",
      "type": "function"
    },
    {
      "constant": false,
      "inputs": [
        {
          "name": "_disputeId",
          "type": "uint256"
        },
        {
          "name": "_maxIterations",
          "type": "uint256"
        }
      ],
      "name": "multipleShotTokenRepartition",
      "outputs": [],
      "payable": false,
      "stateMutability": "nonpayable",
      "type": "function"
    },
    {
      "constant": true,
      "inputs": [],
      "name": "arbitrationFeePerJuror",
      "outputs": [
        {
          "name": "",
          "type": "uint256"
        }
      ],
      "payable": false,
      "stateMutability": "view",
      "type": "function"
    },
    {
      "constant": true,
      "inputs": [],
      "name": "defaultNumberJuror",
      "outputs": [
        {
          "name": "",
          "type": "uint16"
        }
      ],
      "payable": false,
      "stateMutability": "view",
      "type": "function"
    },
    {
      "constant": false,
      "inputs": [],
      "name": "passPeriod",
      "outputs": [],
      "payable": false,
      "stateMutability": "nonpayable",
      "type": "function"
    },
    {
      "constant": true,
      "inputs": [
        {
          "name": "_disputeID",
          "type": "uint256"
        },
        {
          "name": "_appeals",
          "type": "uint256"
        },
        {
          "name": "_voteID",
          "type": "uint256"
        }
      ],
      "name": "getVoteRuling",
      "outputs": [
        {
          "name": "ruling",
          "type": "uint256"
        }
      ],
      "payable": false,
      "stateMutability": "view",
      "type": "function"
    },
    {
      "constant": true,
      "inputs": [
        {
          "name": "_disputeID",
          "type": "uint256"
        },
        {
          "name": "_juror",
          "type": "address"
        }
      ],
      "name": "getLastSessionVote",
      "outputs": [
        {
          "name": "lastSessionVote",
          "type": "uint256"
        }
      ],
      "payable": false,
      "stateMutability": "view",
      "type": "function"
    },
    {
      "constant": true,
      "inputs": [
        {
          "name": "",
          "type": "uint256"
        }
      ],
      "name": "timePerPeriod",
      "outputs": [
        {
          "name": "",
          "type": "uint256"
        }
      ],
      "payable": false,
      "stateMutability": "view",
      "type": "function"
    },
    {
      "constant": false,
      "inputs": [
        {
          "name": "_choices",
          "type": "uint256"
        },
        {
          "name": "_extraData",
          "type": "bytes"
        }
      ],
      "name": "createDispute",
      "outputs": [
        {
          "name": "disputeID",
          "type": "uint256"
        }
      ],
      "payable": true,
      "stateMutability": "payable",
      "type": "function"
    },
    {
      "constant": false,
      "inputs": [
        {
          "name": "_disputeID",
          "type": "uint256"
        }
      ],
      "name": "oneShotTokenRepartition",
      "outputs": [],
      "payable": false,
      "stateMutability": "nonpayable",
      "type": "function"
    },
    {
      "constant": true,
      "inputs": [
        {
          "name": "_disputeID",
          "type": "uint256"
        },
        {
          "name": "_appeals",
          "type": "uint256"
        }
      ],
      "name": "getWinningChoice",
      "outputs": [
        {
          "name": "winningChoice",
          "type": "uint256"
        }
      ],
      "payable": false,
      "stateMutability": "view",
      "type": "function"
    },
    {
      "constant": true,
      "inputs": [],
      "name": "randomNumber",
      "outputs": [
        {
          "name": "",
          "type": "uint256"
        }
      ],
      "payable": false,
      "stateMutability": "view",
      "type": "function"
    },
    {
      "constant": true,
      "inputs": [],
      "name": "rng",
      "outputs": [
        {
          "name": "",
          "type": "address"
        }
      ],
      "payable": false,
      "stateMutability": "view",
      "type": "function"
    },
    {
      "constant": true,
      "inputs": [],
      "name": "alpha",
      "outputs": [
        {
          "name": "",
          "type": "uint256"
        }
      ],
      "payable": false,
      "stateMutability": "view",
      "type": "function"
    },
    {
      "constant": true,
      "inputs": [
        {
          "name": "",
          "type": "address"
        }
      ],
      "name": "jurors",
      "outputs": [
        {
          "name": "balance",
          "type": "uint256"
        },
        {
          "name": "atStake",
          "type": "uint256"
        },
        {
          "name": "lastSession",
          "type": "uint256"
        },
        {
          "name": "segmentStart",
          "type": "uint256"
        },
        {
          "name": "segmentEnd",
          "type": "uint256"
        }
      ],
      "payable": false,
      "stateMutability": "view",
      "type": "function"
    },
    {
      "constant": true,
      "inputs": [
        {
          "name": "_disputeID",
          "type": "uint256"
        },
        {
          "name": "_appeals",
          "type": "uint256"
        }
      ],
      "name": "getWinningCount",
      "outputs": [
        {
          "name": "winningCount",
          "type": "uint256"
        }
      ],
      "payable": false,
      "stateMutability": "view",
      "type": "function"
    },
    {
      "constant": true,
      "inputs": [],
      "name": "getStakePerDraw",
      "outputs": [
        {
          "name": "minActivatedTokenInAlpha",
          "type": "uint256"
        }
      ],
      "payable": false,
      "stateMutability": "view",
      "type": "function"
    },
    {
      "constant": true,
      "inputs": [],
      "name": "period",
      "outputs": [
        {
          "name": "",
          "type": "uint8"
        }
      ],
      "payable": false,
      "stateMutability": "view",
      "type": "function"
    },
    {
      "constant": true,
      "inputs": [
        {
          "name": "_disputeID",
          "type": "uint256"
        },
        {
          "name": "_extraData",
          "type": "bytes"
        }
      ],
      "name": "appealCost",
      "outputs": [
        {
          "name": "fee",
          "type": "uint256"
        }
      ],
      "payable": false,
      "stateMutability": "view",
      "type": "function"
    },
    {
      "constant": false,
      "inputs": [
        {
          "name": "_jurorAddress",
          "type": "address"
        },
        {
          "name": "_disputeID",
          "type": "uint256"
        },
        {
          "name": "_draws",
          "type": "uint256[]"
        }
      ],
      "name": "penalizeInactiveJuror",
      "outputs": [],
      "payable": false,
      "stateMutability": "nonpayable",
      "type": "function"
    },
    {
      "constant": true,
      "inputs": [
        {
          "name": "_extraData",
          "type": "bytes"
        }
      ],
      "name": "arbitrationCost",
      "outputs": [
        {
          "name": "fee",
          "type": "uint256"
        }
      ],
      "payable": false,
      "stateMutability": "view",
      "type": "function"
    },
    {
      "constant": true,
      "inputs": [],
      "name": "minActivatedToken",
      "outputs": [
        {
          "name": "",
          "type": "uint256"
        }
      ],
      "payable": false,
      "stateMutability": "view",
      "type": "function"
    },
    {
      "constant": true,
      "inputs": [],
      "name": "pinakion",
      "outputs": [
        {
          "name": "",
          "type": "address"
        }
      ],
      "payable": false,
      "stateMutability": "view",
      "type": "function"
    },
    {
      "constant": true,
      "inputs": [
        {
          "name": "_jurorAddress",
          "type": "address"
        },
        {
          "name": "_disputeID",
          "type": "uint256"
        },
        {
          "name": "_draws",
          "type": "uint256[]"
        }
      ],
      "name": "validDraws",
      "outputs": [
        {
          "name": "valid",
          "type": "bool"
        }
      ],
      "payable": false,
      "stateMutability": "view",
      "type": "function"
    },
    {
      "inputs": [
        {
          "name": "_pinakion",
          "type": "address"
        },
        {
          "name": "_rng",
          "type": "address"
        },
        {
          "name": "_timePerPeriod",
          "type": "uint256[5]"
        }
      ],
      "payable": false,
      "stateMutability": "nonpayable",
      "type": "constructor"
    },
    {
      "anonymous": false,
      "inputs": [
        {
          "indexed": false,
          "name": "_period",
          "type": "uint8"
        },
        {
          "indexed": true,
          "name": "_session",
          "type": "uint256"
        }
      ],
      "name": "NewPeriod",
      "type": "event"
    },
    {
      "anonymous": false,
      "inputs": [
        {
          "indexed": true,
          "name": "_account",
          "type": "address"
        },
        {
          "indexed": false,
          "name": "_disputeID",
          "type": "uint256"
        },
        {
          "indexed": false,
          "name": "_amount",
          "type": "int256"
        }
      ],
      "name": "TokenShift",
      "type": "event"
    },
    {
      "anonymous": false,
      "inputs": [
        {
          "indexed": true,
          "name": "_account",
          "type": "address"
        },
        {
          "indexed": false,
          "name": "_disputeID",
          "type": "uint256"
        },
        {
          "indexed": false,
          "name": "_amount",
          "type": "uint256"
        }
      ],
      "name": "ArbitrationReward",
      "type": "event"
    },
    {
      "anonymous": false,
      "inputs": [
        {
          "indexed": false,
          "name": "_disputeID",
          "type": "uint256"
        }
      ],
      "name": "AppealPossible",
      "type": "event"
    },
    {
      "anonymous": false,
      "inputs": [
        {
          "indexed": true,
          "name": "_disputeID",
          "type": "uint256"
        },
        {
          "indexed": false,
          "name": "_arbitrable",
          "type": "address"
        }
      ],
      "name": "DisputeCreation",
      "type": "event"
    },
    {
      "anonymous": false,
      "inputs": [
        {
          "indexed": true,
          "name": "_disputeID",
          "type": "uint256"
        },
        {
          "indexed": false,
          "name": "_arbitrable",
          "type": "address"
        }
      ],
      "name": "AppealDecision",
      "type": "event"
    },
    {
      "constant": false,
      "inputs": [
        {
          "name": "_owner",
          "type": "address"
        }
      ],
      "name": "proxyPayment",
      "outputs": [
        {
          "name": "",
          "type": "bool"
        }
      ],
      "payable": true,
      "stateMutability": "payable",
      "type": "function"
    },
    {
      "constant": false,
      "inputs": [
        {
          "name": "_from",
          "type": "address"
        },
        {
          "name": "_to",
          "type": "address"
        },
        {
          "name": "_amount",
          "type": "uint256"
        }
      ],
      "name": "onTransfer",
      "outputs": [
        {
          "name": "",
          "type": "bool"
        }
      ],
      "payable": false,
      "stateMutability": "nonpayable",
      "type": "function"
    },
    {
      "constant": false,
      "inputs": [
        {
          "name": "_owner",
          "type": "address"
        },
        {
          "name": "_spender",
          "type": "address"
        },
        {
          "name": "_amount",
          "type": "uint256"
        }
      ],
      "name": "onApprove",
      "outputs": [
        {
          "name": "",
          "type": "bool"
        }
      ],
      "payable": false,
      "stateMutability": "nonpayable",
      "type": "function"
    },
    {
      "constant": false,
      "inputs": [],
      "name": "buyPinakion",
      "outputs": [],
      "payable": true,
      "stateMutability": "payable",
      "type": "function"
    }
  ],
  "bytecode": "0x608060405266b1a2bc2ec5000060025560038060006101000a81548161ffff021916908361ffff16021790555067016345785d8a00006004556107d0600a556001600b553480156200005057600080fd5b5060405160e08062004566833981018060405281019080805190602001909291908051906020019092919091905050828282826000806101000a81548173ffffffffffffffffffffffffffffffffffffffff021916908373ffffffffffffffffffffffffffffffffffffffff16021790555081600160006101000a81548173ffffffffffffffffffffffffffffffffffffffff021916908373ffffffffffffffffffffffffffffffffffffffff16021790555042600c819055508060059060056200011d9291906200012a565b5050505050505062000197565b82600581019282156200015c579160200282015b828111156200015b5782518255916020019190600101906200013e565b5b5090506200016b91906200016f565b5090565b6200019491905b808211156200019057600081600090555060010162000176565b5090565b90565b6143bf80620001a76000396000f30060806040526004361061021a576000357c0100000000000000000000000000000000000000000000000000000000900463ffffffff16806302d2f3491461021f57806310f169e81461024a5780631c3db16d1461029957806328764b44146102da57806329c8d3ce146103055780632dd40301146103325780632e1a7d4d146103735780633cec9309146103a05780633f58f8c0146103cb57806349912f88146104455780634a393149146104ab578063564a565d146105305780635e3568b8146105e45780636c9732481461060f57806370d17adb1461066457806382495626146106d35780638bb04875146107545780638f4ffcb1146107815780639313919a14610834578063a10e6d281461086b578063a9ed83cc14610896578063ac74bcde146108a0578063b241ff03146108d3578063b3c7618e146108ea578063b5040f0a1461093f578063baaaaad2146109a0578063c13517e1146109e1578063c15a679114610a5b578063c8860f4114610a88578063ccbac9f514610ad3578063d605787b14610afe578063da682aeb14610b55578063db1d0fd514610bda578063dca5f6b014610c05578063e07a31c714610c78578063e59a29a614610cc3578063ef78d4fd14610cee578063f23f16e614610d27578063f48c305414610dae578063f55ab98714610dfc578063f7434ea914610e8c578063f971545814610f09578063fbf405b014610f34578063fe69dacd14610f8b575b600080fd5b34801561022b57600080fd5b50610234611033565b6040518082815260200191505060405180910390f35b34801561025657600080fd5b5061027560048036038101908080359060200190929190505050611039565b6040518082600281111561028557fe5b60ff16815260200191505060405180910390f35b3480156102a557600080fd5b506102c460048036038101908080359060200190929190505050611147565b6040518082815260200191505060405180910390f35b3480156102e657600080fd5b506102ef611198565b6040518082815260200191505060405180910390f35b34801561031157600080fd5b506103306004803603810190808035906020019092919050505061119e565b005b34801561033e57600080fd5b5061035d60048036038101908080359060200190929190505050611284565b6040518082815260200191505060405180910390f35b34801561037f57600080fd5b5061039e600480360381019080803590602001909291905050506112d4565b005b3480156103ac57600080fd5b506103b561147c565b6040518082815260200191505060405180910390f35b3480156103d757600080fd5b50610443600480360381019080803590602001909291908035906020019092919080359060200190820180359060200190808060200260200160405190810160405280939291908181526020018383602002808284378201915050505050509192919290505050611482565b005b6104a960048036038101908080359060200190929190803590602001908201803590602001908080601f0160208091040260200160405190810160405280939291908181526020018383808284378201915050505050509192919290505050611863565b005b3480156104b757600080fd5b50610516600480360381019080803573ffffffffffffffffffffffffffffffffffffffff169060200190929190803573ffffffffffffffffffffffffffffffffffffffff1690602001909291908035906020019092919050505061193d565b604051808215151515815260200191505060405180910390f35b34801561053c57600080fd5b5061055b6004803603810190808035906020019092919050505061194a565b604051808973ffffffffffffffffffffffffffffffffffffffff1673ffffffffffffffffffffffffffffffffffffffff1681526020018881526020018781526020018681526020018561ffff1661ffff1681526020018481526020018360038111156105c357fe5b60ff1681526020018281526020019850505050505050505060405180910390f35b3480156105f057600080fd5b506105f96119dc565b6040518082815260200191505060405180910390f35b34801561061b57600080fd5b5061064e6004803603810190808035906020019092919080359060200190929190803590602001909291905050506119e2565b6040518082815260200191505060405180910390f35b34801561067057600080fd5b506106b960048036038101908080359060200190929190803573ffffffffffffffffffffffffffffffffffffffff16906020019092919080359060200190929190505050611a3d565b604051808215151515815260200191505060405180910390f35b3480156106df57600080fd5b50610712600480360381019080803590602001909291908035906020019092919080359060200190929190505050611b8c565b604051808273ffffffffffffffffffffffffffffffffffffffff1673ffffffffffffffffffffffffffffffffffffffff16815260200191505060405180910390f35b34801561076057600080fd5b5061077f60048036038101908080359060200190929190505050611c0d565b005b34801561078d57600080fd5b50610832600480360381019080803573ffffffffffffffffffffffffffffffffffffffff16906020019092919080359060200190929190803573ffffffffffffffffffffffffffffffffffffffff169060200190929190803590602001908201803590602001908080601f0160208091040260200160405190810160405280939291908181526020018383808284378201915050505050509192919290505050611d67565b005b34801561084057600080fd5b506108696004803603810190808035906020019092919080359060200190929190505050611f58565b005b34801561087757600080fd5b50610880612a61565b6040518082815260200191505060405180910390f35b61089e612a67565b005b3480156108ac57600080fd5b506108b5612bbf565b604051808261ffff1661ffff16815260200191505060405180910390f35b3480156108df57600080fd5b506108e8612bd3565b005b3480156108f657600080fd5b50610929600480360381019080803590602001909291908035906020019092919080359060200190929190505050612fe8565b6040518082815260200191505060405180910390f35b34801561094b57600080fd5b5061098a60048036038101908080359060200190929190803573ffffffffffffffffffffffffffffffffffffffff169060200190929190505050613049565b6040518082815260200191505060405180910390f35b3480156109ac57600080fd5b506109cb600480360381019080803590602001909291905050506130b1565b6040518082815260200191505060405180910390f35b610a4560048036038101908080359060200190929190803590602001908201803590602001908080601f01602080910402602001604051908101604052809392919081815260200183838082843782019150505050505091929192905050506130cb565b6040518082815260200191505060405180910390f35b348015610a6757600080fd5b50610a8660048036038101908080359060200190929190505050613287565b005b348015610a9457600080fd5b50610abd6004803603810190808035906020019092919080359060200190929190505050613893565b6040518082815260200191505060405180910390f35b348015610adf57600080fd5b50610ae86138dc565b6040518082815260200191505060405180910390f35b348015610b0a57600080fd5b50610b136138e2565b604051808273ffffffffffffffffffffffffffffffffffffffff1673ffffffffffffffffffffffffffffffffffffffff16815260200191505060405180910390f35b348015610b6157600080fd5b50610bc0600480360381019080803573ffffffffffffffffffffffffffffffffffffffff169060200190929190803573ffffffffffffffffffffffffffffffffffffffff16906020019092919080359060200190929190505050613908565b604051808215151515815260200191505060405180910390f35b348015610be657600080fd5b50610bef613915565b6040518082815260200191505060405180910390f35b348015610c1157600080fd5b50610c46600480360381019080803573ffffffffffffffffffffffffffffffffffffffff16906020019092919050505061391b565b604051808681526020018581526020018481526020018381526020018281526020019550505050505060405180910390f35b348015610c8457600080fd5b50610cad6004803603810190808035906020019092919080359060200190929190505050613951565b6040518082815260200191505060405180910390f35b348015610ccf57600080fd5b50610cd861399a565b6040518082815260200191505060405180910390f35b348015610cfa57600080fd5b50610d036139b5565b60405180826004811115610d1357fe5b60ff16815260200191505060405180910390f35b348015610d3357600080fd5b50610d9860048036038101908080359060200190929190803590602001908201803590602001908080601f01602080910402602001604051908101604052809392919081815260200183838082843782019150505050505091929192905050506139c8565b6040518082815260200191505060405180910390f35b610de2600480360381019080803573ffffffffffffffffffffffffffffffffffffffff169060200190929190505050613a08565b604051808215151515815260200191505060405180910390f35b348015610e0857600080fd5b50610e8a600480360381019080803573ffffffffffffffffffffffffffffffffffffffff1690602001909291908035906020019092919080359060200190820180359060200190808060200260200160405190810160405280939291908181526020018383602002808284378201915050505050509192919290505050613a12565b005b348015610e9857600080fd5b50610ef3600480360381019080803590602001908201803590602001908080601f0160208091040260200160405190810160405280939291908181526020018383808284378201915050505050509192919290505050613cbc565b6040518082815260200191505060405180910390f35b348015610f1557600080fd5b50610f1e613cd6565b6040518082815260200191505060405180910390f35b348015610f4057600080fd5b50610f49613cdc565b604051808273ffffffffffffffffffffffffffffffffffffffff1673ffffffffffffffffffffffffffffffffffffffff16815260200191505060405180910390f35b348015610f9757600080fd5b50611019600480360381019080803573ffffffffffffffffffffffffffffffffffffffff1690602001909291908035906020019092919080359060200190820180359060200190808060200260200160405190810160405280939291908181526020018383602002808284378201915050505050509192919290505050613d01565b604051808215151515815260200191505060405180910390f35b600c5481565b60008060128381548110151561104b57fe5b90600052602060002090600c02019050600b54816002015482600101540110156110785760029150611141565b600b548160020154826001015401141561113c576000600381111561109957fe5b8160060160009054906101000a900460ff1660038111156110b657fe5b141561113357600360048111156110c957fe5b601060009054906101000a900460ff1660048111156110e457fe5b10156110f35760009150611141565b6003600481111561110057fe5b601060009054906101000a900460ff16600481111561111b57fe5b141561112a5760019150611141565b60029150611141565b60029150611141565b600091505b50919050565b60008060128381548110151561115957fe5b90600052602060002090600c0201905080600801816002015481548110151561117e57fe5b906000526020600020906003020160000154915050919050565b600e5481565b6000808060048111156111ad57fe5b601060009054906101000a900460ff1660048111156111c857fe5b1415156111d457600080fd5b601160003373ffffffffffffffffffffffffffffffffffffffff1673ffffffffffffffffffffffffffffffffffffffff16815260200190815260200160002091508160000154831115151561122857600080fd5b600454831015151561123957600080fd5b600b5482600201541415151561124e57600080fd5b600b548260020181905550600d54826003018190555082600d60008282540192505081905550600d548260040181905550505050565b60008060128381548110151561129657fe5b90600052602060002090600c020190506001816002015460020a60018360040160009054906101000a900461ffff160161ffff160203915050919050565b6000601160003373ffffffffffffffffffffffffffffffffffffffff1673ffffffffffffffffffffffffffffffffffffffff1681526020019081526020016000209050806000015481600101541115151561132e57600080fd5b8060010154816000015403821115151561134757600080fd5b600b5481600201541415151561135c57600080fd5b8181600001600082825403925050819055506000809054906101000a900473ffffffffffffffffffffffffffffffffffffffff1673ffffffffffffffffffffffffffffffffffffffff1663a9059cbb33846040518363ffffffff167c0100000000000000000000000000000000000000000000000000000000028152600401808373ffffffffffffffffffffffffffffffffffffffff1673ffffffffffffffffffffffffffffffffffffffff16815260200182815260200192505050602060405180830381600087803b15801561143257600080fd5b505af1158015611446573d6000803e3d6000fd5b505050506040513d602081101561145c57600080fd5b8101908080519060200190929190505050151561147857600080fd5b5050565b600d5481565b6000806000806000600280600481111561149857fe5b601060009054906101000a900460ff1660048111156114b357fe5b1415156114bf57600080fd5b6012898154811015156114ce57fe5b90600052602060002090600c02019550601160003373ffffffffffffffffffffffffffffffffffffffff1673ffffffffffffffffffffffffffffffffffffffff168152602001908152602001600020945085600801866002015481548110151561153457fe5b90600052602060002090600302019350600b548660090160003373ffffffffffffffffffffffffffffffffffffffff1673ffffffffffffffffffffffffffffffffffffffff168152602001908152602001600020541415151561159657600080fd5b856003015488111515156115a957600080fd5b6115b4338a89613d01565b15156115bf57600080fd5b600b548660090160003373ffffffffffffffffffffffffffffffffffffffff1673ffffffffffffffffffffffffffffffffffffffff1681526020019081526020016000208190555086518460020160008a8152602001908152602001600020600082825401925050819055508360020160008981526020019081526020016000205484600101541015611678578360020160008981526020019081526020016000205484600101819055508784600001819055506116b3565b8360020160008981526020019081526020016000205484600101541480156116a257506000875114155b156116b257600084600001819055505b5b600092505b8651831015611795578560070186600201548154811015156116d657fe5b9060005260206000200160408051908101604052803373ffffffffffffffffffffffffffffffffffffffff1681526020018a8152509080600181540180825580915050906001820390600052602060002090600202016000909192909190915060008201518160000160006101000a81548173ffffffffffffffffffffffffffffffffffffffff021916908373ffffffffffffffffffffffffffffffffffffffff160217905550602082015181600101555050508260010192506116b8565b61179d61399a565b8751028560010160008282540192505081905550856005015487510291503373ffffffffffffffffffffffffffffffffffffffff166108fc839081150290604051600060405180830381858888f19350505050158015611801573d6000803e3d6000fd5b503373ffffffffffffffffffffffffffffffffffffffff167f6aabe3309b819a2115cccbcff8b8284764a6a4db2ff85b12d8cc696b945192cb8a84604051808381526020018281526020019250505060405180910390a2505050505050505050565b6000600380600481111561187357fe5b601060009054906101000a900460ff16600481111561188e57fe5b14151561189a57600080fd5b6118a48484613ec3565b6012848154811015156118b357fe5b90600052602060002090600c020191506118cd84846139c8565b34101515156118db57600080fd5b600b5482600201548360010154011415156118f557600080fd5b816002016000815480929190600101919050555081600701805480919060010161191f9190614079565b5081600801805480919060010161193691906140a5565b5050505050565b6000600190509392505050565b60128181548110151561195957fe5b90600052602060002090600c02016000915090508060000160009054906101000a900473ffffffffffffffffffffffffffffffffffffffff16908060010154908060020154908060030154908060040160009054906101000a900461ffff16908060050154908060060160009054906101000a900460ff169080600a0154905088565b600b5481565b60006012848154811015156119f357fe5b90600052602060002090600c020160080183815481101515611a1157fe5b906000526020600020906003020160020160008381526020019081526020016000205490509392505050565b600080600080601287815481101515611a5257fe5b90600052602060002090600c02019250601160008773ffffffffffffffffffffffffffffffffffffffff1673ffffffffffffffffffffffffffffffffffffffff1681526020019081526020016000209150600b548260020154141580611ac45750600b54836002015484600101540114155b80611af5575060016004811115611ad757fe5b601060009054906101000a900460ff166004811115611af257fe5b11155b80611b075750611b0487611284565b85115b80611b125750600085145b80611b1f57506000600d54145b15611b2d5760009350611b82565b600d54600f548887604051808481526020018381526020018281526020019350505050604051809103902060019004811515611b6557fe5b06905081600301548110158015611b7f5750816004015481105b93505b5050509392505050565b6000601284815481101515611b9d57fe5b90600052602060002090600c020160070183815481101515611bbb57fe5b9060005260206000200182815481101515611bd257fe5b906000526020600020906002020160000160009054906101000a900473ffffffffffffffffffffffffffffffffffffffff1690509392505050565b6000601282815481101515611c1e57fe5b90600052602060002090600c0201905060026003811115611c3b57fe5b8160060160009054906101000a900460ff166003811115611c5857fe5b141515611c6457600080fd5b60038160060160006101000a81548160ff02191690836003811115611c8557fe5b02179055508060000160009054906101000a900473ffffffffffffffffffffffffffffffffffffffff1673ffffffffffffffffffffffffffffffffffffffff1663311a6c5683836008018460020154815481101515611ce057fe5b9060005260206000209060030201600001546040518363ffffffff167c01000000000000000000000000000000000000000000000000000000000281526004018083815260200182815260200192505050600060405180830381600087803b158015611d4b57600080fd5b505af1158015611d5f573d6000803e3d6000fd5b505050505050565b6000809054906101000a900473ffffffffffffffffffffffffffffffffffffffff168073ffffffffffffffffffffffffffffffffffffffff163373ffffffffffffffffffffffffffffffffffffffff16141515611dc357600080fd5b6000809054906101000a900473ffffffffffffffffffffffffffffffffffffffff1673ffffffffffffffffffffffffffffffffffffffff166323b872dd8630876040518463ffffffff167c0100000000000000000000000000000000000000000000000000000000028152600401808473ffffffffffffffffffffffffffffffffffffffff1673ffffffffffffffffffffffffffffffffffffffff1681526020018373ffffffffffffffffffffffffffffffffffffffff1673ffffffffffffffffffffffffffffffffffffffff1681526020018281526020019350505050602060405180830381600087803b158015611ebb57600080fd5b505af1158015611ecf573d6000803e3d6000fd5b505050506040513d6020811015611ee557600080fd5b81019080805190602001909291905050501515611f0157600080fd5b83601160008773ffffffffffffffffffffffffffffffffffffffff1673ffffffffffffffffffffffffffffffffffffffff168152602001908152602001600020600001600082825401925050819055505050505050565b6000806000806000806000806000806004806004811115611f7557fe5b601060009054906101000a900460ff166004811115611f9057fe5b141515611f9c57600080fd5b60128d815481101515611fab57fe5b90600052602060002090600c02019a5060016003811115611fc857fe5b8b60060160009054906101000a900460ff166003811115611fe557fe5b11151515611ff257600080fd5b600b548b600201548c60010154011115151561200d57600080fd5b60018b60060160006101000a81548160ff0219169083600381111561202e57fe5b02179055508a6008018b6002015481548110151561204857fe5b906000526020600020906003020160000154995061206461399a565b9850600097508a600a015496505b8a6002015487111515612a2b57600187018b600b018054905010156120a9578a600b0180548091906001016120a791906140d7565b505b60008a14801561211657508a6008018b600201548154811015156120c957fe5b9060005260206000209060030201600101548b6008018c600201548154811015156120f057fe5b906000526020600020906003020160020160008081526020019081526020016000205414155b156121605760028b600b018881548110151561212e57fe5b906000526020600020906006020160050160006101000a81548160ff0219169083600381111561215a57fe5b02179055505b6000600381111561216d57fe5b8b600b018881548110151561217e57fe5b906000526020600020906006020160050160009054906101000a900460ff1660038111156121a857fe5b1415612446578a600b01878154811015156121bf57fe5b90600052602060002090600602016002015495505b8a600701878154811015156121e557fe5b9060005260206000200180549050861015612401578b8810151561220857612a52565b8a6007018781548110151561221957fe5b906000526020600020018681548110151561223057fe5b9060005260206000209060020201945089856001015414151561238f57601160008660000160009054906101000a900473ffffffffffffffffffffffffffffffffffffffff1673ffffffffffffffffffffffffffffffffffffffff1673ffffffffffffffffffffffffffffffffffffffff1681526020019081526020016000209350836000015489106122c75783600001546122c9565b885b92508284600001600082825403925050819055508460000160009054906101000a900473ffffffffffffffffffffffffffffffffffffffff1673ffffffffffffffffffffffffffffffffffffffff167f72f86a9d9fab69e4814ca24b54076a6e59b7463230974d7b72bed55777fbcf6c8e85600003604051808381526020018281526020019250505060405180910390a2828b600b018881548110151561236c57fe5b9060005260206000209060060201600001600082825401925050819055506123c0565b8a600b01878154811015156123a057fe5b906000526020600020906006020160010160008154600101919050819055505b8a600b01878154811015156123d157fe5b906000526020600020906006020160020160008154600101919050819055508760010197508560010195506121d4565b60018b600b018881548110151561241457fe5b906000526020600020906006020160050160006101000a81548160ff0219169083600381111561244057fe5b02179055505b6001600381111561245357fe5b8b600b018881548110151561246457fe5b906000526020600020906006020160050160009054906101000a900460ff16600381111561248e57fe5b14156127e35760008b600b01888154811015156124a757fe5b906000526020600020906006020160010154141561257a578a600b01878154811015156124d057fe5b906000526020600020906006020160000154601160003073ffffffffffffffffffffffffffffffffffffffff1673ffffffffffffffffffffffffffffffffffffffff1681526020019081526020016000206000016000828254019250508190555060028b600b018881548110151561254457fe5b906000526020600020906006020160050160006101000a81548160ff0219169083600381111561257057fe5b02179055506127e2565b8a600b018781548110151561258b57fe5b9060005260206000209060060201600101548b600b01888154811015156125ae57fe5b9060005260206000209060060201600001548115156125c957fe5b0491508a600b01878154811015156125dd57fe5b90600052602060002090600602016003015495505b8a6007018781548110151561260357fe5b906000526020600020018054905086101561279d578b8810151561262657612a52565b8a6007018781548110151561263757fe5b906000526020600020018681548110151561264e57fe5b90600052602060002090600202019450898560010154141561275c57601160008660000160009054906101000a900473ffffffffffffffffffffffffffffffffffffffff1673ffffffffffffffffffffffffffffffffffffffff1673ffffffffffffffffffffffffffffffffffffffff16815260200190815260200160002093508184600001600082825401925050819055508460000160009054906101000a900473ffffffffffffffffffffffffffffffffffffffff1673ffffffffffffffffffffffffffffffffffffffff167f72f86a9d9fab69e4814ca24b54076a6e59b7463230974d7b72bed55777fbcf6c8e84604051808381526020018281526020019250505060405180910390a25b8760010197508a600b018781548110151561277357fe5b906000526020600020906006020160030160008154600101919050819055508560010195506125f2565b60028b600b01888154811015156127b057fe5b906000526020600020906006020160050160006101000a81548160ff021916908360038111156127dc57fe5b02179055505b5b600260038111156127f057fe5b8b600b018881548110151561280157fe5b906000526020600020906006020160050160009054906101000a900460ff16600381111561282b57fe5b14156129c0578a600b018781548110151561284257fe5b90600052602060002090600602016004015495505b8a6007018781548110151561286857fe5b906000526020600020018054905086101561297b578b8810151561288b57612a52565b8a6007018781548110151561289c57fe5b90600052602060002001868154811015156128b357fe5b90600052602060002090600202019450601160008660000160009054906101000a900473ffffffffffffffffffffffffffffffffffffffff1673ffffffffffffffffffffffffffffffffffffffff1673ffffffffffffffffffffffffffffffffffffffff16815260200190815260200160002093508884600101600082825403925050819055508760010197508a600b018781548110151561295157fe5b90600052602060002090600602016004016000815460010191905081905550856001019550612857565b60038b600b018881548110151561298e57fe5b906000526020600020906006020160050160006101000a81548160ff021916908360038111156129ba57fe5b02179055505b6003808111156129cc57fe5b8b600b01888154811015156129dd57fe5b906000526020600020906006020160050160009054906101000a900460ff166003811115612a0757fe5b1415612a20578a600a0160008154600101919050819055505b866001019650612072565b60028b60060160006101000a81548160ff02191690836003811115612a4c57fe5b02179055505b50505050505050505050505050565b60025481565b6000601160003373ffffffffffffffffffffffffffffffffffffffff1673ffffffffffffffffffffffffffffffffffffffff16815260200190815260200160002090503481600001600082825401925050819055506000809054906101000a900473ffffffffffffffffffffffffffffffffffffffff1673ffffffffffffffffffffffffffffffffffffffff1663827f32c030346040518363ffffffff167c0100000000000000000000000000000000000000000000000000000000028152600401808373ffffffffffffffffffffffffffffffffffffffff1673ffffffffffffffffffffffffffffffffffffffff16815260200182815260200192505050602060405180830381600087803b158015612b8057600080fd5b505af1158015612b94573d6000803e3d6000fd5b505050506040513d6020811015612baa57600080fd5b81019080805190602001909291905050505050565b600360009054906101000a900461ffff1681565b6005601060009054906101000a900460ff166004811115612bf057fe5b60ff16600581101515612bff57fe5b0154600c54420310151515612c1357600080fd5b60006004811115612c2057fe5b601060009054906101000a900460ff166004811115612c3b57fe5b1415612d1f5760014301600e81905550600160009054906101000a900473ffffffffffffffffffffffffffffffffffffffff1673ffffffffffffffffffffffffffffffffffffffff16637b9c34e0600e546040518263ffffffff167c010000000000000000000000000000000000000000000000000000000002815260040180828152602001915050600060405180830381600087803b158015612cde57600080fd5b505af1158015612cf2573d6000803e3d6000fd5b505050506001601060006101000a81548160ff02191690836004811115612d1557fe5b0217905550612f88565b60016004811115612d2c57fe5b601060009054906101000a900460ff166004811115612d4757fe5b1415612e5c57600160009054906101000a900473ffffffffffffffffffffffffffffffffffffffff1673ffffffffffffffffffffffffffffffffffffffff16631c73601e600e546040518263ffffffff167c010000000000000000000000000000000000000000000000000000000002815260040180828152602001915050602060405180830381600087803b158015612de057600080fd5b505af1158015612df4573d6000803e3d6000fd5b505050506040513d6020811015612e0a57600080fd5b8101908080519060200190929190505050600f819055506000600f5414151515612e3357600080fd5b6002601060006101000a81548160ff02191690836004811115612e5257fe5b0217905550612f87565b60026004811115612e6957fe5b601060009054906101000a900460ff166004811115612e8457fe5b1415612eb3576003601060006101000a81548160ff02191690836004811115612ea957fe5b0217905550612f86565b60036004811115612ec057fe5b601060009054906101000a900460ff166004811115612edb57fe5b1415612f0a576004601060006101000a81548160ff02191690836004811115612f0057fe5b0217905550612f85565b600480811115612f1657fe5b601060009054906101000a900460ff166004811115612f3157fe5b1415612f84576000601060006101000a81548160ff02191690836004811115612f5657fe5b0217905550600b60008154600101919050819055506000600d819055506000600e819055506000600f819055505b5b5b5b5b42600c81905550600b547f68c618b4722a30adfd435aefec043781d40a8a871689115e91a2257ca097fab5601060009054906101000a900460ff1660405180826004811115612fd357fe5b60ff16815260200191505060405180910390a2565b6000601284815481101515612ff957fe5b90600052602060002090600c02016007018381548110151561301757fe5b906000526020600020018281548110151561302e57fe5b90600052602060002090600202016001015490509392505050565b600060128381548110151561305a57fe5b90600052602060002090600c020160090160008373ffffffffffffffffffffffffffffffffffffffff1673ffffffffffffffffffffffffffffffffffffffff16815260200190815260200160002054905092915050565b6005816005811015156130c057fe5b016000915090505481565b60008060006130d984613f47565b91506130e484613cbc565b34101515156130f257600080fd5b601280548091906001016131069190614109565b925060128381548110151561311757fe5b90600052602060002090600c02019050338160000160006101000a81548173ffffffffffffffffffffffffffffffffffffffff021916908373ffffffffffffffffffffffffffffffffffffffff1602179055506001600481111561317757fe5b601060009054906101000a900460ff16600481111561319257fe5b10156131a857600b5481600101819055506131b7565b6001600b540181600101819055505b848160030181905550818160040160006101000a81548161ffff021916908361ffff16021790555060025481600501819055508060070180548091906001016132009190614079565b5080600801805480919060010161321791906140a5565b50827f141dfc18aa6a56fc816f44f0e9e2f1ebc92b15ab167770e17db5b084c10ed99533604051808273ffffffffffffffffffffffffffffffffffffffff1673ffffffffffffffffffffffffffffffffffffffff16815260200191505060405180910390a2829250505092915050565b600080600080600080600080600080600060048060048111156132a657fe5b601060009054906101000a900460ff1660048111156132c157fe5b1415156132cd57600080fd5b60128d8154811015156132dc57fe5b90600052602060002090600c02019b50600060038111156132f957fe5b8c60060160009054906101000a900460ff16600381111561331657fe5b14151561332257600080fd5b600b548c600201548d60010154011115151561333d57600080fd5b8b6008018c6002015481548110151561335257fe5b9060005260206000209060030201600001549a5061336e61399a565b9950600098505b8b600201548911151561385e5760008b1415806133ee57508b6008018c600201548154811015156133a257fe5b9060005260206000209060030201600101548c6008018d600201548154811015156133c957fe5b9060005260206000209060030201600201600080815260200190815260200160002054145b1561376e576000975060009650600095505b8b6007018981548110151561341157fe5b9060005260206000200180549050861015613594578b6007018981548110151561343757fe5b906000526020600020018681548110151561344e57fe5b906000526020600020906002020194508a856001015414151561358257601160008660000160009054906101000a900473ffffffffffffffffffffffffffffffffffffffff1673ffffffffffffffffffffffffffffffffffffffff1673ffffffffffffffffffffffffffffffffffffffff168152602001908152602001600020935083600001548a106134e55783600001546134e7565b895b92508284600001600082825403925050819055508460000160009054906101000a900473ffffffffffffffffffffffffffffffffffffffff1673ffffffffffffffffffffffffffffffffffffffff167f72f86a9d9fab69e4814ca24b54076a6e59b7463230974d7b72bed55777fbcf6c8e85600003604051808381526020018281526020019250505060405180910390a28288019750613589565b8660010196505b856001019550613400565b60008714156135f25787601160003073ffffffffffffffffffffffffffffffffffffffff1673ffffffffffffffffffffffffffffffffffffffff1681526020019081526020016000206000016000828254019250508190555061376d565b86888115156135fd57fe5b049150600095505b8b6007018981548110151561361657fe5b906000526020600020018054905086101561376c578b6007018981548110151561363c57fe5b906000526020600020018681548110151561365357fe5b906000526020600020906002020194508a8560010154141561376157601160008660000160009054906101000a900473ffffffffffffffffffffffffffffffffffffffff1673ffffffffffffffffffffffffffffffffffffffff1673ffffffffffffffffffffffffffffffffffffffff16815260200190815260200160002093508184600001600082825401925050819055508460000160009054906101000a900473ffffffffffffffffffffffffffffffffffffffff1673ffffffffffffffffffffffffffffffffffffffff167f72f86a9d9fab69e4814ca24b54076a6e59b7463230974d7b72bed55777fbcf6c8e84604051808381526020018281526020019250505060405180910390a25b856001019550613605565b5b5b600095505b8b6007018981548110151561378457fe5b9060005260206000200180549050861015613853578b600701898154811015156137aa57fe5b90600052602060002001868154811015156137c157fe5b90600052602060002090600202019450601160008660000160009054906101000a900473ffffffffffffffffffffffffffffffffffffffff1673ffffffffffffffffffffffffffffffffffffffff1673ffffffffffffffffffffffffffffffffffffffff1681526020019081526020016000209350898460010160008282540392505081905550856001019550613773565b886001019850613375565b60028c60060160006101000a81548160ff0219169083600381111561387f57fe5b021790555050505050505050505050505050565b60006012838154811015156138a457fe5b90600052602060002090600c0201600801828154811015156138c257fe5b906000526020600020906003020160000154905092915050565b600f5481565b600160009054906101000a900473ffffffffffffffffffffffffffffffffffffffff1681565b6000600190509392505050565b600a5481565b60116020528060005260406000206000915090508060000154908060010154908060020154908060030154908060040154905085565b600060128381548110151561396257fe5b90600052602060002090600c02016008018281548110151561398057fe5b906000526020600020906003020160010154905092915050565b6000612710600454600a54028115156139af57fe5b04905090565b601060009054906101000a900460ff1681565b6000806012848154811015156139da57fe5b90600052602060002090600c02019050806005015460016139fa86611284565b600202010291505092915050565b6000809050919050565b6000806000601285815481101515613a2657fe5b90600052602060002090600c02019250601160008773ffffffffffffffffffffffffffffffffffffffff1673ffffffffffffffffffffffffffffffffffffffff168152602001908152602001600020915060026004811115613a8457fe5b601060009054906101000a900460ff166004811115613a9f57fe5b111515613aab57600080fd5b600b548360090160008873ffffffffffffffffffffffffffffffffffffffff1673ffffffffffffffffffffffffffffffffffffffff1681526020019081526020016000205414151515613afd57600080fd5b600b548360090160008873ffffffffffffffffffffffffffffffffffffffff1673ffffffffffffffffffffffffffffffffffffffff16815260200190815260200160002081905550613b50868686613d01565b1515613b5b57600080fd5b612710600a5460026004548751020202811515613b7457fe5b04905081600101548260000154038110613b98578160010154826000015403613b9a565b805b9050808260000160008282540392505081905550600281811515613bba57fe5b04601160003373ffffffffffffffffffffffffffffffffffffffff1673ffffffffffffffffffffffffffffffffffffffff16815260200190815260200160002060000160008282540192505081905550600281811515613c1657fe5b04601160003073ffffffffffffffffffffffffffffffffffffffff1673ffffffffffffffffffffffffffffffffffffffff168152602001908152602001600020600001600082825401925050819055503373ffffffffffffffffffffffffffffffffffffffff166108fc84600501548651029081150290604051600060405180830381858888f19350505050158015613cb3573d6000803e3d6000fd5b50505050505050565b6000600254613cca83613f47565b61ffff16029050919050565b60045481565b6000809054906101000a900473ffffffffffffffffffffffffffffffffffffffff1681565b6000806000806000806000809550601160008b73ffffffffffffffffffffffffffffffffffffffff1673ffffffffffffffffffffffffffffffffffffffff1681526020019081526020016000209450601289815481101515613d5f57fe5b90600052602060002090600c02019350613d7889611284565b9250600b548560020154141515613d925760009650613eb6565b600b548460020154856001015401141515613db05760009650613eb6565b60016004811115613dbd57fe5b601060009054906101000a900460ff166004811115613dd857fe5b111515613de85760009650613eb6565b5b8751821015613eb157858883815181101515613e0157fe5b90602001906020020151111515613e1b5760009650613eb6565b8782815181101515613e2957fe5b90602001906020020151955082861115613e465760009650613eb6565b600d54600f548a88604051808481526020018381526020018281526020019350505050604051809103902060019004811515613e7e57fe5b06905084600301548110151515613e9457600080fd5b846004015481101515613ea657600080fd5b816001019150613de9565b600196505b5050505050509392505050565b8181613ecf82826139c8565b3410151515613edd57600080fd5b837f9c9b64db9e130f48381bf697abf638e73117dbfbfd7a4484f2da3ba188f4187d33604051808273ffffffffffffffffffffffffffffffffffffffff1673ffffffffffffffffffffffffffffffffffffffff16815260200191505060405180910390a250505050565b6000600282511015613f6b57600360009054906101000a900461ffff169050614074565b816001815181101515613f7a57fe5b9060200101517f010000000000000000000000000000000000000000000000000000000000000090047f0100000000000000000000000000000000000000000000000000000000000000027f010000000000000000000000000000000000000000000000000000000000000090046008836000815181101515613ff957fe5b9060200101517f010000000000000000000000000000000000000000000000000000000000000090047f0100000000000000000000000000000000000000000000000000000000000000027f0100000000000000000000000000000000000000000000000000000000000000900461ffff169060020a020190505b919050565b8154818355818111156140a05781836000526020600020918201910161409f919061413b565b5b505050565b8154818355818111156140d2576003028160030283600052602060002091820191016140d19190614167565b5b505050565b815481835581811115614104576006028160060283600052602060002091820191016141039190614196565b5b505050565b81548183558181111561413657600c0281600c02836000526020600020918201910161413591906141f1565b5b505050565b61416491905b80821115614160576000818161415791906142b8565b50600101614141565b5090565b90565b61419391905b8082111561418f5760008082016000905560018201600090555060030161416d565b5090565b90565b6141ee91905b808211156141ea5760008082016000905560018201600090556002820160009055600382016000905560048201600090556005820160006101000a81549060ff02191690555060060161419c565b5090565b90565b6142b591905b808211156142b157600080820160006101000a81549073ffffffffffffffffffffffffffffffffffffffff02191690556001820160009055600282016000905560038201600090556004820160006101000a81549061ffff021916905560058201600090556006820160006101000a81549060ff021916905560078201600061428091906142dc565b60088201600061429091906142fd565b600a820160009055600b820160006142a89190614321565b50600c016141f7565b5090565b90565b50805460008255600202906000526020600020908101906142d99190614345565b50565b50805460008255906000526020600020908101906142fa919061413b565b50565b508054600082556003029060005260206000209081019061431e9190614167565b50565b50805460008255600602906000526020600020908101906143429190614196565b50565b61439091905b8082111561438c57600080820160006101000a81549073ffffffffffffffffffffffffffffffffffffffff021916905560018201600090555060020161434b565b5090565b905600a165627a7a72305820f84dc97e79cac33a6fa96bdbb6c1d6230d5691d649599708de10b4f7986d1bbd0029",
  "source": "/**\n *  @title KlerosPOC\n *  @author Clment Lesaege - <clement@lesaege.com>\n *  This code implements a simple version of Kleros.\n *  Bug Bounties: This code hasn't undertaken a bug bounty program yet.\n */\n\npragma solidity ^0.4.15;\n\nimport \"minimetoken/contracts/TokenController.sol\";\n\nimport \"../Kleros.sol\";\n\ncontract KlerosPOC is Kleros, TokenController {\n    /** @dev Constructor for KlerosPOC passing all arguments to base Kleros contract.\n     *  @param _pinakion The address of the pinakion contract.\n     *  @param _rng The random number generator which will be used.\n     *  @param _timePerPeriod The minimal time for each period.\n     */\n    function KlerosPOC(Pinakion _pinakion, RNG _rng, uint[5] _timePerPeriod) Kleros(_pinakion, _rng, _timePerPeriod) public {}\n\n    // **************************** //\n    // *    Functions required    * //\n    // *    for TokenController   * //\n    // **************************** //\n\n    /** @notice Called when `_owner` sends ether to the Pinakion contract\n     *  @param _owner The address that sent the ether to create tokens\n     *  @return True if the ether is accepted, false if it throws\n     */\n    function proxyPayment(address _owner) public payable returns(bool) {\n        return false; // don't allow any ether transfers to Pinakion contract\n    }\n\n    /** @notice Notifies the controller about a token transfer allowing the controller to react if desired\n     *  @param _from The origin of the transfer\n     *  @param _to The destination of the transfer\n     *  @param _amount The amount of the transfer\n     *  @return False if the controller does not authorize the transfer\n     */\n    function onTransfer(address _from, address _to, uint _amount) public returns(bool) {\n        return true; // allow all transfers\n    }\n\n    /** @notice Notifies the controller about an approval allowing the controller to react if desired\n     *  @param _owner The address that calls `approve()`\n     *  @param _spender The spender in the `approve()` call\n     *  @param _amount The amount in the `approve()` call\n     *  @return False if the controller does not authorize the approval\n     */\n    function onApprove(address _owner, address _spender, uint _amount) public returns(bool) {\n        return true; // allow all approvals\n    }\n\n    // **************************** //\n    // *    Functions specific    * //\n    // *          to POC          * //\n    // **************************** //\n\n    /** @dev Give Pinakions at the rate 1 ETH = 1 PNK.\n     *  Note that in the real Kleros, the token supply will be fixed but for the proof of concept, we prefer to allow users to get some easily to try it.\n     */\n    function buyPinakion() public payable {\n        Juror storage juror = jurors[msg.sender];\n        juror.balance+=msg.value;\n        pinakion.generateTokens(this,msg.value);\n    }\n}\n",
  "sourcePath": "/Users/samvitello/kleros/kleros/contracts/POC/KlerosPOC.sol",
  "compiler": {
    "name": "solc",
    "version": "0.4.23+commit.124ca40d.Emscripten.clang"
  },
  "schemaVersion": "2.0.0",
  "updatedAt": "2018-06-11T15:01:52.775Z"
}