{
  "contractName": "TwoPartyArbitrable",
  "abi": [
    {
      "constant": true,
      "inputs": [],
      "name": "arbitratorExtraData",
      "outputs": [
        {
          "name": "",
          "type": "bytes"
        }
      ],
      "payable": false,
      "stateMutability": "view",
      "type": "function"
    },
    {
      "constant": true,
      "inputs": [],
      "name": "partyA",
      "outputs": [
        {
          "name": "",
          "type": "address"
        }
      ],
      "payable": false,
      "stateMutability": "view",
      "type": "function"
    },
    {
      "constant": true,
      "inputs": [],
      "name": "status",
      "outputs": [
        {
          "name": "",
          "type": "uint8"
        }
      ],
      "payable": false,
      "stateMutability": "view",
      "type": "function"
    },
    {
      "constant": true,
      "inputs": [],
      "name": "partyB",
      "outputs": [
        {
          "name": "",
          "type": "address"
        }
      ],
      "payable": false,
      "stateMutability": "view",
      "type": "function"
    },
    {
      "constant": false,
      "inputs": [
        {
          "name": "_disputeID",
          "type": "uint256"
        },
        {
          "name": "_ruling",
          "type": "uint256"
        }
      ],
      "name": "rule",
      "outputs": [],
      "payable": false,
      "stateMutability": "nonpayable",
      "type": "function"
    },
    {
      "constant": true,
      "inputs": [],
      "name": "partyAFee",
      "outputs": [
        {
          "name": "",
          "type": "uint256"
        }
      ],
      "payable": false,
      "stateMutability": "view",
      "type": "function"
    },
    {
      "constant": true,
      "inputs": [],
      "name": "partyBFee",
      "outputs": [
        {
          "name": "",
          "type": "uint256"
        }
      ],
      "payable": false,
      "stateMutability": "view",
      "type": "function"
    },
    {
      "constant": true,
      "inputs": [],
      "name": "arbitrator",
      "outputs": [
        {
          "name": "",
          "type": "address"
        }
      ],
      "payable": false,
      "stateMutability": "view",
      "type": "function"
    },
    {
      "constant": true,
      "inputs": [],
      "name": "timeout",
      "outputs": [
        {
          "name": "",
          "type": "uint256"
        }
      ],
      "payable": false,
      "stateMutability": "view",
      "type": "function"
    },
    {
      "constant": true,
      "inputs": [],
      "name": "lastInteraction",
      "outputs": [
        {
          "name": "",
          "type": "uint256"
        }
      ],
      "payable": false,
      "stateMutability": "view",
      "type": "function"
    },
    {
      "constant": true,
      "inputs": [],
      "name": "disputeID",
      "outputs": [
        {
          "name": "",
          "type": "uint256"
        }
      ],
      "payable": false,
      "stateMutability": "view",
      "type": "function"
    },
    {
      "inputs": [
        {
          "name": "_arbitrator",
          "type": "address"
        },
        {
          "name": "_hashContract",
          "type": "bytes32"
        },
        {
          "name": "_timeout",
          "type": "uint256"
        },
        {
          "name": "_partyB",
          "type": "address"
        },
        {
          "name": "_arbitratorExtraData",
          "type": "bytes"
        }
      ],
      "payable": false,
      "stateMutability": "nonpayable",
      "type": "constructor"
    },
    {
      "anonymous": false,
      "inputs": [
        {
          "indexed": false,
          "name": "_party",
          "type": "uint8"
        }
      ],
      "name": "HasToPayFee",
      "type": "event"
    },
    {
      "anonymous": false,
      "inputs": [
        {
          "indexed": true,
          "name": "_arbitrator",
          "type": "address"
        },
        {
          "indexed": true,
          "name": "_disputeID",
          "type": "uint256"
        },
        {
          "indexed": false,
          "name": "_rulingOptions",
          "type": "string"
        }
      ],
      "name": "Dispute",
      "type": "event"
    },
    {
      "anonymous": false,
      "inputs": [
        {
          "indexed": true,
          "name": "_arbitrator",
          "type": "address"
        },
        {
          "indexed": true,
          "name": "_disputeID",
          "type": "uint256"
        },
        {
          "indexed": false,
          "name": "_ruling",
          "type": "uint256"
        }
      ],
      "name": "Ruling",
      "type": "event"
    },
    {
      "anonymous": false,
      "inputs": [
        {
          "indexed": true,
          "name": "_arbitrator",
          "type": "address"
        },
        {
          "indexed": true,
          "name": "_disputeID",
          "type": "uint256"
        },
        {
          "indexed": false,
          "name": "_party",
          "type": "address"
        },
        {
          "indexed": false,
          "name": "_evidence",
          "type": "string"
        }
      ],
      "name": "Evidence",
      "type": "event"
    },
    {
      "anonymous": false,
      "inputs": [
        {
          "indexed": false,
          "name": "_contractHash",
          "type": "bytes32"
        }
      ],
      "name": "ContractHash",
      "type": "event"
    },
    {
      "constant": false,
      "inputs": [],
      "name": "payArbitrationFeeByPartyA",
      "outputs": [],
      "payable": true,
      "stateMutability": "payable",
      "type": "function"
    },
    {
      "constant": false,
      "inputs": [],
      "name": "payArbitrationFeeByPartyB",
      "outputs": [],
      "payable": true,
      "stateMutability": "payable",
      "type": "function"
    },
    {
      "constant": false,
      "inputs": [],
      "name": "timeOutByPartyA",
      "outputs": [],
      "payable": false,
      "stateMutability": "nonpayable",
      "type": "function"
    },
    {
      "constant": false,
      "inputs": [],
      "name": "timeOutByPartyB",
      "outputs": [],
      "payable": false,
      "stateMutability": "nonpayable",
      "type": "function"
    },
    {
      "constant": false,
      "inputs": [
        {
          "name": "_evidence",
          "type": "string"
        }
      ],
      "name": "submitEvidence",
      "outputs": [],
      "payable": false,
      "stateMutability": "nonpayable",
      "type": "function"
    },
    {
      "constant": false,
      "inputs": [
        {
          "name": "_extraData",
          "type": "bytes"
        }
      ],
      "name": "appeal",
      "outputs": [],
      "payable": true,
      "stateMutability": "payable",
      "type": "function"
    }
  ],
  "bytecode": "0x606060405234156200001057600080fd5b604051620016e6380380620016e683398101604052808051906020019091908051906020019091908051906020019091908051906020019091908051820191905050848185826000806101000a81548173ffffffffffffffffffffffffffffffffffffffff021916908373ffffffffffffffffffffffffffffffffffffffff1602179055508160019080519060200190620000ad92919062000184565b507f1892820d22f2ab2b60795935d39550f42562bf8862a0b3c2193b095baa40af218160405180826000191660001916815260200191505060405180910390a15050508260028190555033600360006101000a81548173ffffffffffffffffffffffffffffffffffffffff021916908373ffffffffffffffffffffffffffffffffffffffff16021790555081600460006101000a81548173ffffffffffffffffffffffffffffffffffffffff021916908373ffffffffffffffffffffffffffffffffffffffff160217905550505050505062000233565b828054600181600116156101000203166002900490600052602060002090601f016020900481019282601f10620001c757805160ff1916838001178555620001f8565b82800160010185558215620001f8579182015b82811115620001f7578251825591602001919060010190620001da565b5b5090506200020791906200020b565b5090565b6200023091905b808211156200022c57600081600090555060010162000212565b5090565b90565b6114a380620002436000396000f3006060604052600436106100f1576000357c0100000000000000000000000000000000000000000000000000000000900463ffffffff168063069fae2a146100f65780630c7ac7b61461014857806310e1d8ca146101d657806319e2641e1461022b578063200d2ed2146102405780632904011314610277578063311a6c56146102cc5780634b40c974146102f8578063512491f1146103215780636cc6cde11461034a57806370dea79a1461039f578063853c80ce146103c85780638f71a265146103dd578063a010963114610406578063b0a1e2b414610410578063b1bcce3a14610439578063bac91e2e14610443575b600080fd5b610146600480803590602001908201803590602001908080601f016020809104026020016040519081016040528093929190818152602001838380828437820191505050505050919050506104a0565b005b341561015357600080fd5b61015b61066a565b6040518080602001828103825283818151815260200191508051906020019080838360005b8381101561019b578082015181840152602081019050610180565b50505050905090810190601f1680156101c85780820380516001836020036101000a031916815260200191505b509250505060405180910390f35b34156101e157600080fd5b6101e9610708565b604051808273ffffffffffffffffffffffffffffffffffffffff1673ffffffffffffffffffffffffffffffffffffffff16815260200191505060405180910390f35b341561023657600080fd5b61023e61072e565b005b341561024b57600080fd5b6102536107e5565b6040518082600481111561026357fe5b60ff16815260200191505060405180910390f35b341561028257600080fd5b61028a6107f8565b604051808273ffffffffffffffffffffffffffffffffffffffff1673ffffffffffffffffffffffffffffffffffffffff16815260200191505060405180910390f35b34156102d757600080fd5b6102f6600480803590602001909190803590602001909190505061081e565b005b341561030357600080fd5b61030b6108d6565b6040518082815260200191505060405180910390f35b341561032c57600080fd5b6103346108dc565b6040518082815260200191505060405180910390f35b341561035557600080fd5b61035d6108e2565b604051808273ffffffffffffffffffffffffffffffffffffffff1673ffffffffffffffffffffffffffffffffffffffff16815260200191505060405180910390f35b34156103aa57600080fd5b6103b2610907565b6040518082815260200191505060405180910390f35b34156103d357600080fd5b6103db61090d565b005b34156103e857600080fd5b6103f06109c4565b6040518082815260200191505060405180910390f35b61040e6109ca565b005b341561041b57600080fd5b610423610c41565b6040518082815260200191505060405180910390f35b610441610c47565b005b341561044e57600080fd5b61049e600480803590602001908201803590602001908080601f01602080910402602001604051908101604052809392919081815260200183838082843782019150505050505091905050610ebe565b005b600360009054906101000a900473ffffffffffffffffffffffffffffffffffffffff1673ffffffffffffffffffffffffffffffffffffffff163373ffffffffffffffffffffffffffffffffffffffff1614806105495750600460009054906101000a900473ffffffffffffffffffffffffffffffffffffffff1673ffffffffffffffffffffffffffffffffffffffff163373ffffffffffffffffffffffffffffffffffffffff16145b151561055457600080fd5b6000809054906101000a900473ffffffffffffffffffffffffffffffffffffffff1673ffffffffffffffffffffffffffffffffffffffff166349912f8834600854846040518463ffffffff167c01000000000000000000000000000000000000000000000000000000000281526004018083815260200180602001828103825283818151815260200191508051906020019080838360005b838110156106075780820151818401526020810190506105ec565b50505050905090810190601f1680156106345780820380516001836020036101000a031916815260200191505b5093505050506000604051808303818588803b151561065257600080fd5b6125ee5a03f1151561066357600080fd5b5050505050565b60018054600181600116156101000203166002900480601f0160208091040260200160405190810160405280929190818152602001828054600181600116156101000203166002900480156107005780601f106106d557610100808354040283529160200191610700565b820191906000526020600020905b8154815290600101906020018083116106e357829003601f168201915b505050505081565b600360009054906101000a900473ffffffffffffffffffffffffffffffffffffffff1681565b600360009054906101000a900473ffffffffffffffffffffffffffffffffffffffff1673ffffffffffffffffffffffffffffffffffffffff163373ffffffffffffffffffffffffffffffffffffffff1614151561078a57600080fd5b6002600481111561079757fe5b600960009054906101000a900460ff1660048111156107b257fe5b1415156107be57600080fd5b6002546007540142101515156107d357600080fd5b6107e3600854600160ff166110b5565b565b600960009054906101000a900460ff1681565b600460009054906101000a900473ffffffffffffffffffffffffffffffffffffffff1681565b6000809054906101000a900473ffffffffffffffffffffffffffffffffffffffff1673ffffffffffffffffffffffffffffffffffffffff163373ffffffffffffffffffffffffffffffffffffffff1614151561087957600080fd5b813373ffffffffffffffffffffffffffffffffffffffff167f394027a5fa6e098a1191094d1719d6929b9abc535fcc0c8f448d6a4e75622276836040518082815260200191505060405180910390a36108d282826110b5565b5050565b60055481565b60065481565b6000809054906101000a900473ffffffffffffffffffffffffffffffffffffffff1681565b60025481565b600460009054906101000a900473ffffffffffffffffffffffffffffffffffffffff1673ffffffffffffffffffffffffffffffffffffffff163373ffffffffffffffffffffffffffffffffffffffff1614151561096957600080fd5b6001600481111561097657fe5b600960009054906101000a900460ff16600481111561099157fe5b14151561099d57600080fd5b6002546007540142101515156109b257600080fd5b6109c2600854600260ff166110b5565b565b60075481565b6000600360009054906101000a900473ffffffffffffffffffffffffffffffffffffffff1673ffffffffffffffffffffffffffffffffffffffff163373ffffffffffffffffffffffffffffffffffffffff16141515610a2857600080fd5b6000809054906101000a900473ffffffffffffffffffffffffffffffffffffffff1673ffffffffffffffffffffffffffffffffffffffff1663f7434ea960016000604051602001526040518263ffffffff167c01000000000000000000000000000000000000000000000000000000000281526004018080602001828103825283818154600181600116156101000203166002900481526020019150805460018160011615610100020316600290048015610b245780601f10610af957610100808354040283529160200191610b24565b820191906000526020600020905b815481529060010190602001808311610b0757829003601f168201915b505092505050602060405180830381600087803b1515610b4357600080fd5b6102c65a03f11515610b5457600080fd5b5050506040518051905090503460056000828254019250508190555080600554141515610b8057600080fd5b60036004811115610b8d57fe5b600960009054906101000a900460ff166004811115610ba857fe5b101515610bb457600080fd5b42600781905550806006541015610c34576002600960006101000a81548160ff02191690836004811115610be457fe5b02179055507fba8db766b5582c21593909b57af48297714ea2c508bfff6c537ce36bb853e568600160405180826001811115610c1c57fe5b60ff16815260200191505060405180910390a1610c3e565b610c3d816111fb565b5b50565b60085481565b6000600460009054906101000a900473ffffffffffffffffffffffffffffffffffffffff1673ffffffffffffffffffffffffffffffffffffffff163373ffffffffffffffffffffffffffffffffffffffff16141515610ca557600080fd5b6000809054906101000a900473ffffffffffffffffffffffffffffffffffffffff1673ffffffffffffffffffffffffffffffffffffffff1663f7434ea960016000604051602001526040518263ffffffff167c01000000000000000000000000000000000000000000000000000000000281526004018080602001828103825283818154600181600116156101000203166002900481526020019150805460018160011615610100020316600290048015610da15780601f10610d7657610100808354040283529160200191610da1565b820191906000526020600020905b815481529060010190602001808311610d8457829003601f168201915b505092505050602060405180830381600087803b1515610dc057600080fd5b6102c65a03f11515610dd157600080fd5b5050506040518051905090503460066000828254019250508190555080600654141515610dfd57600080fd5b60036004811115610e0a57fe5b600960009054906101000a900460ff166004811115610e2557fe5b101515610e3157600080fd5b42600781905550806005541015610eb1576001600960006101000a81548160ff02191690836004811115610e6157fe5b02179055507fba8db766b5582c21593909b57af48297714ea2c508bfff6c537ce36bb853e568600060405180826001811115610e9957fe5b60ff16815260200191505060405180910390a1610ebb565b610eba816111fb565b5b50565b600360009054906101000a900473ffffffffffffffffffffffffffffffffffffffff1673ffffffffffffffffffffffffffffffffffffffff163373ffffffffffffffffffffffffffffffffffffffff161480610f675750600460009054906101000a900473ffffffffffffffffffffffffffffffffffffffff1673ffffffffffffffffffffffffffffffffffffffff163373ffffffffffffffffffffffffffffffffffffffff16145b1515610f7257600080fd5b60036004811115610f7f57fe5b600960009054906101000a900460ff166004811115610f9a57fe5b10151515610fa757600080fd5b6008546000809054906101000a900473ffffffffffffffffffffffffffffffffffffffff1673ffffffffffffffffffffffffffffffffffffffff167fdccf2f8b2cc26eafcd61905cba744cff4b81d14740725f6376390dc6298a6a3c3384604051808373ffffffffffffffffffffffffffffffffffffffff1673ffffffffffffffffffffffffffffffffffffffff16815260200180602001828103825283818151815260200191508051906020019080838360005b8381101561107757808201518184015260208101905061105c565b50505050905090810190601f1680156110a45780820380516001836020036101000a031916815260200191505b50935050505060405180910390a350565b600854821415156110c557600080fd5b600260ff1681111515156110d857600080fd5b600160ff1681141561115757600360009054906101000a900473ffffffffffffffffffffffffffffffffffffffff1673ffffffffffffffffffffffffffffffffffffffff166108fc6006546005541161113357600654611137565b6005545b9081150290604051600060405180830381858888f19350505050506111d3565b600260ff168114156111d257600460009054906101000a900473ffffffffffffffffffffffffffffffffffffffff1673ffffffffffffffffffffffffffffffffffffffff166108fc600654600554116111b2576006546111b6565b6005545b9081150290604051600060405180830381858888f19350505050505b5b6004600960006101000a81548160ff021916908360048111156111f257fe5b02179055505050565b6003600960006101000a81548160ff0219169083600481111561121a57fe5b02179055506000809054906101000a900473ffffffffffffffffffffffffffffffffffffffff1673ffffffffffffffffffffffffffffffffffffffff1663c13517e182600260016000604051602001526040518463ffffffff167c0100000000000000000000000000000000000000000000000000000000028152600401808360ff168152602001806020018281038252838181546001816001161561010002031660029004815260200191508054600181600116156101000203166002900480156113275780601f106112fc57610100808354040283529160200191611327565b820191906000526020600020905b81548152906001019060200180831161130a57829003601f168201915b505093505050506020604051808303818588803b151561134657600080fd5b6125ee5a03f1151561135757600080fd5b50505050604051805190506008819055506008546000809054906101000a900473ffffffffffffffffffffffffffffffffffffffff1673ffffffffffffffffffffffffffffffffffffffff167f775071bee3f2d409883bcb9dfcef6befa9343668ab341f76fcc5817b52a126116040805190810160405280601981526020017f506172747920412077696e733b506172747920422077696e73000000000000008152506040518080602001828103825283818151815260200191508051906020019080838360005b8381101561143a57808201518184015260208101905061141f565b50505050905090810190601f1680156114675780820380516001836020036101000a031916815260200191505b509250505060405180910390a3505600a165627a7a72305820dc88c282595e731cd0c702b2074a352d756a795badca661f9a69757f76ccc73b0029",
  "source": "/**\r\n *  @title Two-Party Arbitrable\r\n *  @author Clément Lesaege - <clement@lesaege.com>\r\n *  Bug Bounties: This code hasn't undertaken a bug bounty program yet.\r\n */\r\n\r\n\r\npragma solidity ^0.4.15;\r\nimport \"./Arbitrable.sol\";\r\n\r\n\r\n/** @title Two-Party Arbitrable\r\n *  @dev A contract between two parties which can be arbitrated. Both parties has to pay for the arbitration fee. The winning party will get its fee refunded.\r\n *  To develop a contract inheriting from this one, you need to:\r\n *  - Redefine RULING_OPTIONS to explain the consequences of the possible rulings.\r\n *  - Redefine executeRuling while still calling super.executeRuling to implement the results of the arbitration.\r\n */\r\ncontract TwoPartyArbitrable is Arbitrable {\r\n    uint public timeout; // Time in second a party can take before being considered unresponding and lose the dispute.\r\n    address public partyA;\r\n    address public partyB;\r\n    uint public partyAFee; // Total fees paid by the partyA.\r\n    uint public partyBFee; // Total fees paid by the partyB.\r\n    uint public lastInteraction; // Last interaction for the dispute procedure.\r\n    uint public disputeID;\r\n    enum Status {NoDispute, WaitingPartyA, WaitingPartyB, DisputeCreated, Resolved}\r\n    Status public status;\r\n    \r\n    uint8 constant AMOUNT_OF_CHOICES = 2;\r\n    uint8 constant PARTY_A_WINS = 1;\r\n    uint8 constant PARTY_B_WINS = 2;\r\n    string constant RULING_OPTIONS = \"Party A wins;Party B wins\"; // A plain English of what rulings does. Need to be redefined by the child class.\r\n    \r\n    modifier onlyPartyA{ require(msg.sender==partyA); _; }\r\n    modifier onlyPartyB{ require(msg.sender==partyB); _; }\r\n    modifier onlyParty{ require(msg.sender==partyA || msg.sender==partyB); _; }\r\n    \r\n    enum Party {PartyA, PartyB}\r\n    \r\n    /** @dev Indicate that a party has to pay a fee or would otherwise be considered as loosing.\r\n     *  @param _party The party who has to pay.\r\n     */\r\n    event HasToPayFee(Party _party);\r\n    \r\n    /** @dev Constructor. Choose the arbitrator.\r\n     *  @param _arbitrator The arbitrator of the contract.\r\n     *  @param _hashContract Keccak hash of the plain English contract.\r\n     *  @param _timeout Time after which a party automatically loose a dispute.\r\n     *  @param _partyB The recipient of the transaction.\r\n     *  @param _arbitratorExtraData Extra data for the arbitrator.\r\n     */\r\n    function TwoPartyArbitrable(Arbitrator _arbitrator, bytes32 _hashContract, uint _timeout, address _partyB, bytes _arbitratorExtraData) Arbitrable(_arbitrator,_arbitratorExtraData,_hashContract) {\r\n        timeout=_timeout;\r\n        partyA=msg.sender;\r\n        partyB=_partyB;\r\n    }\r\n    \r\n    \r\n    /** @dev Pay the arbitration fee to raise a dispute. To be called by the party A. UNTRUSTED.\r\n     *  Note that the arbitrator can have createDispute throw, which will make this function throw and therefore lead to a party being timed-out.\r\n     *  This is not a vulnerability as the arbitrator can rule in favor of one party anyway.\r\n     */\r\n    function payArbitrationFeeByPartyA() payable onlyPartyA {\r\n        uint arbitrationCost=arbitrator.arbitrationCost(arbitratorExtraData);\r\n        partyAFee+=msg.value;\r\n        require(partyAFee == arbitrationCost); // Require that the total pay at least the arbitration cost.\r\n        require(status<Status.DisputeCreated); // Make sure a dispute has not been created yet.\r\n        \r\n        lastInteraction=now;\r\n        if (partyBFee < arbitrationCost) { // The partyB still has to pay. This can also happens if he has paid, but arbitrationCost has increased.\r\n            status=Status.WaitingPartyB;\r\n            HasToPayFee(Party.PartyB);\r\n        } else { // The partyB has also paid the fee. We create the dispute\r\n            raiseDispute(arbitrationCost);\r\n        }\r\n    }\r\n    \r\n    \r\n    /** @dev Pay the arbitration fee to raise a dispute. To be called by the party B. UNTRUSTED.\r\n     *  Note that this function mirror payArbitrationFeeByPartyA.\r\n     */\r\n    function payArbitrationFeeByPartyB() payable onlyPartyB {\r\n        uint arbitrationCost=arbitrator.arbitrationCost(arbitratorExtraData);\r\n        partyBFee+=msg.value;\r\n        require(partyBFee == arbitrationCost); // Require that the total pay at least the arbitration cost.\r\n        require(status<Status.DisputeCreated); // Make sure a dispute has not been created yet.\r\n        \r\n        lastInteraction=now;\r\n        if (partyAFee < arbitrationCost) { // The partyA still has to pay. This can also happens if he has paid, but arbitrationCost has increased.\r\n            status=Status.WaitingPartyA;\r\n            HasToPayFee(Party.PartyA);\r\n        } else { // The partyA has also paid the fee. We create the dispute\r\n            raiseDispute(arbitrationCost);\r\n        }\r\n    }\r\n    \r\n    /** @dev Create a dispute. UNTRUSTED.\r\n     *  @param _arbitrationCost Amount to pay the arbitrator.\r\n     */\r\n    function raiseDispute(uint _arbitrationCost) internal {\r\n        status=Status.DisputeCreated;\r\n        disputeID=arbitrator.createDispute.value(_arbitrationCost)(AMOUNT_OF_CHOICES,arbitratorExtraData);\r\n        Dispute(arbitrator,disputeID,RULING_OPTIONS);\r\n    }\r\n    \r\n    /** @dev Reimburse partyA if partyB fails to pay the fee.\r\n     */\r\n    function timeOutByPartyA() onlyPartyA {\r\n        require(status==Status.WaitingPartyB);\r\n        require(now>=lastInteraction+timeout);\r\n        \r\n        executeRuling(disputeID,PARTY_A_WINS);\r\n    }\r\n    \r\n    /** @dev Pay partyB if partyA fails to pay the fee.\r\n     */\r\n    function timeOutByPartyB() onlyPartyB {\r\n        require(status==Status.WaitingPartyA);\r\n        require(now>=lastInteraction+timeout);\r\n        \r\n        executeRuling(disputeID,PARTY_B_WINS);\r\n    }\r\n    \r\n    /** @dev Submit a reference to evidence. EVENT.\r\n     *  @param _evidence A link to an evidence using its URI.\r\n     */\r\n    function submitEvidence(string _evidence) onlyParty {\r\n        require(status>=Status.DisputeCreated);\r\n        Evidence(arbitrator,disputeID,msg.sender,_evidence);\r\n    }\r\n    \r\n    /** @dev Appeal an appealable ruling.\r\n     *  Transfer the funds to the arbitrator.\r\n     *  Note that no checks are required as the checks are done by the arbitrator.\r\n     *  @param _extraData Extra data for the arbitrator appeal procedure.\r\n     */\r\n    function appeal(bytes _extraData) onlyParty payable {\r\n        arbitrator.appeal.value(msg.value)(disputeID,_extraData);\r\n    }\r\n    \r\n    /** @dev Execute a ruling of a dispute. It reimburse the fee to the winning party.\r\n     *  This need to be extended by contract inheriting from it.\r\n     *  @param _disputeID ID of the dispute in the Arbitrator contract.\r\n     *  @param _ruling Ruling given by the arbitrator. 1 : Reimburse the partyA. 2 : Pay the partyB.\r\n     */\r\n    function executeRuling(uint _disputeID, uint _ruling) internal {\r\n        require(_disputeID==disputeID);\r\n        require(_ruling<=AMOUNT_OF_CHOICES);\r\n        \r\n        // Give the arbitration fee back.\r\n        // Note tha we use send to prevent a party from blocking the execution.\r\n        if (_ruling==PARTY_A_WINS)\r\n            partyA.send(partyAFee > partyBFee ? partyAFee : partyBFee); // In both cases sends the highest amount paid to avoid ETH to be stuck in the contract if the arbitrator lowers its fee.\r\n        else if (_ruling==PARTY_B_WINS)\r\n            partyB.send(partyAFee > partyBFee ? partyAFee : partyBFee);\r\n        status=Status.Resolved;\r\n    }\r\n    \r\n}\r\n",
  "sourcePath": "kleros-interaction/contracts/standard/arbitration/TwoPartyArbitrable.sol",
  "compiler": {
    "name": "solc",
    "version": "0.4.19+commit.c4cbbb05.Emscripten.clang"
  },
  "schemaVersion": "2.0.0",
  "updatedAt": "2018-04-07T18:56:31.851Z"
}